:020000040800F2
:1000000000000120CD490008114A0008114A0008EB
:10001000114A0008114A0008114A000800000000B7
:10002000000000000000000000000000114A00086D
:10003000114A000800000000114A0008114A000897
:10004000114A0008114A0008114A0008114A000824
:10005000114A0008114A0008114A0008114A000814
:1000600075160008114A0008114A0008114A0008D4
:10007000114A0008114A0008114A0008114A0008F4
:10008000114A0008114A0008114A0008114A0008E4
:10009000114A0008114A0008114A0008114A0008D4
:1000A000114A0008114A0008114A0008114A0008C4
:1000B000114A0008114A0008114A0008114A0008B4
:1000C000114A0008114A0008114A0008114A0008A4
:1000D000114A0008151A0008114A0008114A0008C0
:1000E000114A0008114A0008114A0008114A000884
:1000F000114A0008114A0008114A0008114A000874
:10010000114A0008114A0008114A0008114A000863
:10011000114A0008114A0008114A0008114A000853
:10012000114A0008114A0008114A0008114A000843
:1001300000000000000000000000000000000000BF
:1001400000000000000000000000000000000000AF
:10015000000000000000000000000000000000009F
:10016000000000000000000000000000000000008F
:10017000000000000000000000000000000000007F
:10018000000000000000000000000000000000006F
:10019000000000000000000000000000000000005F
:1001A000000000000000000000000000000000004F
:1001B000000000000000000000000000000000003F
:1001C000000000000000000000000000000000002F
:1001D000000000000000000000000000000000001F
:0401E0005FF8E0F1F3
:1001E4000348044B834202D0034B03B118477047C2
:1001F400A4000020A40000200000000005480649D7
:100204000B1AD90F01EBA301491002D0034B03B120
:1002140018477047A4000020A4000020000000003C
:1002240010B5064C237843B9FFF7DAFF044B13B13A
:100234000448AFF300800123237010BDA400002004
:1002440000000000144A000808B5044B1BB104491F
:100254000448AFF30080BDE80840CFE70000000089
:10026400A8000020144A0008044B02680A4201D086
:1002740000207047013BF8D101207047A18601009E
:10028400184B9A6942F008029A61DA6942F48002D2
:10029400DA61A3F582335A6822F47F425A605A68BD
:1002A40042F47F425A604FF440621A61A3F534432A
:1002B4001A6842F400421A601A6822F400421A6072
:1002C40024225A60B422DA6125221A621A6842F0A2
:1002D40001021A601A6842F480621A60024A1360CA
:1002E400704700BF001002400000002038B50546EA
:1002F400154B1C68154BA26992071CD42046236831
:10030400012143F4807340F8143BFFF7ADFFA0B91B
:1003140040F202420D4B2561616911420FD06369BD
:100324005B050FD5636923F480636361236843F439
:100334000073236001E0013BDDD1012038BD013BA6
:10034400EAD1FAE7A369F9E700000020A1860100D9
:100354000A4B70B51E68044606F114058021284630
:10036400FFF782FF40B9042128463461FFF77CFF80
:10037400003818BF012070BD0120FCE700000020F8
:10038400084B10B51C6840212046236843F4806361
:1003940040F8143BFFF768FF10B92069C0B210BDE4
:1003A4000020FCE7000000200A4B10B51C68402127
:1003B4002046236823F480632360236843F4007396
:1003C40040F8143BFFF750FF10B92069C0B210BDCC
:1003D4000020FCE700000020054B1B681A6842F46B
:1003E40000721A601A6842F480621A60704700BF93
:1003F400000000202DE9F04F054685B0002800F0EC
:10040400E0800027FF224FF00308DFF8D0B1744EDC
:100414008BF8007032717271B2718BF801708BF8C5
:1004240002708BF803708BF804708BF80570F2710E
:100434008BF806708BF80770CBF80870ABF80C706B
:100444004FF00009674A32605FFA89F404F1500AF8
:100454006400603CE4B220465FFA8AFAFFF746FF84
:10046400002836D0FFF7B8FF09F10109B9F1080FE8
:10047400EAD15C4A116841F4007111600397039951
:10048400B1F5FA5FC0F0A480116808F1FF3841F4B7
:1004940000411160116818F0FF0821F40041116057
:1004A4004FF0240151604FF0B401D1614FF02501A8
:1004B4001162116841F001011160116841F4806119
:1004C4001160BDD11368326043F480634046136009
:1004D40077E09BF800209BF8011001328BF8002094
:1004E4009BF80220FA2001328BF80220B279FF2A0D
:1004F4004FF0010202FA09F242EA010208BF86F84B
:1005040006A08BF80120FFF723FF0028AAD19BF84F
:10051400032044F00104013220468BF80320FFF746
:10052400E5FE30B12046FFF757FFFFF7DFFE002856
:1005340098D19BF804206C1E01328BF804202246CB
:10054400291DCDE90021FFF71BFF009A019902F84C
:10055400010F8A42F5D1FFF727FF2A68224B687101
:100564001A60AA8886F807A09A800122104605F12D
:10057400050C14F8011F39B3FF294FF0000000D017
:1005840002466445F5D108BB1AB92878C04300F087
:10059400010001228BF807209BF805201149013244
:1005A4008BF805208BF80600FFF716FF0A6842F463
:1005B40080620A6000283FF457AF022386F805A042
:1005C400337105B0BDE8F08F0A46DAE70020E0E7B2
:1005D40000BF03990131039151E700BFC00000201F
:1005E4000000002000580040C8000020074B1A7982
:1005F400FF2A08D05B79FF2B05D000B1027001B14E
:100604000B70012070470020704700BF00000020DD
:1006140010B5074C237800B1037011B105488079F7
:1006240008700AB161781170181E18BF012010BD3E
:10063400C00000200000002030B5084C0346E079DB
:1006440058B11BB1A5681D60A5899D8011B1044BEB
:10065400DB790B700AB1A379137030BDC0000020A0
:100664000000002010B510B1074CA478047011B13B
:100674000548C078087012B103490979117013B1A3
:10068400014A52791A7010BDC0000020002242F2C3
:10069400273182B0013801D202B070470192019B28
:1006A4008B42F7D800BF019B01330193F7E741F276
:1006B4008833002818BF0346014A1380704700BFDF
:1006C400080000202DE9F041504C074620789CB0EA
:1006D400400100F5027002F035F8237800F01F01A4
:1006E4005B0103F5027002F05BF801214FF4B8508E
:1006F40002F056F82078DFF81881400100F54270C6
:1007040002F020F898F802200646824218D01C2AEB
:1007140096BF404B404B53F822301C2896BF3D49AE
:100724003D4951F820100092CDE901103B4A602167
:1007340004A802F0B7FF04A801F07AF988F802606F
:10074400002E53D0A6F11303DAB2092A33D8092BA9
:1007540031D8DFE803F05530303005303030300523
:10076400207802F0E4F8054650B3B0F5006F28BFD6
:100774004FF40065ADB22A462949207801F002FE03
:1007840020781F21400100F5027002F009F8635D32
:100794002348652B04BF05F1FF35ADB2294600F0AF
:1007A4006BF9204801F044F9172E09D102221E49A1
:1007B400207801F037FD00233B701CB0BDE8F081C8
:1007C4001C2EF8D1194801F033F9207801F0E4FC2B
:1007D400207801F0C5FA00230121B8F80020207820
:1007E40001F0F4FA207801F09FFCE4E7334601219C
:1007F400B8F8002020781CB0BDE8F04101F0E6BA5A
:1008040020781CB0BDE8F04101F08EBCCE00002081
:10081400080000202C4A00082C4C0008374C000823
:10082400CF0000205F4C00086E4C0008714C00089B
:1008340038B501250B4A0C4C9369322043F004036C
:100844009361236823F00F032360236843F00303B9
:1008540023606561FFF71AFF25616420BDE8384015
:1008640014E700BF001002400008014008B5074922
:10087400074802F069F90749074802F0A3F9BDE8FF
:1008840008400649064802F0B3B900BF85170008BE
:100894007517000895170008971700089B1700089C
:1008A400B11700080D4B10B51A7802F0FF0132B9E8
:1008B40040F2FE745A8892B2A24201D9598010BD06
:1008C4005A88652892B202F1010189B21A4459800A
:1008D400107104BF01221A70F1E700BFD008002094
:1008E4000D4A08B5936943F01003936101220B4B41
:1008F4001A611A6822F00F021A601A6842F00102A3
:100904001A6000F05FFFBDE8084000224FF6FF7157
:10091400712000F0B7BF00BF00100240001001407A
:1009240010B50446438892B0009343783C21094AA9
:1009340003A802F0B7FE03A801F07AF860780F2844
:1009440005D8403000226188C0B200F09BFF04202B
:1009540012B010BDC84E000830B5857895B06C0053
:1009640003348C4200F103001BD8294600F016FB27
:1009740000282B460CDA50210B4A684602F092FEFE
:10098400684601F055F800F008FB204615B030BD6C
:1009940050216846054A02F085FE684601F048F891
:1009A400F3E74FF0FF30F1E7F54E00081A4F000867
:1009B40010B5044690B0407800F06CFB3C2163789D
:1009C400044A01A802F06EFE01A801F031F80220E9
:1009D40010B010BD3A4F000870B5D0F80130B4B073
:1009E4000693B0F80530032207931F4B06A904466B
:1009F4001E48089300F064F9002303221B4809A948
:100A0400CDE909330B9300F027F90998069B0A9D59
:100A14009842079A0B9E089903D1954201D18E42C0
:100A24000CD0CDE901100092A021CDE90356104A63
:100A34000CA802F037FE0CA800F0FAFFB4F8053059
:100A4400A021039323790B4A0293E3780CA8019322
:100A5400A3780093637802F025FE0CA800F0E8FF69
:100A6400072034B070BD00BF4354454E00700008E9
:100A7400574F0008AD4F000870B506460D460024D8
:100A8400AC4201D3012070BD335D3019652BF9D020
:100A9400012B07D12B1B9BB2032BF3D9FFF740FF8C
:100AA40004440AE00B2B0AD1291B89B20229E9D993
:100AB400FFF752FF031EE5DD1C44A4B2E0E7092B57
:100AC40006D12B1B9BB2012BDCD0FFF771FFE7E7AC
:100AD4000A2BD7D12B1B9BB2062BD3D9FFF77CFF54
:100AE400DEE700BF2E4B82B01A6842F480321A60EF
:100AF4001A689103FCD52B4A116841F0100111606A
:100B0400116821F007011160116841F004011160BE
:100B14005A6822F47F5222F030025A605A685A60AE
:100B24005A6842F480625A605A685A605A6822F4D9
:100B34007C125A605A6842F480325A605A6842F40D
:100B4400E0125A601A6842F080721A601A689201C0
:100B5400FCD55A6822F003025A605A6842F0020235
:100B64005A605A6802F00C02082AFAD100230E4A8D
:100B74000093009B93420ADD00230B4A0193019BDF
:100B8400934208DD094B0A4A1A6002B07047009B81
:100B940001330093EDE7019B01330193EFE700BFBD
:100BA4000010024000200240FF083D000C0000201D
:100BB40000A24A04084AD36943F00103D3614FF009
:100BC40080431A6822F001021A6047229A621A6866
:100BD40042F008021A60704700100240012810D940
:100BE4004FF0804300220138D8625A621A6922F019
:100BF40001021A611A6842F001021A601A69D207E6
:100C0400FCD57047114B30B5DA69044642F0C05246
:100C1400DA610F4A116841F4807111600D49486826
:100C24005D6A05F07C45B5F1006F0AD1002048608B
:100C3400116821F4807111605A6A42F080725A621C
:100C440030BD012CF2D0013080B2F0E70010024038
:100C540000700040006C004001EB8202401A914297
:100C640000D17047435841F8043BF8E7124B1A6926
:100C7400120641BF114A5A6002F188325A60DA689A
:100C8400D107FCD4DA6842F03402DA601A6942F01F
:100C940002021A6158611A6942F040021A61064B55
:100CA400DA68D207FCD4DA6842F03402DA601A69EE
:100CB40022F002021A6170470020024023016745B6
:100CC400F8B52A4C0E4623691546190641BF284B30
:100CD400636003F188336360FFF7C8FFE36843F0A0
:100CE4003403E3600024214BAC4219D056F824109D
:100CF4001A698FB242F001021A61090C0780DA689E
:100D0400D207FCD4DA68970642BFDA6842F02002C0
:100D1400DA601A6922F001021A61DA68520705D50D
:100D2400124A136943F080031361F8BDDA68D706E9
:100D3400F6D41A6942F001021A614180DA68D207D6
:100D4400FCD4DA68970642BFDA6842F02002DA601F
:100D54001A6922F001021A61DA685107E0D4DA68EC
:100D6400D206DDD404300134BEE700BF00200240C7
:100D74002301674510F0010F14BF04224FF48022B1
:100D84001B4B81071A614CBF10224FF480121A6169
:100D940042074CBF20224FF4001201071A614CBFD6
:100DA40040224FF480021A61C2064CBF80224FF4E5
:100DB400000210F0200F1A6114BF10224FF48012A9
:100DC4000C4B41061A614CBF20224FF4001210F064
:100DD400800F1A6114BF01224FF48032064B1A614E
:100DE400C2054CBF02224FF400321A61704700BFA3
:100DF4000008014000100140000C014030B595B0DE
:100E040002460B490446684602F0ACFC684600F012
:100E14000FFE0223074D20462B61FFF7ABFF322064
:100E2400FFF7DCFE4FF4003300202B6115B030BD1A
:100E3400D74F00080008014030B595B002460B4971
:100E44000446684602F08EFC684600F0F1FD082373
:100E5400074D20462B61FFF78DFF3220FFF7BEFEC2
:100E64004FF4002300202B6115B030BD065000085C
:100E74000010014030B595B002460B49044668465F
:100E840002F070FC684600F0D3FD0423074D2046B1
:100E94002B61FFF76FFF3220FFF7A0FE4FF4802392
:100EA40000202B6115B030BD355000080010014002
:100EB40030B595B002460B490446684602F052FC30
:100EC400684600F0B5FD0223074D20462B61FFF76D
:100ED40051FF3220FFF782FE4FF4003300202B61D4
:100EE40015B030BD6450000800100140F0B5002575
:100EF4000B4E0C4F95B0841E2A4634F8023F3946F7
:100F0400684602F02FFC684600F092FD013556F861
:100F1400043B20889847042DEED115B0F0BD00BFE6
:100F2400B84A000893500008154A936943F01C031B
:100F34009361144B144A1968A3F500630A40C3F87B
:100F44000028D3F80018114A0A43C3F800281A6885
:100F540022F47F621204120C1A6019680C4A0A43C4
:100F64001A60D3F8002422F0FF02C3F80024D3F857
:100F7400002442F03302C3F80024FFF71BBE00BF75
:100F840000100240001001400F0000FF3033330016
:100F94003003333300B1A9E77047704700232DE9CC
:100FA400F043092999B006460C46CDE9023316D818
:100FB40079B38EB100250127DFF8649006F10108AA
:100FC40016F8152018F81510013AD2B2032A03D8DE
:100FD4004B1ED8B2082804D94FF0FF301DE0092475
:100FE400E7E718A800EB420030F858CC07FA03F3FF
:100FF40043EA0C039BB220F8583C009104A84946EC
:1010040002F0B0FB013504A800F012FDEBB29C42E3
:10101400D6D802A8FFF76AFF002019B0BDE8F08314
:10102400C5500008184A936943F014039361A2F56C
:101034008032536823F0F0035360536843F0300365
:101044005360124B596821F00F015960596841F0FF
:1010540003015960596821F470415960596841F499
:1010640040515960596821F470215960596841F41C
:10107400403159604FF0007111614FF0C8521A614C
:101084000022034B1A707047001002400008014010
:10109400D51800204FF00073104910B50B614FF0C4
:1010A400C85300240E4A012813610E4B1C7004D14E
:1010B4004FF400720A61187010BD022803D14FF476
:1010C40080711161F7E7032802D14FF40061F8E75A
:1010D4000428F1D14FF48051F3E700BF0010014020
:1010E40000080140D5180020014B1878704700BF54
:1010F400D518002003460028B8BF00F11F035B1178
:1011040051F8233043FA00F000F001007047034621
:1011140000200BB920207047DA07FCD45B080130AB
:10112400F7E7034600200A46014653EA020C02D1BF
:1011340040200021704713F0010FFBD15B08013000
:1011440043EAC27341F100015208EEE7034600226C
:10115400202003B9704713F0010F18BF10465B0835
:101164000132F6E730B50C46002103460A4640201A
:101174000D4653EA040C00D130BD13F0010F1CBF1F
:10118400294610465B08013243EAC47345F1000561
:101194006408EEE70B6870B51B1A064601250020AB
:1011A400002BB8BF5B42954200D370BD51F8254077
:1011B400A41B002CB8BF64429C42BCBF28462346F3
:1011C4000135F0E710B50446FFF7A1FF01FA00F07E
:1011D400204010BDF8B5154607460E461C46FFF7DD
:1011E400A0FFA0F1200105FA01F1C0F12002844022
:1011F4000C4325FA02F2144305FA00F0384004EADD
:101204000601F8BD08B50140FFF781FF21FA00F09F
:1012140008BD08B50146FFF77AFF21FA00F008BDC2
:1012240038B50D460446FFF77CFF0246C0F12001A5
:1012340005FA01F1A2F12000D4400C4325FA00F094
:10124400204325FA02F138BDFFF780BF034600B101
:1012540021B98B4238BF0B4618467047B3FBF1F2F5
:10126400084601FB123103460029F7D17047F8B54F
:1012740050EA010402D052EA03040AD10C46904217
:1012840074EB0301054601D215461C462846214647
:10129400F8BD15461C4601F0CDFF16461E432846F0
:1012A4002146F6D1F2E738B50D46044628B131B1EE
:1012B400FFF7CCFFB4FBF0F46C43204638BD0C467A
:1012C400FBE72DE9F8430446DDE908670D4690463F
:1012D4009946FFF7BBFFB4FBF0F4B5FBF0F03460C4
:1012E40038603368434501D8484502D90023336048
:1012F4003B60BDE8F8832DE9F74F9146DDE91045E1
:10130400DDE90E76984683468A46FFF7B0FF02462B
:101314000B46CDE900105846514601F08BFFDDE93C
:101324000032C4E900014846414601F083FFC5E9A3
:1013340000010C9B226893420D9A636872EB0303CD
:1013440003D3874276EB010305D200220023C4E9CC
:101354000023C5E9002303B0BDE8F08F0346002055
:1013640003B97047DA0748BF01305B08F8E710B5E6
:101374000146000AFFF7F2FF0446C8B2FFF7EEFF8A
:10138400204410BD38B50446000CFFF7F0FF0546B5
:10139400A0B2FFF7ECFF284438BD10B5044603C8DB
:1013A40001F048FFC4E900011046194610BD10B50C
:1013B40001F040FF029CC4E9002310BD10B51C4697
:1013C400002301F037FF226010BD10B51C46D3176F
:1013D40001F0E0FE226010BD08B5002301F02AFFF1
:1013E40008BD08B5D31701F0D5FE08BD13B50446F2
:1013F400002201A902F08AFA019BA34208BF6FF000
:10140400150002B010BD13B50446002201A902F074
:1014140041FB019BA34208BF6FF0150002B010BD51
:101424004870000A08707047008840BA80B270475C
:101434000870000A4870704700887047030A887073
:10144400000C4B7008707047B0F8013000785BBA3C
:101454009BB243EA00407047030A0870000C4B70CB
:10146400887070478278008840EA02407047030A17
:10147400C8708B70030C000E4B70087070470068C6
:1014840000BA7047030A08704B70030C000E8B708F
:10149400C870704700687047030A9371030C537156
:1014A4000B0AD071D170000E93700B0C090E1071E1
:1014B4005370117070470168406809BA00BA7047E8
:1014C400030A5370030C93700B0A10701171000E11
:1014D40053710B0C090ED0709371D1717047034690
:1014E400006859687047C1F10F01C9B2884000B261
:1014F40008417047C1F11F01C9B2884008417047D3
:10150400A0FB0101704770B50C46A0FB0201C3F1BA
:10151400200601FA06F6A3F12005D84021FA05F5C4
:1015240030432843D940C3F1200584B1A4FB0234DD
:10153400A5F1200603FA06F6C5F12002AC4023FA11
:1015440002F23443AB401443181841EB040170BD5C
:101554002DE9F0430026A0FB0240A1FB021234193E
:101564000D1812189946304631464FF0004E46EB9E
:10157400060792187F4142EAD57224196D414A4503
:1015840077F1000313D3C6F1200CA6F120082EFA3C
:1015940008F80EFA0CFC4CEA080CB2EB09022EFA1D
:1015A40006F867F100074CEA000048EA0101013639
:1015B400402EDED1BDE8F08300207047931E062B39
:1015C400F7B507460D46144619D88A4217D8B1FB19
:1015D400F2F302FB131393B90646224631466846DA
:1015E40001F0ACFF2346721E013B1DF8031002F804
:1015F400011F002BF8D12644F31BAB42EDD303B0FB
:10160400F0BD0000174A936943F021039361164B20
:101614001A6822F470621A601A6842F400621A604E
:10162400DA6842F00402DA60A3F5A0539A6822F45F
:1016340070629A609A6842F440729A60D3F8002407
:1016440042F00402C3F80024D3F80C2442F004024C
:10165400C3F80C240022054B83F808234FF480724E
:101664001A607047001002400014014000E100E0DD
:10167400044B5A69520704D50121034A117004220C
:101684005A61704700040140D4180020044B9A6842
:101694009107FCD518739A68D207FCD5187B70475C
:1016A40000300140304A936943F4805343F00D0302
:1016B40093612E4B5A6822F0E0625A605A6842F0F5
:1016C40000725A605A6842F001025A60D3F8002C42
:1016D40003F5406322F470421A601A6842F44052DF
:1016E4001A601A6842F400421A601A6822F47002FE
:1016F4001A601A6842F440121A601A6842F400022E
:101704001A601A6822F470221A601A6842F480225D
:101714001A60A3F580635A6822F070425A605A68CE
:1017240042F040525A604FF400421A61002203F51D
:1017340020531A601A6822F038021A601A6842F0BC
:1017440004021A601A6842F440721A601A6822F09D
:1017540003021A605A6842F040025A601A6842F062
:1017640040021A60704700BF0010024000000140B0
:101774004FF00042014B1A61704700BF000801405E
:101784004FF40042014B1A61704700BF000801404A
:101794007CE7FF207AE738B504464518AC4200D10F
:1017A40038BD14F8010BFFF771FFF7E738B50446AD
:1017B4004518AC4200D138BDFF20FFF767FF04F89D
:1017C400010BF6E7264B9A6942F019029A61DA692D
:1017D40042F48042DA61A3F582335A6892B25A60C5
:1017E4005A6842F430025A605A6842F030425A60F1
:1017F4005A6822F070625A605A6842F000625A6075
:10180400DA6842F48042DA605A6842F440325A603C
:10181400144A516821F0F0015160516841F03001DF
:1018240051604FF4805119614FF400731361002229
:101834000D4B1A601A6822F038021A601A6842F0D6
:1018440004021A601A6842F440721A601A6822F09C
:1018540003021A601A6842F040021A60704700BF1F
:10186400001002400010014000380040044B9A6808
:101874009107FCD518739A68D207FCD5187B70477A
:1018840000380040012A38B514460CBF4FF00072EE
:101894004FF080520D460CBF0C4B0D4B1A61FFF7F5
:1018A400E5FF280AFFF7E2FFE8B2FFF7DFFF094A86
:1018B40093681B06FCD4012C0BBF4FF400724FF449
:1018C4008052024B024B1A6138BD00BF0010014028
:1018D400000C0140003800400022FFF7D3BF01296B
:1018E4000CBF4FF000724FF0805238B50CBF0F4B55
:1018F4000F4B0C461A61FFF7B9FF0020FFF7B6FF44
:1019040005460020FFF7B2FF0A4A93681B06FCD481
:10191400012C0BBF4FF400724FF48052034B044B65
:1019240040EA05201A6180B238BD00BF00100140B2
:10193400000C0140003800400021FFF7D0BF00BF79
:10194400034B1A681206FCD5C0B25860704700BF3A
:1019540000380140034B1A689206FCD55868C0B29F
:10196400704700BF00380140014B1860704700BF4A
:10197400D8180020214A0020936943F0040393619E
:10198400936943F0010393611D4B596841F03001A1
:101994005960596841F080015960596821F040014B
:1019A4005960596821F440715960596841F4806163
:1019B4005960596821F40061596012494B6823F059
:1019C40004034B60936943F4804393610E4BDA68DC
:1019D40042F00802DA60DA6842F00402DA60DA6897
:1019E40042F02002DA6040F271229A60DA6842F42E
:1019F4000052DA602022054B5A6070470010024002
:101A040000080140000001400038014000E100E00E
:101A1400054B1A68920605D55868044B1B680BB130
:101A2400C0B21847704700BF00380140D8180020E2
:101A340008B5411E11F8010F00B908BDFFF780FF7A
:101A4400F8E770B50446164B86B001AA03F11006F8
:101A5400154618685968083303C5B3422A46F7D1B6
:101A64001B7830202B70FFF76BFF7820FFF768FF9F
:101A740006AB03EB141313F8140C04F00F04FFF774
:101A84005FFF04F118030DEB030414F8140CFFF7C3
:101A940057FF0A2006B0BDE87040FFF751BF00BFF2
:101AA400F350000807282DE9F84306460D4617466B
:101AB400994668D844010834204600F043FE00F0FB
:101AC4000300012803D06FF00400BDE8F88304F597
:101AD4004078404600F036FE132857D12A786B78B8
:101AE40003EB0223AA7802EB0323EA78013A02EB20
:101AF400032203324DD8002F4ED0390A04F580500A
:101B040000F04EFEF9B204F5885000F049FEB9F138
:101B1400100FD8D0204600F015FE0928D3D029464E
:101B240004F54060042204F5807500F0A5FE04214C
:101B3400284600F035FE284600F004FE0028FAD1BD
:101B4400174B1B8843FA06F6F207BED404F500745B
:101B5400404600F0F7FD172801D10120B5E72046E3
:101B640000F0F0FD030706D52046082100F018FE1A
:101B74006FF00C00A9E7404600F0E4FD0028E7D12F
:101B84006FF00300A1E74FF0FF309EE76FF0020013
:101B94009BE76FF00B0098E76FF00A0095E700BF32
:101BA400DC1800202DE9F84F072807468A4691469D
:101BB4001E46BDF828409DF82CB000F2C5804501B2
:101BC4000835284600F0BEFD00F00F03042B05D8AD
:101BD40010F00E0F04D16FF004000FE00B2BFAD1BC
:101BE400284600F0AFFD0428804627D0BBF1100F33
:101BF400F1D0BBF1040F03D06FF00B00BDE8F88FF8
:101C0400A0F10A03DBB2012BE5D95A46314605F5AA
:101C1400406008F0030800F02FFEB8F1020F0DD168
:101C240014B96FF00A00E9E7210A05F5805000F0C5
:101C3400B7FDE1B205F5885000F0B2FDB9F1000F2F
:101C440000F085803378727802EB0322B37803EBDB
:101C54000222F37803EB0223002B3AD0002C3ED06F
:101C640005F54078404600F06DFD42283DD1042240
:101C7400314605F5406000F0FFFD210A05F580506E
:101C840000F08EFDE1B205F5885000F089FD05F500
:101C9400F85000F057FD800280B2484528BF4846FE
:101CA4004FF001090446DFF8B4B009FA07F93846E1
:101CB40000F01CFE0646404600F044FD002849D0D2
:101CC400BBF8003013EA090F16D0B44216D900202D
:101CD40094E7284600F036FD4007BFD48CE7284639
:101CE40000F030FD4107BBD49BE700F0EF00222851
:101CF400BDD06FF0060081E7B442D8D851463846CB
:101D0400224605F5807600F033FE2021304600F0AF
:101D140047FD304600F016FD0028FAD105F50075A0
:101D2400284600F00FFDC20605D52846102100F014
:101D340037FD204662E70307F2D52846082100F064
:101D44002FFD6FF00C0059E74FF0FF3056E76FF0AE
:101D54000D0053E76FF0030050E700BFDC180020CC
:101D64000728F8B505462CD8470107F1080407F5FC
:101D740084771021384600F013FD384600F0E2FC69
:101D840006460028F9D11F2104F5007000F008FD73
:101D94000123AB40DB430C4A1BB2118804F54074A9
:101DA4001940118051880B40538002EB45032A44AB
:101DB4009E801675204600F0C5FC0028FAD101204B
:101DC400F8BD4FF0FF30FBE7DC18002007282DE9B1
:101DD400F3410446884617461D4600F2828001F00E
:101DE4000F03013B0D2B7FD8DFE803F00715151512
:101DF4007E7E7E7E7E15157E7E1504224FF47060F5
:101E04000DEB020100F0FEFC019B23B96FF0020010
:101E140002B0BDE8F081680756D42DB1B8F1010FC6
:101E24004FD0B8F1020F52D020466601FFF798FF59
:101E3400083625F00F01304641EA080100F0B0FCF5
:101E44006FB94FF6F0712A4A17887B1C9BB28B42FC
:101E540005BF4FF440434FF6EF7713801380390AE0
:101E640006F5806000F09CFCF9B206F5A06006F56A
:101E7400807700F095FC0121384600F091FC38464B
:101E840000F060FC0028FAD10123A340DB43194A87
:101E94001BB2118805F001051940A5400D43518876
:101EA40015800B40538002EB440322449880107544
:101EB40006F54076304600F045FC0028FAD060B2C2
:101EC400A6E715F0210FAFD16FF00500A0E7A90632
:101ED4006BB201D5002BF7DAEA06A5D5002BA3DBFC
:101EE400F2E74FF0FF3093E76FF0040090E700BF94
:101EF40010000020DC1800202DE9F04F07280546CB
:101F04008B469246994687B000F203814701083711
:101F1400384600F017FC00F00F010429034605D8E9
:101F240010F00E0F04D16FF00400B6E00B29FAD1C3
:101F3400BAF1000F00F0F0807A4E4FEA450806EB44
:101F44004501898800297FD1012107F54072A94004
:101F540001922846CDE9021300F0E9FC04460198F9
:101F640000F0F0FB002800F0DA8030880299039B2F
:101F7400084202D01CB920468FE0002CE9D003F0BF
:101F84000703032B07F5807700F08A80042B5DD0CC
:101F9400022B40F0B68006EB08039B888BBB2846D7
:101FA40004A9082200F011FD4021384600F0F8FB96
:101FB400384600F0C7FB0028FAD19DF810309DF890
:101FC400142089F800309DF811309DF8161089F816
:101FD40001309DF8123089F802309DF8133089F8E9
:101FE40003309DF8153003EB0223109A13809DF8FB
:101FF400172006EB080302EB01229A808022731952
:102004001A7506EB08039C88544528BF5446594664
:102014002246284600F0D9FC4021384600F0C0FB97
:10202400384600F08FFB0028FAD1B044B8F80430E9
:102034001B1B9BB2A8F804301BB17319187D40F028
:1020440001003544287596E7002498E706EB080359
:102054009B88002BD5D1284604A9022200F0B5FCA8
:102064004021384600F09CFB384600F06BFB00280A
:10207400FAD19DF811309DF81020023B03EB0223A6
:102084009BB206EB0802938040F2EA529342B5D920
:102094002846FFF765FE6FF47A7007B0BDE8F08F4D
:1020A40006EB08039B88002BB6D1284604A9062218
:1020B40000F08BFC4021384600F072FB384600F0FB
:1020C40041FB0028FAD19DF814209DF815409DF895
:1020D400103004EB0224802289F800309DF811307E
:1020E400A4B289F801309DF8123089F802309DF8C5
:1020F400133089F8033006EB08039C8073191A75B2
:1021040082E72146284600F08DFC06EB08039C80FC
:1021140082E74FF0FF30C0E76FF00D00BDE76FF0CE
:102124000300BAE7DC180020072870B5054627D855
:1021340044010834204600F005FB00F003000128A8
:1021440021D104F54076304600F0FCFA13281DD165
:1021540004F580740221204600F022FB204600F0A2
:10216400F1FA0028FAD1304600F0ECFA142801D133
:10217400012004E02846FFF7F3FD6FF0030070BD73
:102184004FF0FF30FBE76FF00400F8E76FF0020058
:10219400F5E7042386E485E40728F8B5054639D82D
:1021A40044010834204600F0CDFA00F00300012871
:1021B40033D104F54076304600F0C4FA08B9012062
:1021C400F8BD04F580770821384600F0E9FA38466E
:1021D40000F0B8FA0028FAD10122114B02FA05F1F5
:1021E4005A8822EA01025A801B882B41DA07E7D475
:1021F40004F50074304600F0A5FA0028DFD020462C
:1022040000F0A0FA0307F5D52846FFF7A9FD6FF003
:102214000C00D5E74FF0FF30D2E76FF00400CFE7B2
:10222400DC18002007282DE9F84F05468A46144695
:1022340000F29C8046010836304600F083FA00F034
:102244000F00012840F09580002C00F0958006F5E1
:102254004079484600F076FA172804D01C2802D0AA
:102264006FF0060037E0464F7B882B41DA0711D523
:1022740006F50078404600F065FAC30628D510211B
:10228400404600F08DFA012303FA05F27B8823EA25
:1022940002037B8006F5F85000F054FA800280B205
:1022A4004FF00108844228BF044608FA05F828467E
:1022B40000F01CFB8346484600F044FA172812D06D
:1022C4001C2810D00028CBD12846FFF749FDC7E7CA
:1022D400000702D40020BDE8F88F2846FFF740FD30
:1022E4006FF00C00F7E73B8813EA080F27D05C4532
:1022F400F0D851462246284600F03AFB7B882B4111
:10230400D9070AD506F5007A504600F01BFAC30631
:1023140018D51021504600F043FA06F580762021A6
:10232400304600F03DFA304600F00CFA0028FAD1AD
:102334007B88204648EA0308A7F80280CBE75C457F
:10234400B5D8D6E7484600F0FDF9172809D01C286F
:1023540007D00028B8D0504600F0F4F90207B3D4EF
:102364007EE73B8813EA080FCED0B3E74FF0FF3087
:10237400B1E76FF00400AEE76FF00D00ABE700BF0C
:10238400DC18002007282DE9F74F834688461746B6
:1023940056D845010835284600F0D4F900F00F0658
:1023A400012E50D1002F51D005F5F05000F0CAF99C
:1023B40006FA0BF6009005F5407905F5F85A5846EB
:1023C40000F0B5FA0446484600F0BCF9172815D0C9
:1023D4001C280BD1C4B9584600F088FA0190504625
:1023E40000F0B0F90199B1EB802F07D15846FFF7FF
:1023F400B7FC6FF0060003B0BDE8F08F164B1988E8
:10240400314226D1002CDAD0009B4146980280B29A
:10241400874228BF0746A74228BF2746BFB258466F
:102424003A4605F5807500F0D0FA4021284600F0C0
:10243400B7F9284600F086F90028FAD13846DAE7D9
:102444004FF0FF30D7E76FF00400D4E76FF00D00D2
:10245400D1E70020CFE700BFDC18002013B5042427
:102464000194BDF810400094FFF79CFB02B010BD2E
:1024740030B4BDF808409DF80C50CDE9024530BC9D
:10248400FFF790BB38E537E5072810B50B4614462F
:102494004FD81178092B4FD8DFE803F0051A222B07
:1024A4002F374E4E3F46012907D1254B01FA00F044
:1024B4001A8810431880012010BD00293CD1012145
:1024C4001F4A01FA00F0138823EA00001080F2E7A3
:1024D4001B4B1B8843FA00F000F001002070EAE770
:1024E400400100F5F850083000F02CF980022080FB
:1024F400E1E7400100F5F050F5E71F291CD8400141
:1025040000F5027000F04CF9D5E7400100F50270C7
:1025140000F018F900F01F00E0E71F290CD8400173
:1025240000F530500830EDE7400100F53050083038
:10253400EEE74FF0FF30BFE76FF00900BCE700BFE4
:10254400DC180020072870B5154671D80139062912
:1025540071D8DFE801F0040C111E27345F0040013C
:10256400117800F5B050083000F01AF918E0400175
:10257400117800F5A850F6E71188400100F108042D
:10258400090A04F5905000F00BF9297804F59850E5
:10259400EAE740010422294600F6084000F06CF9FD
:1025A400012018E01188400100F10804090A04F52B
:1025B400805000F0F5F8297804F58850D4E74001FC
:1025C40000F10804204600F0BDF800F003000128E3
:1025D40002D06FF0040070BD04F53C5000F0B2F876
:1025E40060BB04F580752221284600F0D9F804F573
:1025F4000074284600F0A6F80028D1D0204600F048
:10260400A1F80307F5D52046082100F0C9F86FF0BA
:102614000C00E0E7400100F10804204600F092F8C5
:1026240000F00306012ED4D1297804F53C509BE731
:102634004FF0FF30CFE76FF00900CCE76FF00100F7
:10264400C9E7072870B50446164673D80E2974D80E
:10265400DFE801F00811181C2B33733D4E5B5173F6
:10266400735565004001083000F06CF820F00F004D
:102674003070012036E0400100F5B050083000F021
:1026840061F8F5E7400100F5A850F7E74401083484
:1026940004F5905000F056F8054604F5985000F003
:1026A40051F800EB05203080E3E740010422314675
:1026B40000F6084000F0A6F8DBE74401083404F50E
:1026C400805000F03FF8054604F58850E7E74401E0
:1026D4000834204600F036F800F00305012D02D03E
:1026E4006FF0040070BD04F53C5000F02BF8DAE7FD
:1026F40000F0FCF8D7E7400100F54270BFE7400165
:10270400083000F01FF8C30703D5204600F00FF986
:10271400C9E70B4800EB440083883380A9E74001F4
:10272400083000F00FF80128DAD005482044037D72
:1027340033709EE74FF0FF30D4E76FF00100D1E72C
:10274400DC18002073B50546144CC5F30726E3686E
:10275400984763699847636AC5F30740EDB20BB1C4
:10276400A36A8BB9236A98473046236A9847284658
:10277400236A9847E36998470546A36998472369FC
:102784009847284602B070BD8DF8040003218DF8E7
:1027940005608DF8065001A89847EBE71400002067
:1027A400F7B50546164C0E46E368984763699847A3
:1027B400A36A45F00407C5F30740FFB2C5F3072534
:1027C40083B9236A98472846236A98473846236A78
:1027D40098473046236A9847A369984723699847DE
:1027E40003B0F0BD04218DF804008DF805508DF878
:1027F40006708DF807600DEB01009847ECE700BF09
:10280400140000202DE9F34105461A4C0E46E368F6
:102814001746984763699847636AC5F30740C5F349
:102824000728EDB20BB1A36AB3B9236A98474046AF
:10283400236A98472846236A98473744B74206D103
:10284400A36998472369984702B0BDE8F081E3691A
:10285400984706F8010BF1E78DF80400032101A85D
:102864008DF805808DF80650984739463046636ADE
:102874009847E5E7140000202DE9F34105461A4C7A
:102884000F46E3689046984763699847A36A45F002
:102894000406C5F30740F6B2C5F30725B3B9236AA6
:1028A40098472846236A98473046236A9847B8448D
:1028B400B84506D1A36998472369984702B0BDE893
:1028C400F081236A17F8010B9847F1E78DF80400AB
:1028D400032101A88DF805508DF8066098474146FC
:1028E4003846A36A9847E5E714000020F8B50024A9
:1028F4004601083606F5005706F504563846FFF734
:1029040021FF05023046FFF71DFFADB20544ADB20D
:102914004DB13846FFF716FF04023046FFF712FFA9
:10292400A4B20444A4B2AC42E8D12046F8BDF8B540
:1029340000244601083606F5185706F51C56384695
:10294400FFF700FF05023046FFF7FCFEADB2054479
:10295400ADB24DB13846FFF7F5FE04023046FFF73D
:10296400F1FEA4B20444A4B2AC42E8D12046F8BDBE
:102974002DE9F843894614462AB385006F1CFF00ED
:1029840007F510584046FFF7DDFE07F514570646D5
:102994003846FFF7D7FE00EB0626B6B20235300202
:1029A4002246494600EBC500FFF766FFA1194046E1
:1029B4008CB2C1F30721FFF7F3FE3846E1B2BDE85C
:1029C400F843FFF7EDBEBDE8F8832DE9F8438946E7
:1029D40014462AB385006F1CFF0007F520584046B3
:1029E400FFF7B0FE07F5245706463846FFF7AAFE60
:1029F40000EB0626B6B2033530022246494600EB08
:102A0400C500FFF7FFFEA11940468CB2C1F30721B0
:102A1400FFF7C6FE3846E1B2BDE8F843FFF7C0BE93
:102A2400BDE8F883F8B54401083404F52057384666
:102A34000D46FFF787FE04F5245406462046FFF7AB
:102A440081FE291801EB062138468DB2C1F3072116
:102A5400FFF7A6FE2046E9B2BDE8F840FFF7A0BEA6
:102A640070470078704701707047012B2DE9F843D7
:102A740028BF01230446884616461F460025DFF872
:102A84002090ABB2B34201DBBDE8F8832046D9F80D
:102A94001C3098473C4408F805000135F1E700BFB5
:102AA40014000020012B2DE9F84328BF012304461C
:102AB400884616461F460025DFF81C90ABB2B34289
:102AC40001DBBDE8F883204618F80510D9F820305A
:102AD40098473C440135F1E714000020002070477A
:102AE400704770B50446054E4518AC4200D170BD20
:102AF400F369984704F8010BF7E700BF14000020BE
:102B040070B50446044E4518AC4200D170BD336A1A
:102B140014F8010B9847F7E714000020704770473A
:102B2400704770477047054B00B121B9044ADA6019
:102B3400044A1A617047C3E9030170471400002076
:102B4400652A0008252B0008054B00B121B9054A68
:102B54005A61054A9A617047C3E90501704700BF8D
:102B640014000020272B0008292B0008074B1A8883
:102B7400D20500D4FEE700B121B9054ADA61054A5D
:102B84001A627047C3E90701704700BF14000020B0
:102B9400672A00086B2A0008074B1A88D20500D45C
:102BA400FEE700B121B9054A5A62054A9A627047A4
:102BB400C3E90901704700BF140000206F2A000810
:102BC400A92A0008074B1A88920500D4FEE700B131
:102BD40021B9054ADA61054A1A627047C3E9070157
:102BE400704700BF14000020E12A0008E52A00080D
:102BF400074B1A88920500D4FEE700B121B9054AB3
:102C04005A62054A9A627047C3E90901704700BFD6
:102C140014000020E72A0008052B0008074B1A8837
:102C240002F4017202B9FEE700B121B9044ADA6183
:102C3400044A1A627047C3E9070170471400002070
:102C4400212B0008232B00087FB5062204A94FF48A
:102C54001060FFF7D7FD04224FF480700DEB0201E2
:102C6400FFF7D0FD02A904224FF4A060FFF7CAFDCC
:102C7400042203A94FF47060FFF7C4FD80210020F3
:102C8400FFF78EFD0020FFF75DFD04A906224FF437
:102C94001060FFF7F1FD04224FF480700DEB020188
:102CA400FFF7EAFD02A904224FF4A060FFF7E4FD58
:102CB40004224FF4706003A9FFF7DEFD07B05DF84E
:102CC40004FBF8B505460C46FFF7BEFFBDB16E1E0A
:102CD40032460023073512F8011F0B445BB2102B58
:102CE40029DCAA42F7D141F6087542F208072846C2
:102CF40016F8011F2035FFF753FDBD42F7D10CB97B
:102D04000020F8BD651E2A460023073412F8011F6F
:102D14000B445BB2102B0EDC9442F7D141F60864ED
:102D240041F60876204615F8011F2034FFF738FDD8
:102D3400B442F7D1E4E74FF0FF30E2E738B500F0F2
:102D4400F001050A4FF4A850FFF72AFD002445FAC4
:102D540004F3DB0705D560011F2100F50270FFF7BE
:102D64001FFD0134082CF2D138BD10B54FF4A85022
:102D7400FFF7E8FC04464FF4B850FFF7E3FC04F017
:102D8400F00404EB0024A0B210BD10B50446C1B297
:102D94004FF4B050FFF704FD210A4FF4C050BDE8D2
:102DA4001040FFF7FDBC10B54FF4B050FFF7CAFC5C
:102DB40004464FF4C050FFF7C5FC04EB002080B27A
:102DC40010BD08B54FF43850FFF7BCFC00F001000B
:102DD40008BD08B54FF43850FFF7B4FC00F03800D4
:102DE400A0F130035842584108BD08B54FF438509B
:102DF400FFF7A8FC00F07F014FF43850FFF7D0FC38
:102E04004FF43850FFF79EFCBDE8084060F07F01A6
:102E1400C9B24FF43850FFF7C3BC08B50378012B8F
:102E240043780CBF40210021012B09D141F0380126
:102E34004FF43850FFF7B4FCBDE80840FFF7D5BFA6
:102E4400C2788378012A06D1012B0CBF41F0180106
:102E540041F00801ECE7012B08BF41F01001E7E75E
:102E640010B504464FF43850FFF76CFCC0F38013E0
:102E7400237000F03803202B01D0382B1DD1012200
:102E84006270A3F11002D2B2102A18D8012101FAFB
:102E940002F202F0013222F0807282B1A170083B8A
:102EA400DBB2182B0ED8012202FA03F303F001332C
:102EB40023F4807333B1E27010BD0022E0E70022F6
:102EC400A270ECE70023E370F6E710B504464FF474
:102ED4003850FFF737FCC0F38003E370C0F34003BE
:102EE400A37010BD10B504464FF43850FFF72AFC08
:102EF40043061DD500F0C701012C0CBF41F0300181
:102F040041F038014FF43850FFF74AFCFFF76DFFEA
:102F14004FF43850FFF716FC012C06D110F0300F97
:102F24000CBF4FF0FF30002010BD10F0380FF7E752
:102F34004FF0FF30F8E7033838B50C4614286BD847
:102F4400DFE800F00B0F19151D2124306A6A3C6A72
:102F54006A6A4C4F53575B606700FFF775FE0020A9
:102F64003BE02046BDE838400831FFF7AABE088898
:102F7400FFF7E4FEF3E7FFF7F8FE2080EFE70888A9
:102F8400FFF703FFEBE7FFF70EFFF6E709884FF4BF
:102F94009850090AFFF704FC4FF4A0502178FFF77A
:102FA400FFFBDCE74FF49850FFF7CCFB05464FF4EA
:102FB400A050FFF7C7FB00EB0520DEE70020184B0D
:102FC4009A780A70DA784A701A798A705A79CA70CB
:102FD4009A790A71DB7988714B7138BDFFF705FF67
:102FE400BDE70846FFF719FFB9E70846FFF738FFC2
:102FF400B5E70846FFF769FFB1E70878BDE8384050
:10300400FFF770BFFFF7E5FEC0B2FF2804D02070C1
:10301400A5E7FFF7D6FEF7E74FF0FF30DDE700BF87
:103024001400002010B50446014606224FF4106037
:10303400FFF722FC04224FF4807004F10E01FFF725
:103044001BFC04224FF4A06004F10A01FFF714FCF6
:1030540004224FF47060A11DFFF70EFC054BA27C07
:103064001A70E27C5A70227D9A70627DDA70A27DB9
:103074001A7110BDF818002010B504460146062246
:103084004FF41060FFF7BEFB04224FF4807004F18C
:103094000E01FFF7B7FB04224FF4A06004F10A010C
:1030A400FFF7B0FB04224FF47060A11DFFF7AAFBE9
:1030B400054B1A78A2745A78E2749A782275DA78F1
:1030C4001B796275A37510BDF818002038B530F06F
:1030D4003A0504460AD12846FFF734FB44EA0001C6
:1030E400C9B22846FFF75CFB284638BD4FF0FF30D5
:1030F400FBE70020FFF726BB10B5044601784FF428
:10310400D850FFF74DFB61884FF4C850090AFFF708
:1031140047FBA1784FF4D050BDE81040FFF740BB07
:1031240038B504464FF4D850FFF70CFB20704FF429
:10313400C850FFF707FB05464FF4D050FFF702FBDA
:1031440000EB0520608038BD10B50C4605281ED85C
:10315400DFE800F003080C1115190846FFF762FFB9
:10316400002010BD0846FFF787FFF9E70878BDE89F
:103174001040FFF7ABBFFFF7BCFF2070F0E7084635
:10318400FFF7BAFFECE70846FFF7CAFFE8E74FF09E
:10319400FF30E6E77BB972B90029BEBF00204FF0CB
:1031A400004106E008BF00281CBF6FF000414FF04B
:1031B400FF3000F0C1B9ADF1080C6DE904CE00296F
:1031C40009DB002B1ADB00F04DF8DDF804E0DDE943
:1031D400022304B07047404261EB4101002B1BDB2A
:1031E40000F040F8DDF804E0DDE9022304B04042D9
:1031F40061EB4101524263EB43037047524263EB7C
:10320400430300F02FF8DDF804E0DDE9022304B005
:10321400404261EB41017047524263EB430300F0CB
:1032240021F8DDF804E0DDE9022304B0524263EB47
:103234004303704753B94AB9002908BF00281CBF8B
:103244004FF0FF314FF0FF3000F076B9ADF1080CCC
:103254006DE904CE00F006F8DDF804E0DDE90223B0
:1032640004B070472DE9F047089E0D460446884691
:10327400002B4DD18A42944668D9B2FA82F252B1F7
:1032840001FA02F3C2F1200120FA01F10CFA02FC66
:1032940041EA030894404FEA1C41B8FBF1F71FFAD6
:1032A4008CFE01FB178807FB0EF0230C43EA08434E
:1032B40098420AD91CEB030307F1FF3580F01E8105
:1032C400984240F21B81023F63441B1AB3FBF1F0A6
:1032D40001FB103300FB0EFEA4B244EA0344A645EE
:1032E4000AD91CEB040400F1FF3380F00981A645E0
:1032F40040F20681644402380021A4EB0E0440EA43
:1033040007401EB10023D440C6E90043BDE8F0875E
:103314008B4208D9002E00F0EE800021C6E900059A
:103324000846BDE8F087B3FA83F100294AD1AB42DD
:1033340002D3824200F2FC80841A65EB030301206D
:103344009846002EE2D0C6E90048DFE702B9FFDE66
:10335400B2FA82F2002A40F09180A1EB0C00012124
:103364004FEA1C471FFA8CFEB0FBF7F307FB130070
:10337400250C45EA00450EFB03F0A84208D91CEBD6
:10338400050503F1FF3802D2A84200F2CE8043467D
:103394002D1AB5FBF7F007FB10550EFB00FEA4B287
:1033A40044EA0544A64508D91CEB040400F1FF35A2
:1033B40002D2A64500F2B6802846A4EB0E0440EAE9
:1033C40003409EE7C1F120078B4022FA07FC4CEA38
:1033D400030C25FA07FA4FEA1C49BAFBF9F820FA5C
:1033E40007F309FB18AA8D401FFA8CFE1D4300FA4F
:1033F40001F308FB0EF02C0C44EA0A44A04202FA42
:1034040001F20BD91CEB040408F1FF3A80F0888028
:10341400A04240F28580A8F102086444241AB4FB57
:10342400F9F009FB104400FB0EFEADB245EA04447A
:10343400A64508D91CEB040400F1FF356CD2A6455F
:103444006AD90238644440EA0840A0FB0295A4EB20
:103454000E04AC42C846AE4656D353D0002E69D0B3
:10346400B3EB080264EB0E0422FA01F304FA07F743
:103474001F43CC40C6E90074002147E70CFA02FC64
:10348400C2F1200125FA01F34FEA1C4720FA01F1A9
:1034940095400D43B3FBF7F107FB11331FFA8CFE84
:1034A400280C40EA034001FB0EF3834204FA02F4C1
:1034B40008D91CEB000001F1FF382FD283422DD92B
:1034C40002396044C01AB0FBF7F307FB1300ADB236
:1034D40045EA004503FB0EF0A84208D91CEB05059C
:1034E40003F1FF3816D2A84214D9023B6544281AC6
:1034F40043EA014138E73146304607E72F46E4E620
:103504001846F9E64B45A9D2B9EB020865EB0C0E57
:103514000138A3E74346EAE7284694E74146D1E762
:10352400D0467BE76444023847E7023B65442FE713
:10353400084606E73146E9E6704700BF844641EA9B
:10354400000313F0030349D1403A23D30B6803600B
:103554004B6843608B688360CB68C3600B6903610D
:103564004B6943618B698361CB69C3610B6A0362F5
:103574004B6A43628B6A8362CB6AC3620B6B0363DD
:103584004B6B43638B6B8363CB6BC36340304031C2
:10359400403ADBD230320BD30B6803604B68436094
:1035A4008B688360CB68C36010301031103AF3D25B
:1035B4000C3205D351F8043B40F8043B043AF9D2E9
:1035C400043208D0D2071CBF11F8013B00F8013BBC
:1035D40001D30B8803806046704700BF082A13D3C9
:1035E4008B07B1D010F00303AED0C3F10403D21A99
:1035F400DB071CBF11F8013B00F8013BA4D331F8F1
:10360400023B20F8023B9FE7043AD9D3013A11F870
:10361400013B00F8013BF9D20B7803704B784370FF
:103624008B7883706046704708B410B5002A04464E
:103634009DB031DB4FF402734FF6FF7CADF81430CC
:103644000291069120AB15D0013A0492079202A987
:103654001F9A0193ADF816C000F0D2FB421C01DAA8
:103664008B2323600022029B1A701DB0BDE810401A
:1036740001B070470492079202A91F9A0193ADF812
:1036840016C000F0BDFB431C01DA8B2323601DB080
:10369400BDE8104001B070478B234FF0FF3023602A
:1036A400F5E700BF0CB410B51E4B00291C689CB094
:1036B40033DB4FF402734FF6FF7CADF81430029005
:1036C40006901FAB16D001391E9A0491079120462B
:1036D40002A90193ADF816C000F092FB421C01DA76
:1036E4008B2323600022029B1A701CB0BDE810409B
:1036F40002B070470491079120461E9A02A90193D3
:10370400ADF816C000F07CFB431C01DA8B23236068
:103714001CB0BDE8104002B070478B234FF0FF305F
:103724002360F5E7400000200CB430B50C466FF080
:1037340000459DB00A4A20AB059253F8042B02A918
:10374400CDE9013407950495069400F059FB002255
:10375400029B1A701DB0BDE8304002B0704700BF34
:103764000802FFFF0EB430B504466FF000459CB06C
:103774000B4A1FAB0B49059253F8042B086802A9A6
:10378400CDE9013407950495069400F039FB002235
:10379400029B1A701CB0BDE8304003B0704700BFF4
:1037A4000802FFFF400000202DE9F04F81468E46BD
:1037B400444D70461EF801CB15F80C4014F0080473
:1037C400F7D1BCF12D0FE34653D06FF00048BCF1A4
:1037D4002B0F04BF9EF800B000F1020E1BB1102B9A
:1037E4004FD01F4604E0BBF1300F55D00A231F46CB
:1037F4000025B8FBF7F6284607FB168A07E0864241
:1038040015D329D0012507FB00C01EF801BBABF17D
:10381400300CBCF1090F06D9ABF1410CBCF1190F06
:1038240008D8ABF1370C63450DDD002DE7DA4FF016
:10383400FF35EAE7ABF1610CBCF1190F03D8ABF12A
:10384400570C6345F1DC002D0BDB04B140420AB197
:1038540095BB1160BDE8F08FE245D3DA4FF0FF3538
:10386400D3E72223C9F800301AB340460EF1FF31E2
:10387400EFE79EF800B04FF00048012400F1020E7B
:10388400ACE7BBF1300FACD19EF8000000F0DF00D4
:10389400582807D01F46ABE79EF8003003F0DF033B
:1038A400582B0BD110279EF801B03B460EF1020EA7
:1038B4009EE74046BDE8F08F8046D6E708231F46C2
:1038C40096E700BFC94A0008012B02D0242B00D878
:1038D4006AE710B500F0ECF816230360002010BD71
:1038E400012A10B509D0242A07D8074C13460A46E2
:1038F40001462068BDE8104056E700F0D9F81623C9
:103904000360002010BD00BF40000020012A10B554
:1039140009D0242A07D8074C13460A4601462068D2
:10392400BDE8104040E700F0C3F816230360002010
:1039340010BD00BF400000202DE9F04707460E46A9
:103944004A4D304616F801CB15F80C4014F0080423
:10395400F7D1BCF12D0FE64658D0BCF12B0F04BFB4
:1039640096F800E0861C5BB1102B54D04FF0FF3862
:10397400B8FBF3F803FB08FA99466FEA0A0A08E071
:10398400BEF1300F5AD00A234FF0050A9946DFF8EA
:10399400E0800025284607E0404515D829D00125B8
:1039A40009FB00C016F801EBAEF1300CBCF1090FB5
:1039B40006D9AEF1410CBCF1190F08D8AEF1370CA1
:1039C40063450DDD002DE7DA4FF0FF35EAE7AEF190
:1039D400610CBCF1190F03D8AEF1570C6345F1DC4F
:1039E400002D0BDB04B140420AB16DB91160BDE892
:1039F400F087D445D3DD4FF0FF35D3E722234FF0D2
:103A0400FF303B60002AF2D0711EEFE796F800E029
:103A14000124861CA7E7BEF1300F21D1307800F0D5
:103A2400DF00582816D14FF0100996F801E04FF046
:103A34000F0A6FF070484B460236AAE7337803F05A
:103A4400DF03582BEFD008234FF0070A6FF06048CC
:103A540099469EE799466FF070484FF00F0A98E731
:103A64004FF00F0A6FF07048994692E7C94A000870
:103A74009999991960E700BF8C4600B586461346AC
:103A8400034A714610685DF804EB624654E700BFD0
:103A9400400000208C4600B586461346034A714612
:103AA40010685DF804EB624646E700BF4000002062
:103AB400014B1868704700BF40000020002952D015
:103AC40038B551F8043C0C1F002BB8BFE418054668
:103AD40000F072FD2B4A1368002B45D0A3420CD989
:103AE40021686018834228D0636028461460BDE8CA
:103AF400384000F063BDA3420FD81A465B68002B20
:103B0400F9D11168501884421DD034D363605460D5
:103B14002846BDE8384000F051BD11685018A04255
:103B240015D028D8216860188342EFD118685B68E3
:103B34000144C4E900135460EAE718685B6801446F
:103B4400C4E90013D1E7236819441160E0E7206851
:103B54000144501883421160DAD1D3E900030144CF
:103B6400C2E90013D4E77047284663601460BDE8D7
:103B7400384000F023BD0C2328462B60BDE83840B4
:103B840000F01CBD00190020F8B5CD1C25F003057C
:103B940008350C2D38BF0C25002D064623DBA94221
:103BA40021D8264F00F008FD3A6822B3144603E0FA
:103BB40063682246FBB11C4623685B1BF8D40B2BBD
:103BC40015D8636894420CBF3B605360304600F0E4
:103BD400F5FC04F10B00231D20F00700C21A01D0EC
:103BE4001B1AA350F8BD0C2300203360F8BD2360DA
:103BF4001C442560EAE77968D1B12946304600F0D3
:103C040005FC431C01460CD0C41C24F00304A04250
:103C140005D03046611A00F0F9FB013001D025606F
:103C2400D4E70C233046336000F0C8FC0020F8BD14
:103C3400304600F0EBFB7860DFE700BF001900209E
:103C44002DE9F0478F680C469F421D46164638D82A
:103C54008246888910F4906F0ED13D4608682A4642
:103C6400314600F02DFC0020A2682368D21B2B44AF
:103C7400A2602360BDE8F0874B69096903EB430840
:103C8400236808EBD878A3EB01096B1C4FEA68089A
:103C94004B444345424684BF98464246430513D5A8
:103CA40011465046FFF770FF074608B34A4621699C
:103CB400FFF744FCA38923F4906343F08003A381BA
:103CC40007E01F460868CAE7504600F079FC07463B
:103CD40050B107EB0900A8EB09032761C4F814806D
:103CE4002F46A3602060BAE750462169FFF7E6FE3D
:103CF4000C23CAF80030A3894FF0FF3043F040038F
:103D0400A381B7E72DE9F04F9368914683B0002B68
:103D14006ED0176880460C4608688D68083744E002
:103D2400B4F80CC01CF4906F2ED0D4E90413451AD7
:103D340003EB430303EBD373AA194FEA630A531C3F
:103D44005345524684BF9A4652461CF4806F36D07F
:103D540011464046FFF718FF00283AD02A46216949
:103D64000190FFF7EBFBA289019B22F4906242F0E1
:103D74008002A2815819AAEB0505A560C4F814A015
:103D84003546B246236120605946524600F098FBFE
:103D9400D9F80830A16820684D1B50449E1BA560CB
:103DA4002060C9F808601EB3083757E902B6002E30
:103DB400FAD0B542AA46B3D93546B246E4E74046FE
:103DC40000F0FEFB03460028D4D140462169FFF7EA
:103DD40075FE0C2300224FF0FF30C8F80030A38991
:103DE40043F04003A381C9E9012203B0BDE8F08F89
:103DF40000231846C9F8043003B0BDE8F08F00BFB3
:103E04002DE9F04F1C468B890F461D0680469246CD
:103E14009DB003D50B69002B00F0F38000230993B8
:103E2400302320228DF82A309AF80030039401259B
:103E34007B4C8DF82920002B76D0D14603E019F86D
:103E4400013F002B79D0252BF9D1B9EB0A0B77D19F
:103E540099F80020002A67D000234FF0FF3209F1BF
:103E64000109CDE90523049307938DF853301A9380
:103E740004E0001B05FA00F018430490CA4605222A
:103E8400204619F8011B00F0D3FA049B0028F0D156
:103E9400D80644BF20228DF85320190748BF2B228F
:103EA4009AF8001048BF8DF853202A2956D1039A56
:103EB40011680432002903927EDB07919AF80110FD
:103EC4000AF1010A2E295BD0DFF8589103224846F3
:103ED40000F0AEFA48B14022049BA0EB090002FABC
:103EE40000F003430AF1010A04931AF8011B0622A5
:103EF4004D488DF8281000F09BFA002862D04B4BF7
:103F0400002B52D003A900913A464046484B04A9DD
:103F1400AFF300800646721C06D0099B3344099314
:103F24009AF80030002B88D1BB895B064CBF4FF058
:103F3400FF3009981DB0BDE8F08FB9EB0A0BF3D040
:103F44005B46524639464046FFF77AFE0130EBD0D5
:103F5400099B99F800205B4409937BE7A1F13002A7
:103F6400092AAFD8079B1AF8011F03EB830302EB5E
:103F74004303A1F13002092AF5D92E290793A3D1CD
:103F84009AF801102A2927D1039B0AF102001A6822
:103F94000433002A0393B8BF4FF0FF339AF802109A
:103FA40005928246B8BF05938EE7039B073323F03F
:103FB400070308330393B0E7494243F00203079130
:103FC40004937BE703A900913A464046184B04A9A1
:103FD40000F0C6F806469EE70023A1F13002092A44
:103FE4000AF1010A05933FF66FAF1AF8011F03EBBC
:103FF400830302EB4303A1F13002092AF5D90593A7
:1040040062E74021FFF7C0FD3860386110B14023FA
:104014007B6103E70C234FF0FF30C8F8003089E7D9
:10402400045100080C510008105100080000000061
:10403400453C00082DE9F04791461E460A698B6805
:104044000C469A42B8BF1A46C9F8002091F843308A
:104054000546DDF8208013B10132C9F8002022683A
:1040640091065DD5D9F800300233C9F800302268D2
:1040740012F0060F11461ED1E168CB1A002BD8BFEF
:10408400114618DD002704F1190A06E0D9F80030BA
:10409400E268A2EB030CBC450CDD01235246314619
:1040A4002846C047013007F10107EFD14FF0FF3038
:1040B400BDE8F087216894F84330003B18BF012322
:1040C4008A060AD53021E21882F8431094F8451084
:1040D4005A1C2244023382F843103146284604F124
:1040E4004302C0470130E1D0236803F00603042BE8
:1040F4001DD0A3682269934225DD00279B1A1F4423
:1041040004F11A09002401E0BC421CDA01234A46E6
:1041140031462846C047013004F10104F4D1C5E713
:1041240012F0060F12D0003B18BF0123D5E7D9F8CF
:104134000030E1682269C91AA36821EAE177934251
:10414400DCDC0029DCDC0020BDE8F087E168D9F87C
:104154000030CB1A002BD8BF114693DCABE700BF6D
:104164002DE9F04317460A7E85B00C46064698466C
:104174000C9D01F1430C002A33D0A2F15803D9B2AB
:10418400202967D8202B65D8DFE813F0DD00640010
:1041940064006400640064006400640064006400FB
:1041A4006400A3006E0064006400640064006E0098
:1041B400640064006400640021007F00BF006400A8
:1041C4006400AE0064007F0064006400E4002368BF
:1041D4001A0640F102812B686269191D29601B6867
:1041E4001A600023E14623613B4621463046CDF860
:1041F400008003AAFFF71EFF013020D04A4639464B
:1042040030462369C047013019D02368E0689B0712
:10421400039919D5431A002B16DD002504F1190959
:1042240004E0E0680399431AAB420DDD01234A46DA
:1042340039463046C047013005F10105F1D14FF050
:10424400FF3005B0BDE8F0838842B8BF084605B02A
:10425400BDE8F083012384F8422004F1420923617C
:10426400002384F84330BFE72368190602D45A06B2
:1042740000F1BF8029680A68043129601146002AC8
:104284006ADB0A25DFF87CE110E02368180640F1B8
:104294009A802B68191D296019686F2A0CBF08259C
:1042A4000A25DFF860E1002384F843306268002ABD
:1042B400A2607DDB236823F004032360002959D125
:1042C400002A77D1E146082D63D0ACEB09032361C2
:1042D4008AE701222B6804F14209196804332B6030
:1042E40084F842102261BBE72B6800211A1D2A6062
:1042F400D3F800906268484600F09AF800287FD00E
:10430400A0EB090060602061AAE7236843F0200362
:1043140023607822DFF8F0E084F845202A68111D34
:104324002960190642D45D0640D51188D80744BFD8
:1043340043F020032360002943D12368102523F090
:1043440020032360AFE75823DFF8B8E084F8453052
:104354002368E3E72368DCE72D2284F843206268BE
:104364004942002AA26002DB23F0040323600A25E9
:10437400DFF890E0E146B1FBF5F30A4605FB1310C4
:1043840019461EF80030AA4209F8013DF3D2082D5F
:104394009BD12368D90798D5626823699A4294DC33
:1043A400302309F1FF3989F800308EE71168BDE741
:1043B4000029DFD19EF8003004F1420984F842302C
:1043C40081E710256FE713F0400F2B6803F1040118
:1043D40029600CBF196819885FE713F0400F2B6838
:1043E400626903F1040129601B6814BF1A801A6012
:1043F400F7E62A68B2F9001004322A600A463EE75A
:10440400606880E7185100082C510008002238B574
:10441400064D044608462A6000F004F9431C00D007
:1044240038BD2B68002BFBD0236038BD0819002051
:104434005FFA81FC810710D00346511E2AB90AE0B5
:104444009A0718460AD0013905D3184613F8012BE8
:104454006245F5D1704700207047114603290CD8F6
:104464000029F8D00346014401E08B42F3D01846FA
:1044740013F8012B6245F8D1ECE7024610B54CEA7B
:104484000C2444EA04441046036804326340A3F154
:10449400013E2EEA030313F0803F04D104390329BB
:1044A4001046F0D851B10346014401E08B4205D0D7
:1044B400184613F8012B6245F8D110BD002010BD39
:1044C40088420DD98B1883420AD900EB020CBAB189
:1044D400624613F801CD994202F801CDF9D1704733
:1044E4000F2A0ED8034602F1FF3C4AB10CF1010C2D
:1044F400013B8C4411F8012B614503F8012FF9D1DC
:10450400704740EA01039B074FD1A2F1100370B535
:1045140001F1200C23F00F0501F1100E00F110043D
:10452400AC441B095EF8105C0EF1100E44F8105CEC
:104534005EF81C5C103444F81C5C5EF8185C44F8AB
:10454400185C5EF8145CE64544F8145CEAD1013367
:1045540012F00C0F01EB031102F00F0400EB031334
:1045640027D08E46043C24F003064FEA940C1E44E4
:104574001C1F5EF8045B44F8045FB442F9D10CF1EB
:10458400010402F0030203EB840301EB840102F152
:10459400FF3C4AB10CF1010C013B8C4411F8012B96
:1045A400614503F8012FF9D170BD034602F1FF3CC8
:1045B4009CE72246EBE700BF704700BF704700BF8F
:1045C400F8B51446F9B1CAB106460D4600F020F814
:1045D400A04202D32F463846F8BD21463046FFF7A5
:1045E400D3FA07460028F6D022462946FEF7A6FF4E
:1045F40030462946FFF762FA3846F8BD2746FFF7EA
:104604005DFA3846F8BD1146BDE8F840FFF7BCBA7C
:1046140051F8040C0028A0F10400BCBF0B58C018CA
:10462400704700BF044A05491368002B08BF0B46B6
:1046340018441060184670470C1900201019002007
:1046440070B5DAB0FCF74EFAFDF7BCF800224FF66D
:10465400FF717120FDF716F9FDF78CF99D48FDF700
:1046640083F99D48FDF7E4F9FCF7CCFFFDF71AF850
:10467400FCF75AFCFCF7D6FC62B6FCF7D9F8FCF759
:10468400F5F89648FDF7D4F900224FF6FF71712032
:10469400FDF7F8F8002503210F20FCF793FDECB299
:1046A40004F1100381B20022D8B2FDF7EBF8002226
:1046B4004FF400412046FDF7E5F8002204F16000C4
:1046C4001146C0B20135FDF7DDF8102DE3D100220B
:1046D40071201146FDF7D6F88148FDF7A9F9814A02
:1046E400814C9369052143F010039361636842F69A
:1046F400084023F470036360636843F40013636049
:10470400FEF74EF8794B0CAA03F11006154618680B
:104714005968083303C5B3422A46F7D11868998803
:104724009B792860A980AB71FBF7AAFD0CA8FBF765
:1047340061FE002800F0AE809DF8353040210493DE
:104744009DF834306A4A03939DF833303AA80293B3
:104754009DF8323001939DF8313000939DF830304C
:10476400FEF7A0FF3AA8FDF763F90020FCF74AFA28
:104774000323054640215F4A0093034612A8FEF72F
:1047840091FF12A8FDF754F9022D40F291805A4886
:10479400FCF76CFA5948FDF74BF90120FCF732FAA3
:1047A40000230322544809A9CDE909330B93FCF7EC
:1047B40053FA0B9B524A01930A9B802100933AA817
:1047C400099BFEF76FFF3AA8FDF732F90B9A4D4BA0
:1047D4009A4273D14FF6FE720A9B013B93426DD805
:1047E400099AD3B2591EC9B2DE2967D8C2F3072188
:1047F400FF2963D0C2F30740FF285FD0120EFF2ABF
:104804005CD07F2B5AD0CDE901028DF837108DF89A
:1048140038008DF8392000913B4A602122A88DF898
:104824003630FEF73FFF22A8FDF702F901250CA858
:10483400FEF7F8FB002D46D0BDF828502846FBF7BC
:1048440036FF00232A4618460121FDF7BFFA00204F
:10485400FDF76AFC01214FF4C050FDF7A1FF4FF4AE
:104864006450FDF76FFF042858D02848FDF7E0F89E
:104874004FF400520020264962610790079B8B4247
:1048840024DD22612290229B8B42F5DC229B0133A2
:104894002293F8E71F4866E70891089A824202D9F2
:1048A400013BF9D179E700BF089A01320892F4E795
:1048B40040F6B933002142F22730F1E71648FDF7FC
:1048C400B7F80025B3E741F28835B7E7079B013312
:1048D4000793D3E7A9080008D04C0008DD4C000872
:1048E400E84C00080010024000100140A04A0008F3
:1048F4000F4D00086E4D0008007000088C4D000834
:10490400AF4D00084354454EF04D00084B4E00088F
:10491400DF930400404D0008144E00082148FDF7C1
:1049240087F8214D214E2B780BB372B66B88002289
:104934009BB2B3F5006F1C4628BF4FF400641C49BA
:1049440090B2A04227D300226A802A7062B673B163
:104954001848FDF76DF82B1993F803381448652BA4
:1049640004BF04F1FF34A4B22146FCF785F8124BCE
:1049740013F8F42C1AB9114A92685207D3D40122BD
:104984000F4803F8F42CFDF753F80E48FBF79AFE92
:1049940004237361C7E7A8180079013201F8010BF9
:1049A400CEE700BF734E0008D00800200004014089
:1049B400D4100020954E0008C819002000140140AE
:1049C400B14E0008D4180020002103E00A4B5B58C4
:1049D4004350043109480A4B42189A42F6D3094A13
:1049E40002E0002342F8043B074B9A42F9D3FBF759
:1049F40077FFFFF725FE70475051000800000020A4
:104A0400A4000020A400002010190020FEE70000EC
:104A1400F8B500BFF8BC08BC9E467047F8B500BFA7
:084A2400F8BC08BC9E46704777
:104A2C008D4C00082C4C00082C4C00082C4C000819
:104A3C002C4C00082C4C00082C4C00082C4C00086A
:104A4C002C4C00082C4C00082C4C00082C4C00085A
:104A5C002C4C00082C4C00082C4C00082C4C00084A
:104A6C002C4C00082C4C00082C4C0008994C0008CD
:104A7C00A34C00082C4C00082C4C0008AF4C000830
:104A8C002C4C00082C4C00082C4C00082C4C00081A
:104A9C00C04C00080008DC112233C0A80132FFFF13
:104AAC00FF00C0A80101080808080100B50E0008A5
:104ABC00790E00083D0E0008010E00080020202091
:104ACC0020202020202028282828282020202020B2
:104ADC002020202020202020202020202088101082
:104AEC0010101010101010101010101010040404DE
:104AFC00040404040404041010101010101041419C
:104B0C004141414101010101010101010101010189
:104B1C00010101010101010110101010101042429D
:104B2C004242424202020202020202020202020259
:104B3C0002020202020202021010101020000000F9
:104B4C000000000000000000000000000000000059
:104B5C000000000000000000000000000000000049
:104B6C000000000000000000000000000000000039
:104B7C000000000000000000000000000000000029
:104B8C000000000000000000000000000000000019
:104B9C000000000000000000000000000000000009
:104BAC0000000000000000000000000000000000F9
:104BBC0000000000000000000000000000000000E9
:104BCC0000000000000000000000000000000000D9
:104BDC0000000000000000000000000000000000C9
:104BEC0000000000000000000000000000000000B9
:104BFC0000000000000000000000000000000000A9
:104C0C000000000000000000000000000000000098
:104C1C000000000000000000000000000000000088
:104C2C00534F434B5F4F54484552005443502073ED
:104C3C00746174653A2025732028307825303258F9
:104C4C0029202D3E202573202830782530325829F4
:104C5C000D0A004461746120706172736564210DEA
:104C6C000A004F4B00536F636B657420636C6F735A
:104C7C00696E6720636C65616E75702E2E2E0D0A41
:104C8C0000534F434B5F434C4F53454400534F43EA
:104C9C004B5F494E495400534F434B5F4C4953545F
:104CAC00454E00534F434B5F45535441424C49537F
:104CBC0048454400534F434B5F434C4F53455F575C
:104CCC0041495400436C6F636B20746573740D0A17
:104CDC000053574420746573740D0A004C544332CE
:104CEC0036383820696E697469616C697A6564203C
:104CFC00286368616E6E656C7320302D3135292EFA
:104D0C000D0A004D41432066726F6D20454550528F
:104D1C004F4D3A20253032583A253032583A25300A
:104D2C0032583A253032583A253032583A253032FA
:104D3C00580D0A00454550524F4D204D41432072AD
:104D4C00656164206661696C65642C207573696E9D
:104D5C00672066616C6C6261636B204D41432E0D64
:104D6C000A0072737420636F756E74203D20257574
:104D7C002028747269676765723D2575290D0A00D4
:104D8C00466163746F72792072657365743A20663C
:104D9C006C6173682070616765206572617365640E
:104DAC000D0A00466C617368207261772063666738
:104DBC003A2049505F574F52443D30782530386C7B
:104DCC005820504F52545F574F52443D3078253045
:104DDC00386C58204D414749433D30782530386C6C
:104DEC00580D0A00466C617368206E6574776F729B
:104DFC006B20636F6E6669673A2025752E25752EBC
:104E0C0025752E25750D0A00466C617368206E653C
:104E1C0074776F726B20636F6E66696720696E764C
:104E2C00616C69642F6D697373696E673B20757370
:104E3C00696E672064656661756C74730D0A004653
:104E4C004154414C204552524F523A20573535303F
:104E5C0030206E6F7420666F756E642076696120E9
:104E6C00535049210D0A00573535303020526561B9
:104E7C0064792E205374617274696E672053657265
:104E8C007665722E2E2E0D0A0055415254207061FB
:104E9C00636B65742070726F63657373696E672ED4
:104EAC002E2E0D0A005061636B65742070726F6357
:104EBC00657373696E672E2E2E0D0A007265616321
:104ECC00686564207365745F766F6C746167653AAE
:104EDC00204E5F4441433D25752C20434F44453DB6
:104EEC003078253034580D0A006D61747269782061
:104EFC0070616972206D61702072656A656374659A
:104F0C00643A20636F756E743D25750D0A006D61F2
:104F1C00747269782070616972206D61702073659C
:104F2C00743A20636F756E743D25750D0A007265B9
:104F3C006163686564207365745F6D75783A206D84
:104F4C0075785F69643D25750D0A00466C61736860
:104F5C0020766572696679204641494C45442E207D
:104F6C0077726F74653D5B30782530386C58203023
:104F7C00782530386C582030782530386C585D20C6
:104F8C00726561643D5B30782530386C5820307820
:104F9C002530386C582030782530386C585D0D0A27
:104FAC000053746F7265642049502025752E257549
:104FBC002E25752E25752C20706F7274202575206A
:104FCC00746F20666C6173680D0A00726F772072C3
:104FDC006F7574696E653A3A20726F772069642038
:104FEC002D3E34202C20636F6C756D6E20626974BD
:104FFC0073202D3E2025780D0A00726F7720726F7A
:10500C007574696E653A3A20726F77206964202D49
:10501C003E33202C20636F6C756D6E206269747347
:10502C00202D3E2025780D0A00726F7720726F7547
:10503C0074696E653A3A20726F77206964202D3E50
:10504C0032202C20636F6C756D6E20626974732036
:10505C002D3E2025780D0A00726F7720726F7574C3
:10506C00696E653A3A20726F77206964202D3E3163
:10507C00202C20636F6C756D6E2062697473202D0B
:10508C003E2025780D0A006170706C7920726F7566
:10509C0074696E653A3A20726F77206964202D3EF0
:1050AC002025642C20636F6C756D6E20626974739F
:1050BC00202D3E2025780D0A0020726F7720696420
:1050CC00202D3E2025642C20636F6C756D6E206244
:1050DC00697473202D3E2025782C20636F6C202D55
:1050EC003E2025640D0A00303132333435363738E2
:1050FC003941424344454600232D302B200000000B
:10510C00686C4C00656667454647000030313233A9
:10511C0034353637383941424344454600000000A7
:10512C003031323334353637383961626364656611
:04513C00000000006F
:0851400028E1FF7F01000000DF
:045148004D0200080C
:04514C002502000830
:1051500000580040FFFFFFFF8813FF0000A24A0431
:1051600000C000000002573535303000000000005C
:10517000652A0008252B0008272B0008292B00088A
:10518000672A00086B2A00080000000000000000E9
:1051900044000020000000000C4C0008EC4B00080C
:1051A000CC4B0008000000000000000000000000E0
:1051B00000000000000000000000000000000000EF
:1051C00000000000000000000000000000000000DF
:1051D00000000000000000000000000000000000CF
:1051E00000000000000000000000000000000000BF
:0451F00000000000BB
:04000005080049CDD9
:00000001FF
