:020000040800F2
:10000000000001207D130108C1130108C11301087C
:10001000C1130108C1130108C11301080000000049
:10002000000000000000000000000000C1130108F3
:10003000C113010800000000C1130108C113010829
:10004000C1130108C1130108C1130108C11301083C
:10005000C1130108C1130108C1130108C11301082C
:100060003D160008C1130108C1130108C11301089E
:10007000C1130108C1130108C1130108C11301080C
:10008000C1130108C1130108C1130108C1130108FC
:10009000C1130108C1130108C1130108C1130108EC
:1000A000C1130108C1130108C1130108C1130108DC
:1000B000C1130108C1130108C1130108C1130108CC
:1000C000C1130108C1130108C1130108C1130108BC
:1000D000C1130108DD190008C1130108C11301088B
:1000E000C1130108C1130108C1130108C11301089C
:1000F000C1130108C1130108C1130108C11301088C
:10010000C1130108C1130108C1130108C11301087B
:10011000C1130108C1130108C1130108C11301086B
:10012000C1130108C1130108C1130108C11301085B
:1001300000000000000000000000000000000000BF
:1001400000000000000000000000000000000000AF
:10015000000000000000000000000000000000009F
:10016000000000000000000000000000000000008F
:10017000000000000000000000000000000000007F
:10018000000000000000000000000000000000006F
:10019000000000000000000000000000000000005F
:1001A000000000000000000000000000000000004F
:1001B000000000000000000000000000000000003F
:1001C000000000000000000000000000000000002F
:1001D000000000000000000000000000000000001F
:0401E0005FF8E0F1F3
:1001E8000348044B834202D0034B03B118477047BE
:1001F800000A0020000A0020000000000548064907
:100208000B1AD90F01EBA301491002D0034B03B11C
:1002180018477047000A0020000A0020000000006C
:1002280010B5064C237843B9FFF7DAFF044B13B136
:100238000448AFF300800123237010BD000A00209A
:1002480000000000D813010808B5044B1BB104498D
:100258000448AFF30080BDE80840CFE70000000085
:10026800040A0020D8130108044B02680A4201D08E
:1002780000207047013BF8D101207047A18601009A
:10028800184B9A6942F008029A61DA6942F48002CE
:10029800DA61A3F582335A6822F47F425A605A68B9
:1002A80042F47F425A604FF440621A61A3F5344326
:1002B8001A6842F400421A601A6822F400421A606E
:1002C80024225A60B422DA6125221A621A6842F09E
:1002D80001021A601A6842F480621A60024A1360C6
:1002E800704700BF001002400000002038B50546E6
:1002F800154B1C68154BA26992071CD4204623682D
:10030800012143F4807340F8143BFFF7ADFFA0B917
:1003180040F202420D4B2561616911420FD06369B9
:100328005B050FD5636923F480636361236843F435
:100338000073236001E0013BDDD1012038BD013BA2
:10034800EAD1FAE7A369F9E700000020A1860100D5
:100358000A4B70B51E68044606F11405802128462C
:10036800FFF782FF40B9042128463461FFF77CFF7C
:10037800003818BF012070BD0120FCE700000020F4
:10038800084B10B51C6840212046236843F480635D
:1003980040F8143BFFF768FF10B92069C0B210BDE0
:1003A8000020FCE7000000200A4B10B51C68402123
:1003B8002046236823F480632360236843F4007392
:1003C80040F8143BFFF750FF10B92069C0B210BDC8
:1003D8000020FCE700000020054B1B681A6842F467
:1003E80000721A601A6842F480621A60704700BF8F
:1003F800000000202DE9F04F054685B0002800F0E8
:10040800E0800027FF224FF00308DFF8D0B1744ED8
:100418008BF8007032717271B2718BF801708BF8C1
:1004280002708BF803708BF804708BF80570F2710A
:100438008BF806708BF80770CBF80870ABF80C7067
:100448004FF00009674A32605FFA89F404F1500AF4
:100458006400603CE4B220465FFA8AFAFFF746FF80
:10046800002836D0FFF7B8FF09F10109B9F1080FE4
:10047800EAD15C4A116841F400711160039703994D
:10048800B1F5FA5FC0F0A480116808F1FF3841F4B3
:1004980000411160116818F0FF0821F40041116053
:1004A8004FF0240151604FF0B401D1614FF02501A4
:1004B8001162116841F001011160116841F4806115
:1004C8001160BDD11368326043F480634046136005
:1004D80077E09BF800209BF8011001328BF8002090
:1004E8009BF80220FA2001328BF80220B279FF2A09
:1004F8004FF0010202FA09F242EA010208BF86F847
:1005080006A08BF80120FFF723FF0028AAD19BF84B
:10051800032044F00104013220468BF80320FFF742
:10052800E5FE30B12046FFF757FFFFF7DFFE002852
:1005380098D19BF804206C1E01328BF804202246C7
:10054800291DCDE90021FFF71BFF009A019902F848
:10055800010F8A42F5D1FFF727FF2A68224B6871FD
:100568001A60AA8886F807A09A800122104605F129
:10057800050C14F8011F39B3FF294FF0000000D013
:1005880002466445F5D108BB1AB92878C04300F083
:10059800010001228BF807209BF805201149013240
:1005A8008BF805208BF80600FFF716FF0A6842F45F
:1005B80080620A6000283FF457AF022386F805A03E
:1005C800337105B0BDE8F08F0A46DAE70020E0E7AE
:1005D80000BF03990131039151E700BF1C0A0020B5
:1005E8000000002000580040240A0020074B1A7918
:1005F800FF2A08D05B79FF2B05D000B1027001B14A
:100608000B70012070470020704700BF00000020D9
:1006180010B5074C237800B1037011B105488079F3
:1006280008700AB161781170181E18BF012010BD3A
:100638001C0A00200000002030B5084C0346E07971
:1006480058B11BB1A5681D60A5899D8011B1044BE7
:10065800DB790B700AB1A379137030BD1C0A002036
:100668000000002010B510B1074CA478047011B137
:100678000548C078087012B103490979117013B19F
:10068800014A52791A7010BD1C0A0020002242F259
:10069800273182B0013801D202B070470192019B24
:1006A8008B42F7D800BF019B01330193F7E741F272
:1006B8008833002818BF0346014A1380704700BFDB
:1006C800080000202DE9F0414D4C06462078C8B0BE
:1006D800400100F5027002F017F8237800F01F01BE
:1006E8005B0103F5027002F03DF801214FF4B850A8
:1006F80002F038F82078434F400100F5427002F0CC
:1007080003F8BA780546824217D01C2A96BF3E4B9A
:100718003E4B53F822301C2896BF3B493B4951F8C1
:1007280020100092CDE90110394A602108A805F08F
:10073800CDFC08A801F05EF9BD70142D06D0172D68
:1007480009D0132D51D1207801F0D0FC002333704B
:1007580048B0BDE8F081207802F0CBF805460028C3
:10076800F4D0B0F5006F28BF4FF40065ADB22A464B
:100778002849207801F0E8FD20781F21400100F584
:10078800027001F0EFFF635D2248652B04BF05F19D
:10079800FF35ADB229460DF1100800F029FA42469E
:1007A8001D4B03F1080C154618685968083303C532
:1007B80063452A46F7D1998818689B792860A980EB
:1007C800AB71404605F0DEFE4FF480710346134AD4
:1007D800CDF8008008A805F079FC08A982B2207835
:1007E80001F002FD207801F0B9FC207801F09AFAB6
:1007F800002301213A88207801F0CAFAA3E700BF54
:100808002A0A002008000020F0130108B418010883
:10081800BF1801082B0A002044190108E71801082D
:1008280038B501250B4A0C4C9369322043F0040378
:100838009361236823F00F032360236843F00303C5
:1008480023606561FFF722FF25616420BDE8384019
:100858001CE700BF001002400008014008B5074926
:10086800074802F053F90749074802F08DF9BDE837
:1008780008400649064802F09DB900BF4D17000818
:100888003D1700085D1700085F1700086317000888
:10089800791700080D4B10B51A7802F0FF0132B92C
:1008A80040F2FE745A8892B2A24201D9598010BD12
:1008B8005A88652892B202F1010189B21A44598016
:1008C800107104BF01221A70F1E700BF2C1200203A
:1008D8000D4A08B5936943F01003936101220B4B4D
:1008E8001A611A6822F00F021A601A6842F00102AF
:1008F8001A6000F049FFBDE8084000224FF6FF717A
:10090800712000F0A1BF00BF00100240001001409C
:1009180010B50446438892B0009343783C21094AB5
:1009280003A805F0D3FB03A801F064F860780F284A
:1009380005D8403000226188C0B200F085FF04204D
:1009480012B010BD8E1B010810B5044692B0B0F865
:100958000310B0F8010000F0C3FAB4F803303C21EA
:10096800064A009303A8B4F8013005F0AFFB03A8CA
:1009780001F040F8052012B010BD00BFBB1B0108F4
:1009880010B5044690B0407800F072FB3C216378C3
:10099800044A01A805F09AFB01A801F02BF80220EF
:1009A80010B010BDF21B010870B5D0F80130B4B01A
:1009B8000693B0F80530032207931F4B06A9044697
:1009C8001E48089300F032FA002303221B4809A9A5
:1009D800CDE909330B9300F0F5F90998069B0A9DB8
:1009E8009842079A0B9E089903D1954201D18E42ED
:1009F8000CD0CDE901100092A021CDE90356104A90
:100A08000CA805F063FB0CA800F0F4FFB4F805305F
:100A1800A021039323790B4A0293E3780CA801934E
:100A2800A3780093637805F051FB0CA800F0E2FF6F
:100A3800072034B070BD00BF4354454E0070000815
:100A48000F1C0108651C010870B506460D460024F8
:100A5800AC4201D3012070BD335D3019652BF9D04C
:100A6800012B08D12B1B9BB2032BF3D9FFF750FFA7
:100A78000444A4B2ECE7082B06D12B1B9BB2042B31
:100A8800E8D9FFF761FFF3E7092B06D12B1B9BB2CF
:100A9800012BDFD0FFF774FFEAE70A2BDAD12B1B13
:100AA8009BB2062BD6D9FFF77FFFE1E72DE9F04F80
:100AB8008A460546ABB0B8B14C000F2CA8BF0F242E
:100AC8002021224606A805F063F804F1A8030DEBDF
:100AD800030400234FF0000804F8903CDFF8F0B05E
:100AE800AC68DFF8F09014B92BB0BDE8F08F256A38
:100AF800394B2046002D08BF1D4603F065FF48B15D
:100B08002369CDE900538021344A06AB0AA805F0D1
:100B1800DDFA25E0204603F042FF30B3D4E906674A
:100B28003946304604F0F0FA059004F0E5F902463B
:100B38000B463046394604F091F842464B460FF0D2
:100B4800BFFE04F0E1FA059B0028B8BF4042CDE99A
:100B5800005302908021224A06AB0AA805F0B6FA93
:100B68000AA800F047FF2468BDE7204603F00AFF03
:100B780040B1204603F000FF1A4B1B4A002808BF6B
:100B88001346BEE7204603F034FF78B18021174AA8
:100B9800009506AB0AA805F099FA0AA800F02AFF02
:100BA80020460AF10101FFF781FFDCE7204603F048
:100BB80019FF0028D7D0204603F0F0FA5A46CDE9AD
:100BC8000050802106AB0AA805F080FAE5E700BFCF
:100BD800E81C0108000059408F1C01089F1C0108EF
:100BE800B61C0108941C0108991C0108D21C0108B4
:100BF80070B50546A0B023480C4600F0FBFE2DB3A7
:100C080024B3284605462B7801307B2B24D10026B7
:100C1800234680211C4A2E55684605F057FA684637
:100C280000F0E8FE284603F059FA0446D0B902F06D
:100C3800B5FF164B8021002818BF0346144A6846A2
:100C480005F044FA684600F0D5FE14E0114820B0DB
:100C5800BDE8704000F0CEBE013CA4B2002CD1D15A
:100C68000D48F4E703F0C5FE38B90C4800F0C2FEA1
:100C7800204602F0D3FF20B070BD31462046FFF772
:100C880015FFF5E70D1D0108A41D0108051D010844
:100C9800651D0108231D0108841D0108411D010867
:100CA8002E4B82B01A6842F480321A601A68910397
:100CB800FCD52B4A116841F010011160116821F030
:100CC80007011160116841F0040111605A6822F4AB
:100CD8007F5222F030025A605A685A605A6842F4C9
:100CE80080625A605A685A605A6822F47C125A60C4
:100CF8005A6842F480325A605A6842F4E0125A60E4
:100D08001A6842F080721A601A689201FCD55A6813
:100D180022F003025A605A6842F002025A605A6886
:100D280002F00C02082AFAD100230E4A0093009B15
:100D380093420ADD00230B4A0193019B934208DD8D
:100D4800094B0A4A1A6002B07047009B01330093AE
:100D5800EDE7019B01330193EFE700BF001002406C
:100D680000200240FF083D000C00002000A24A04B9
:100D7800114B30B5DA69044642F0C052DA610F4AC5
:100D8800116841F4807111600D4948685D6A05F089
:100D98007C45B5F1006F0AD100204860116821F444
:100DA800807111605A6A42F080725A6230BD012C1B
:100DB800F2D0013080B2F0E700100240007000402D
:100DC800006C004001EB8202401A914200D170474A
:100DD800435841F8043BF8E7124B1A69120641BF21
:100DE800114A5A6002F188325A60DA68D107FCD495
:100DF800DA6842F03402DA601A6942F002021A61D3
:100E080058611A6942F040021A61064BDA68D20743
:100E1800FCD4DA6842F03402DA601A6922F002027D
:100E28001A6170470020024023016745F8B52A4C33
:100E38000E4623691546190641BF284B636003F126
:100E480088336360FFF7C8FFE36843F03403E36067
:100E58000024214BAC4219D056F824101A698FB2DD
:100E680042F001021A61090C0780DA68D207FCD443
:100E7800DA68970642BFDA6842F02002DA601A6937
:100E880022F001021A61DA68520705D5124A13697D
:100E980043F080031361F8BDDA68D706F6D41A69FF
:100EA80042F001021A614180DA68D207FCD4DA689C
:100EB800970642BFDA6842F02002DA601A6922F027
:100EC80001021A61DA685107E0D4DA68D206DDD483
:100ED80004300134BEE700BF00200240230167450B
:100EE80010F0010F14BF02234FF40033274A136197
:100EF80083074CBF04234FF48023136143074CBF7F
:100F080008234FF4002310F0080F14BF02204FF4F9
:100F1800003013611E4B1861C8074CBF04204FF402
:100F28008020186188074CBF10204FF4801018618A
:100F380048074CBF20204FF40010186108074CBF29
:100F480040204FF480001861C8064CBF80204FF441
:100F5800000018618B064CBF10234FF4801348061D
:100F680013614CBF20234FF4001311F0800F13615D
:100F780014BF01224FF48032064B1A61CA054CBFD8
:100F880002224FF400321A61704700BF001001407E
:100F980000080140000C0140164A936943F01C0305
:100FA8009361154B154A1968A3F500630A40C3F805
:100FB8000028D3F80018124A0A43C3F800281A6810
:100FC80022F47F621204120C1A6019680D4A0A434F
:100FD80000211A60D3F80024084622F0FF02C3F863
:100FE8000024D3F8002442F03302C3F80024FFF7AA
:100FF80077BF00BF00100240001001400F0000FF43
:101008003033330030033333174A936943F0140302
:101018009361A2F58032536823F0F003536053685C
:1010280043F030035360114B596821F00F015960A8
:10103800596841F003015960596821F470415960B9
:10104800596841F440515960596821F47021596038
:10105800596841F4403159604FF0007111614FF007
:10106800C8521A61704700BF0010024000080140D2
:101078004FF000734FF0C8510E4A0128136103F175
:10108800785303F58433196103D14FF40073136166
:101098007047022803D14FF480721A617047032801
:1010A80002D14FF40062F8E70428F7D14FF48052D8
:1010B800F3E700BF0010014003460028B8BF00F165
:1010C8001F035B1151F8233043FA00F000F00100D0
:1010D8007047034600200BB920207047DA07FCD47C
:1010E8005B080130F7E7034600200A46014653EA49
:1010F800020C02D140200021704713F0010FFBD1F0
:101108005B08013043EAC27341F100015208EEE77F
:1011180003460022202003B9704713F0010F18BFBF
:1011280010465B080132F6E730B50C46002103464D
:101138000A4640200D4653EA040C00D130BD13F096
:10114800010F1CBF294610465B08013243EAC473ED
:1011580045F100056408EEE70B6870B51B1A0646F2
:1011680001250020002BB8BF5B42954200D370BD1B
:1011780051F82540A41B002CB8BF64429C42BCBF58
:10118800284623460135F0E710B50446FFF7A1FFCE
:1011980001FA00F0204010BDF8B5154607460E4686
:1011A8001C46FFF7A0FFA0F1200105FA01F1C0F1EC
:1011B800200284400C4325FA02F2144305FA00F099
:1011C800384004EA0601F8BD08B50140FFF781FF81
:1011D80021FA00F008BD08B50146FFF77AFF21FAA9
:1011E80000F008BD38B50D460446FFF77CFF0246FF
:1011F800C0F1200105FA01F1A2F12000D4400C430E
:1012080025FA00F0204325FA02F138BDFFF780BF28
:10121800034600B121B98B4238BF0B4618467047C8
:10122800B3FBF1F2084601FB123103460029F7D15E
:101238007047F8B550EA010402D052EA03040AD113
:101248000C46904274EB0301054601D215461C4634
:1012580028462146F8BD15461C4603F0CDFF164624
:101268001E4328462146F6D1F2E738B50D46044616
:1012780028B131B1FFF7CCFFB4FBF0F46C43204642
:1012880038BD0C46FBE72DE9F8430446DDE908675D
:101298000D4690469946FFF7BBFFB4FBF0F4B5FB4B
:1012A800F0F0346038603368434501D8484502D9C6
:1012B800002333603B60BDE8F8832DE9F74F914682
:1012C800DDE91045DDE90E76984683468A46FFF744
:1012D800B0FF02460B46CDE900105846514603F0D0
:1012E8008BFFDDE90032C4E900014846414603F0BE
:1012F80083FFC5E900010C9B226893420D9A63683D
:1013080072EB030303D3874276EB010305D2002275
:101318000023C4E90023C5E9002303B0BDE8F08F2A
:101328000346002003B97047DA0748BF01305B085D
:10133800F8E710B50146000AFFF7F2FF0446C8B205
:10134800FFF7EEFF204410BD38B50446000CFFF748
:10135800F0FF0546A0B2FFF7ECFF284438BD10B5F2
:10136800044603C803F048FFC4E9000110461946C3
:1013780010BD10B503F040FF029CC4E9002310BD66
:1013880010B51C46002303F037FF226010BD10B5CE
:101398001C46D31703F0E0FE226010BD08B50023F9
:1013A80003F02AFF08BD08B5D31703F0D5FE08BD22
:1013B80013B50446002201A906F060FA019BA34276
:1013C80008BF6FF0150002B010BD13B50446002227
:1013D80001A906F017FB019BA34208BF6FF0150097
:1013E80002B010BD4870000A08707047008840BA03
:1013F80080B270470870000A4870704700887047CC
:10140800030A8870000C4B7008707047B0F8013000
:1014180000785BBA9BB243EA00407047030A087041
:10142800000C4B70887070478278008840EA024050
:101438007047030AC8708B70030C000E4B7008705D
:101448007047006800BA7047030A08704B70030CB5
:10145800000E8B70C870704700687047030A93715C
:10146800030C53710B0AD071D170000E93700B0CE2
:10147800090E10715370117070470168406809BAFD
:1014880000BA7047030A5370030C93700B0A10706C
:101498001171000E53710B0C090ED0709371D1713C
:1014A80070470346006859687047C1F10F01C9B217
:1014B800884000B208417047C1F11F01C9B2884095
:1014C80008417047A0FB0101704770B50C46A0FBAE
:1014D8000201C3F1200601FA06F6A3F12005D8405F
:1014E80021FA05F530432843D940C3F1200584B1DA
:1014F800A4FB0234A5F1200603FA06F6C5F1200282
:10150800AC4023FA02F23443AB401443181841EBC1
:10151800040170BD2DE9F0430026A0FB0240A1FBA9
:10152800021234190D1812189946304631464FF0F8
:10153800004E46EB060792187F4142EAD5722419FD
:101548006D414A4577F1000313D3C6F1200CA6F18B
:1015580020082EFA08F80EFA0CFC4CEA080CB2EB3C
:1015680009022EFA06F867F100074CEA000048EA7B
:1015780001010136402EDED1BDE8F083002070471E
:10158800931E062BF7B507460D46144619D88A420E
:1015980017D8B1FBF2F302FB131393B906462246A0
:1015A8003146684604F07EFA2346721E013B1DF858
:1015B800031002F8011F002BF8D12644F31BAB429D
:1015C800EDD303B0F0BD0000174A936943F021033F
:1015D8009361164B1A6822F470621A601A6842F412
:1015E80000621A60DA6842F00402DA60A3F5A053D8
:1015F8009A6822F470629A609A6842F440729A601B
:10160800D3F8002442F00402C3F80024D3F80C24D1
:1016180042F00402C3F80C240022054B83F8082387
:101628004FF480721A6070470010024000140140A5
:1016380000E100E0044B5A69520704D50121034A2E
:10164800117004225A6170470004014030220020C2
:10165800044B9A689107FCD518739A68D207FCD591
:10166800187B704700300140304A936943F4805337
:1016780043F00D0393612E4B5A6822F0E0625A60E2
:101688005A6842F000725A605A6842F001025A6081
:10169800D3F8002C03F5406322F470421A601A68EC
:1016A80042F440521A601A6842F400421A601A68FA
:1016B80022F470021A601A6842F440121A601A681A
:1016C80042F400021A601A6822F470221A601A683A
:1016D80042F480221A60A3F580635A6822F07042AF
:1016E8005A605A6842F040525A604FF400421A61F8
:1016F800002203F520531A601A6822F038021A6093
:101708001A6842F004021A601A6842F440721A60B9
:101718001A6822F003021A605A6842F040025A60BE
:101728001A6842F040021A60704700BF0010024079
:10173800000001404FF00042014B1A61704700BFA2
:10174800000801404FF40042014B1A61704700BF86
:10175800000801407CE7FF207AE738B504464518C1
:10176800AC4200D138BD14F8010BFFF771FFF7E761
:1017780038B504464518AC4200D138BDFF20FFF704
:1017880067FF04F8010BF6E7264B9A6942F0190245
:101798009A61DA6942F48042DA61A3F582335A68C1
:1017A80092B25A605A6842F430025A605A6842F05B
:1017B80030425A605A6822F070625A605A6842F0A1
:1017C80000625A60DA6842F48042DA605A6842F489
:1017D80040325A60144A516821F0F0015160516852
:1017E80041F0300151604FF4805119614FF400739A
:1017F800136100220D4B1A601A6822F038021A6031
:101808001A6842F004021A601A6842F440721A60B8
:101818001A6822F003021A601A6842F040021A603D
:10182800704700BF0010024000100140003800401F
:10183800044B9A689107FCD518739A68D207FCD5AF
:10184800187B704700380040012A38B514460CBF91
:101858004FF000724FF080520D460CBF0C4B0D4BF1
:101868001A61FFF7E5FF280AFFF7E2FFE8B2FFF782
:10187800DFFF094A93681B06FCD4012C0BBF4FF409
:1018880000724FF48052024B024B1A6138BD00BF00
:1018980000100140000C0140003800400022FFF712
:1018A800D3BF01290CBF4FF000724FF0805238B5FA
:1018B8000CBF0F4B0F4B0C461A61FFF7B9FF002006
:1018C800FFF7B6FF05460020FFF7B2FF0A4A936804
:1018D8001B06FCD4012C0BBF4FF400724FF480524E
:1018E800034B044B40EA05201A6180B238BD00BFA3
:1018F80000100140000C0140003800400021FFF7B3
:10190800D0BF00BF034B1A681206FCD5C0B258609E
:10191800704700BF00380140034B1A689206FCD597
:101928005868C0B2704700BF00380140014B1860CA
:10193800704700BF34220020214A0020936943F0F9
:1019480004039361936943F0010393611D4B596844
:1019580041F030015960596841F080015960596877
:1019680021F040015960596821F440715960596863
:1019780041F480615960596821F400615960124945
:101988004B6823F004034B60936943F480439361ED
:101998000E4BDA6842F00802DA60DA6842F00402B4
:1019A800DA60DA6842F02002DA6040F271229A6066
:1019B800DA6842F40052DA602022054B5A60704718
:1019C80000100240000801400000014000380140BA
:1019D80000E100E0054B1A68920605D55868044BEB
:1019E8001B680BB1C0B21847704700BF00380140F0
:1019F8003422002008B5411E11F8010F00B908BDB6
:101A0800FFF780FFF8E770B50446164B86B001AAC9
:101A180003F11006154618685968083303C5B34220
:101A28002A46F7D11B7830202B70FFF76BFF782000
:101A3800FFF768FF06AB03EB141313F8140C04F05C
:101A48000F04FFF75FFF04F118030DEB030414F80C
:101A5800140CFFF757FF0A2006B0BDE87040FFF7E7
:101A680051BF00BFB51D010807282DE9F8430646F8
:101A78000D461746994668D844010834204600F0B8
:101A880043FE00F00300012803D06FF00400BDE816
:101A9800F88304F54078404600F036FE132857D105
:101AA8002A786B7803EB0223AA7802EB0323EA78FF
:101AB800013A02EB032203324DD8002F4ED0390AE7
:101AC80004F5805000F04EFEF9B204F5885000F09D
:101AD80049FEB9F1100FD8D0204600F015FE0928AC
:101AE800D3D0294604F54060042204F5807500F03F
:101AF800A5FE0421284600F035FE284600F004FE25
:101B08000028FAD1174B1B8843FA06F6F207BED411
:101B180004F50074404600F0F7FD172801D10120B4
:101B2800B5E7204600F0F0FD030706D5204608215A
:101B380000F018FE6FF00C00A9E7404600F0E4FD45
:101B48000028E7D16FF00300A1E74FF0FF309EE7D0
:101B58006FF002009BE76FF00B0098E76FF00A0048
:101B680095E700BF382200202DE9F84F07280746DF
:101B78008A4691461E46BDF828409DF82CB000F2D2
:101B8800C58045010835284600F0BEFD00F00F036A
:101B9800042B05D810F00E0F04D16FF004000FE0ED
:101BA8000B2BFAD1284600F0AFFD0428804627D039
:101BB800BBF1100FF1D0BBF1040F03D06FF00B0095
:101BC800BDE8F88FA0F10A03DBB2012BE5D95A462C
:101BD800314605F5406008F0030800F02FFEB8F123
:101BE800020F0DD114B96FF00A00E9E7210A05F5D3
:101BF800805000F0B7FDE1B205F5885000F0B2FD65
:101C0800B9F1000F00F085803378727802EB032277
:101C1800B37803EB0222F37803EB0223002B3AD0CC
:101C2800002C3ED005F54078404600F06DFD422876
:101C38003DD10422314605F5406000F0FFFD210A40
:101C480005F5805000F08EFDE1B205F5885000F0F2
:101C580089FD05F5F85000F057FD800280B248452F
:101C680028BF48464FF001090446DFF8B4B009FA26
:101C780007F9384600F01CFE0646404600F044FDD1
:101C8800002849D0BBF8003013EA090F16D0B44237
:101C980016D9002094E7284600F036FD4007BFD447
:101CA8008CE7284600F030FD4107BBD49BE700F0E5
:101CB800EF002228BDD06FF0060081E7B442D8D8E3
:101CC80051463846224605F5807600F033FE20213D
:101CD800304600F047FD304600F016FD0028FAD1E6
:101CE80005F50075284600F00FFDC20605D5284603
:101CF800102100F037FD204662E70307F2D5284699
:101D0800082100F02FFD6FF00C0059E74FF0FF306D
:101D180056E76FF00D0053E76FF0030050E700BF80
:101D2800382200200728F8B505462CD8470107F1C6
:101D3800080407F584771021384600F013FD38466B
:101D480000F0E2FC06460028F9D11F2104F50070D6
:101D580000F008FD0123AB40DB430C4A1BB211889D
:101D680004F540741940118051880B40538002EBF0
:101D780045032A449E801675204600F0C5FC0028BD
:101D8800FAD10120F8BD4FF0FF30FBE738220020E0
:101D980007282DE9F3410446884617461D4600F2F8
:101DA800828001F00F03013B0D2B7FD8DFE803F0A1
:101DB800071515157E7E7E7E7E15157E7E150422FE
:101DC8004FF470600DEB020100F0FEFC019B23B99B
:101DD8006FF0020002B0BDE8F081680756D42DB15B
:101DE800B8F1010F4FD0B8F1020F52D0204666016A
:101DF800FFF798FF083625F00F01304641EA080141
:101E080000F0B0FC6FB94FF6F0712A4A17887B1CB6
:101E18009BB28B4205BF4FF440434FF6EF771380D8
:101E28001380390A06F5806000F09CFCF9B206F5CB
:101E3800A06006F5807700F095FC0121384600F097
:101E480091FC384600F060FC0028FAD10123A34039
:101E5800DB43194A1BB2118805F001051940A5405A
:101E68000D43518815800B40538002EB44032244F4
:101E78009880107506F54076304600F045FC00283D
:101E8800FAD060B2A6E715F0210FAFD16FF00500C8
:101E9800A0E7A9066BB201D5002BF7DAEA06A5D5AB
:101EA800002BA3DBF2E74FF0FF3093E76FF004005D
:101EB80090E700BF10000020382200202DE9F04FE5
:101EC800072805468B469246994687B000F203815B
:101ED80047010837384600F017FC00F00F010429C5
:101EE800034605D810F00E0F04D16FF00400B6E0D9
:101EF8000B29FAD1BAF1000F00F0F0807A4E4FEAC0
:101F0800450806EB4501898800297FD1012107F59D
:101F18004072A94001922846CDE9021300F0E9FC7D
:101F28000446019800F0F0FB002800F0DA803088C1
:101F38000299039B084202D01CB920468FE0002C6E
:101F4800E9D003F00703032B07F5807700F08A80B8
:101F5800042B5DD0022B40F0B68006EB08039B886B
:101F68008BBB284604A9082200F011FD4021384601
:101F780000F0F8FB384600F0C7FB0028FAD19DF8BE
:101F880010309DF8142089F800309DF811309DF824
:101F9800161089F801309DF8123089F802309DF842
:101FA800133089F803309DF8153003EB0223109A9B
:101FB80013809DF8172006EB080302EB01229A8094
:101FC800802273191A7506EB08039C88544528BFAC
:101FD800544659462246284600F0D9FC4021384646
:101FE80000F0C0FB384600F08FFB0028FAD1B0445F
:101FF800B8F804301B1B9BB2A8F804301BB1731946
:10200800187D40F001003544287596E7002498E7CC
:1020180006EB08039B88002BD5D1284604A9022289
:1020280000F0B5FC4021384600F09CFB384600F033
:102038006BFB0028FAD19DF811309DF81020023B67
:1020480003EB02239BB206EB0802938040F2EA52AC
:102058009342B5D92846FFF765FE6FF47A7007B04A
:10206800BDE8F08F06EB08039B88002BB6D1284605
:1020780004A9062200F08BFC4021384600F072FBD0
:10208800384600F041FB0028FAD19DF814209DF84D
:1020980015409DF8103004EB0224802289F80030A6
:1020A8009DF81130A4B289F801309DF8123089F8F2
:1020B80002309DF8133089F8033006EB08039C8042
:1020C80073191A7582E72146284600F08DFC06EB45
:1020D80008039C8082E74FF0FF30C0E76FF00D00E7
:1020E800BDE76FF00300BAE738220020072870B573
:1020F800054627D844010834204600F005FB00F0C7
:102108000300012821D104F54076304600F0FCFA9E
:1021180013281DD104F580740221204600F022FB0B
:10212800204600F0F1FA0028FAD1304600F0ECFA27
:10213800142801D1012004E02846FFF7F3FD6FF0D1
:10214800030070BD4FF0FF30FBE76FF00400F8E7C5
:102158006FF00200F5E7042386E485E40728F8B564
:10216800054639D844010834204600F0CDFA00F07D
:102178000300012833D104F54076304600F0C4FA54
:1021880008B90120F8BD04F580770821384600F029
:10219800E9FA384600F0B8FA0028FAD10122114BC2
:1021A80002FA05F15A8822EA01025A801B882B415B
:1021B800DA07E7D404F50074304600F0A5FA0028E1
:1021C800DFD0204600F0A0FA0307F5D52846FFF730
:1021D800A9FD6FF00C00D5E74FF0FF30D2E76FF0A4
:1021E8000400CFE73822002007282DE9F84F0546DC
:1021F8008A46144600F29C8046010836304600F0B4
:1022080083FA00F00F00012840F09580002C00F0C0
:10221800958006F54079484600F076FA172804D0EC
:102228001C2802D06FF0060037E0464F7B882B4110
:10223800DA0711D506F50078404600F065FAC306BE
:1022480028D51021404600F08DFA012303FA05F243
:102258007B8823EA02037B8006F5F85000F054FAE5
:10226800800280B24FF00108844228BF044608FA71
:1022780005F8284600F01CFB8346484600F044FA5F
:10228800172812D01C2810D00028CBD12846FFF7D9
:1022980049FDC7E7000702D40020BDE8F88F2846AB
:1022A800FFF740FD6FF00C00F7E73B8813EA080FD3
:1022B80027D05C45F0D851462246284600F03AFB24
:1022C8007B882B41D9070AD506F5007A504600F0DD
:1022D8001BFAC30618D51021504600F043FA06F53C
:1022E80080762021304600F03DFA304600F00CFAA6
:1022F8000028FAD17B88204648EA0308A7F802801C
:10230800CBE75C45B5D8D6E7484600F0FDF9172875
:1023180009D01C2807D00028B8D0504600F0F4F99E
:102328000207B3D47EE73B8813EA080FCED0B3E7A1
:102338004FF0FF30B1E76FF00400AEE76FF00D002B
:10234800ABE700BF3822002007282DE9F74F834666
:102358008846174656D845010835284600F0D4F96E
:1023680000F00F06012E50D1002F51D005F5F05086
:1023780000F0CAF906FA0BF6009005F5407905F564
:10238800F85A584600F0B5FA0446484600F0BCF939
:10239800172815D01C280BD1C4B9584600F088FA64
:1023A8000190504600F0B0F90199B1EB802F07D1A8
:1023B8005846FFF7B7FC6FF0060003B0BDE8F08F92
:1023C800164B1988314226D1002CDAD0009B4146A1
:1023D800980280B2874228BF0746A74228BF2746EF
:1023E800BFB258463A4605F5807500F0D0FA40214C
:1023F800284600F0B7F9284600F086F90028FAD1F7
:102408003846DAE74FF0FF30D7E76FF00400D4E73B
:102418006FF00D00D1E70020CFE700BF3822002081
:1024280013B504240194BDF810400094FFF79CFBF9
:1024380002B010BD30B4BDF808409DF80C50CDE98D
:10244800024530BCFFF790BB38E537E5072810B5E3
:102458000B4614464FD81178092B4FD8DFE803F004
:10246800051A222B2F374E4E3F46012907D1254BFF
:1024780001FA00F01A8810431880012010BD0029C5
:102488003CD101211F4A01FA00F0138823EA000019
:102498001080F2E71B4B1B8843FA00F000F00100A4
:1024A8002070EAE7400100F5F850083000F02CF9F8
:1024B80080022080E1E7400100F5F050F5E71F2990
:1024C8001CD8400100F5027000F04CF9D5E7400136
:1024D80000F5027000F018F900F01F00E0E71F296E
:1024E8000CD8400100F530500830EDE7400100F508
:1024F80030500830EEE74FF0FF30BFE76FF00900CB
:10250800BCE700BF38220020072870B5154671D8EF
:102518000139062971D8DFE801F0040C111E2734AF
:102528005F004001117800F5B050083000F01AF94A
:1025380018E04001117800F5A850F6E7118840012D
:1025480000F10804090A04F5905000F00BF9297805
:1025580004F59850EAE740010422294600F60840AD
:1025680000F06CF9012018E01188400100F108041E
:10257800090A04F5805000F0F5F8297804F5885028
:10258800D4E7400100F10804204600F0BDF800F04F
:102598000300012802D06FF0040070BD04F53C5020
:1025A80000F0B2F860BB04F580752221284600F0DF
:1025B800D9F804F50074284600F0A6F80028D1D010
:1025C800204600F0A1F80307F5D52046082100F0C1
:1025D800C9F86FF00C00E0E7400100F1080420465C
:1025E80000F092F800F00306012ED4D1297804F502
:1025F8003C509BE74FF0FF30CFE76FF00900CCE786
:102608006FF00100C9E7072870B50446164673D86D
:102618000E2974D8DFE801F00811181C2B33733D1C
:102628004E5B5173735565004001083000F06CF83B
:1026380020F00F003070012036E0400100F5B05066
:10264800083000F061F8F5E7400100F5A850F7E719
:102658004401083404F5905000F056F8054604F596
:10266800985000F051F800EB05203080E3E7400176
:102678000422314600F6084000F0A6F8DBE74401E2
:10268800083404F5805000F03FF8054604F58850FA
:10269800E7E744010834204600F036F800F0030567
:1026A800012D02D06FF0040070BD04F53C5000F01D
:1026B8002BF8DAE700F0FCF8D7E7400100F54270A4
:1026C800BFE74001083000F01FF8C30703D52046D4
:1026D80000F00FF9C9E70B4800EB4400838833800A
:1026E800A9E74001083000F00FF80128DAD00548C2
:1026F8002044037D33709EE74FF0FF30D4E76FF03E
:102708000100D1E73822002073B50546144CC5F303
:102718000726E368984763699847636AC5F30740E3
:10272800EDB20BB1A36A8BB9236A98473046236A86
:1027380098472846236A9847E36998470546A36956
:10274800984723699847284602B070BD8DF8040061
:1027580003218DF805608DF8065001A89847EBE72E
:1027680014000020F7B50546164C0E46E368984756
:1027780063699847A36A45F00407C5F30740FFB2A9
:10278800C5F3072583B9236A98472846236A9847DB
:102798003846236A98473046236A9847A36998477A
:1027A8002369984703B0F0BD04218DF804008DF823
:1027B80005508DF806708DF807600DEB01009847FD
:1027C800ECE700BF140000202DE9F34105461A4C40
:1027D8000E46E3681746984763699847636AC5F3E6
:1027E8000740C5F30728EDB20BB1A36AB3B9236A52
:1027F80098474046236A98472846236A98473744AB
:10280800B74206D1A36998472369984702B0BDE843
:10281800F081E369984706F8010BF1E78DF80400A9
:10282800032101A88DF805808DF806509847394690
:102838003046636A9847E5E7140000202DE9F34124
:1028480005461A4C0F46E3689046984763699847CF
:10285800A36A45F00406C5F30740F6B2C5F3072599
:10286800B3B9236A98472846236A98473046236AAB
:102878009847B844B84506D1A3699847236998474B
:1028880002B0BDE8F081236A17F8010B9847F1E719
:102898008DF80400032101A88DF805508DF8066015
:1028A800984741463846A36A9847E5E71400002050
:1028B800F8B500244601083606F5005706F5045613
:1028C8003846FFF721FF05023046FFF71DFFADB27E
:1028D8000544ADB24DB13846FFF716FF0402304645
:1028E800FFF712FFA4B20444A4B2AC42E8D12046D8
:1028F800F8BDF8B500244601083606F5185706F560
:102908001C563846FFF700FF05023046FFF7FCFE6D
:10291800ADB20544ADB24DB13846FFF7F5FE04023D
:102928003046FFF7F1FEA4B20444A4B2AC42E8D1A9
:102938002046F8BD2DE9F843894614462AB3850098
:102948006F1CFF0007F510584046FFF7DDFE07F53E
:10295800145706463846FFF7D7FE00EB0626B6B2F0
:10296800023530022246494600EBC500FFF766FFF4
:10297800A11940468CB2C1F30721FFF7F3FE384690
:10298800E1B2BDE8F843FFF7EDBEBDE8F8832DE9F5
:10299800F843894614462AB385006F1CFF0007F5E3
:1029A80020584046FFF7B0FE07F52457064638463C
:1029B800FFF7AAFE00EB0626B6B203353002224620
:1029C800494600EBC500FFF7FFFEA11940468CB24F
:1029D800C1F30721FFF7C6FE3846E1B2BDE8F84368
:1029E800FFF7C0BEBDE8F883F8B54401083404F524
:1029F800205738460D46FFF787FE04F5245406464F
:102A08002046FFF781FE291801EB062138468DB2D2
:102A1800C1F30721FFF7A6FE2046E9B2BDE8F8405A
:102A2800FFF7A0BE70470078704701707047012B10
:102A38002DE9F84328BF01230446884616461F4659
:102A48000025DFF82090ABB2B34201DBBDE8F88384
:102A58002046D9F81C3098473C4408F80500013551
:102A6800F1E700BF14000020012B2DE9F84328BF2F
:102A780001230446884616461F460025DFF81C90A9
:102A8800ABB2B34201DBBDE8F883204618F8051065
:102A9800D9F8203098473C440135F1E7140000206C
:102AA80000207047704770B50446054E4518AC4283
:102AB80000D170BDF369984704F8010BF7E700BF30
:102AC8001400002070B50446044E4518AC4200D1ED
:102AD80070BD336A14F8010B9847F7E7140000201B
:102AE80070477047704770477047054B00B121B970
:102AF800044ADA60044A1A617047C3E9030170475F
:102B0800140000202D2A0008ED2A0008054B00B10A
:102B180021B9054A5A61054A9A617047C3E9050116
:102B2800704700BF14000020EF2A0008F12A0008AF
:102B3800074B1A88D20500D4FEE700B121B9054A2F
:102B4800DA61054A1A627047C3E90701704700BF96
:102B5800140000202F2A0008332A0008074B1A887F
:102B6800D20500D4FEE700B121B9054A5A62054AE8
:102B78009A627047C3E90901704700BF140000203A
:102B8800372A0008712A0008074B1A88920500D4D2
:102B9800FEE700B121B9054ADA61054A1A627047B1
:102BA800C3E90701704700BF14000020A92A0008E4
:102BB800AD2A0008074B1A88920500D4FEE700B139
:102BC80021B9054A5A62054A9A627047C3E9090160
:102BD800704700BF14000020AF2A0008CD2A000863
:102BE800074B1A8802F4017202B9FEE700B121B955
:102BF800044ADA61044A1A627047C3E90701704758
:102C080014000020E92A0008EB2A00087FB50622F4
:102C180004A94FF41060FFF7D7FD04224FF4807029
:102C28000DEB0201FFF7D0FD02A904224FF4A060CA
:102C3800FFF7CAFD042203A94FF47060FFF7C4FD33
:102C480080210020FFF78EFD0020FFF75DFD04A91D
:102C580006224FF41060FFF7F1FD04224FF4807054
:102C68000DEB0201FFF7EAFD02A904224FF4A06070
:102C7800FFF7E4FD04224FF4706003A9FFF7DEFDBF
:102C880007B05DF804FBF8B505460C46FFF7BEFF34
:102C9800BDB16E1E32460023073512F8011F0B44E2
:102CA8005BB2102B29DCAA42F7D141F6087542F233
:102CB8000807284616F8011F2035FFF753FDBD42C7
:102CC800F7D10CB90020F8BD651E2A460023073449
:102CD80012F8011F0B445BB2102B0EDC9442F7D1A3
:102CE80041F6086441F60876204615F8011F20349D
:102CF800FFF738FDB442F7D1E4E74FF0FF30E2E7E1
:102D080038B500F0F001050A4FF4A850FFF72AFD86
:102D1800002445FA04F3DB0705D560011F2100F5FF
:102D28000270FFF71FFD0134082CF2D138BD10B531
:102D38004FF4A850FFF7E8FC04464FF4B850FFF7EB
:102D4800E3FC04F0F00404EB0024A0B210BD10B5BD
:102D58000446C1B24FF4B050FFF704FD210A4FF406
:102D6800C050BDE81040FFF7FDBC10B54FF4B0509F
:102D7800FFF7CAFC04464FF4C050FFF7C5FC04EB4C
:102D8800002080B210BD08B54FF43850FFF7BCFCE6
:102D980000F0010008BD08B54FF43850FFF7B4FC47
:102DA80000F03800A0F130035842584108BD08B57A
:102DB8004FF43850FFF7A8FC00F07F014FF438506B
:102DC800FFF7D0FC4FF43850FFF79EFCBDE80840F1
:102DD80060F07F01C9B24FF43850FFF7C3BC08B5A3
:102DE8000378012B43780CBF40210021012B09D126
:102DF80041F038014FF43850FFF7B4FCBDE8084003
:102E0800FFF7D5BFC2788378012A06D1012B0CBF02
:102E180041F0180141F00801ECE7012B08BF41F02F
:102E28001001E7E710B504464FF43850FFF76CFC83
:102E3800C0F38013237000F03803202B01D0382B07
:102E48001DD101226270A3F11002D2B2102A18D843
:102E5800012101FA02F202F0013222F0807282B1FD
:102E6800A170083BDBB2182B0ED8012202FA03F33B
:102E780003F0013323F4807333B1E27010BD0022F4
:102E8800E0E70022A270ECE70023E370F6E710B554
:102E980004464FF43850FFF737FCC0F38003E37063
:102EA800C0F34003A37010BD10B504464FF438506A
:102EB800FFF72AFC43061DD500F0C701012C0CBF03
:102EC80041F0300141F038014FF43850FFF74AFC27
:102ED800FFF76DFF4FF43850FFF716FC012C06D1B1
:102EE80010F0300F0CBF4FF0FF30002010BD10F075
:102EF800380FF7E74FF0FF30F8E7033838B50C46DE
:102F080014286BD8DFE800F00B0F19151D212430A9
:102F18006A6A3C6A6A6A4C4F53575B606700FFF7FE
:102F280075FE00203BE02046BDE838400831FFF739
:102F3800AABE0888FFF7E4FEF3E7FFF7F8FE208053
:102F4800EFE70888FFF703FFEBE7FFF70EFFF6E769
:102F580009884FF49850090AFFF704FC4FF4A05071
:102F68002178FFF7FFFBDCE74FF49850FFF7CCFB25
:102F780005464FF4A050FFF7C7FB00EB0520DEE73E
:102F88000020184B9A780A70DA784A701A798A7091
:102F98005A79CA709A790A71DB7988714B7138BD90
:102FA800FFF705FFBDE70846FFF719FFB9E7084631
:102FB800FFF738FFB5E70846FFF769FFB1E708787C
:102FC800BDE83840FFF770BFFFF7E5FEC0B2FF2845
:102FD80004D02070A5E7FFF7D6FEF7E74FF0FF30E3
:102FE800DDE700BF1400002010B5044601460622A4
:102FF8004FF41060FFF722FC04224FF4807004F1B4
:103008000E01FFF71BFC04224FF4A06004F10A0133
:10301800FFF714FC04224FF47060A11DFFF70EFCAB
:10302800054BA27C1A70E27C5A70227D9A70627DF0
:10303800DA70A27D1A7110BD5422002010B5044622
:10304800014606224FF41060FFF7BEFB04224FF43E
:10305800807004F10E01FFF7B7FB04224FF4A06063
:1030680004F10A01FFF7B0FB04224FF47060A11DC0
:10307800FFF7AAFB054B1A78A2745A78E2749A787B
:103088002275DA781B796275A37510BD5422002069
:1030980038B530F03A0504460AD12846FFF734FB24
:1030A80044EA0001C9B22846FFF75CFB284638BD50
:1030B8004FF0FF30FBE70020FFF726BB10B50446B2
:1030C80001784FF4D850FFF74DFB61884FF4C85092
:1030D800090AFFF747FBA1784FF4D050BDE810402C
:1030E800FFF740BB38B504464FF4D850FFF70CFB48
:1030F80020704FF4C850FFF707FB05464FF4D05037
:10310800FFF702FB00EB0520608038BD10B50C46C8
:1031180005281ED8DFE800F003080C111519084629
:10312800FFF762FF002010BD0846FFF787FFF9E7A9
:103138000878BDE81040FFF7ABBFFFF7BCFF207071
:10314800F0E70846FFF7BAFFECE70846FFF7CAFFC3
:10315800E8E74FF0FF30E6E700230146184610B5D0
:10316800CA5CA2F13004092C09D83038032B10446A
:1031780003F1010318BF0001042BF1D110BDA2F126
:103188004104052C01D83738F0E7A2F16104052C79
:1031980001D85738EAE70020F0E72DE9F84F0A6828
:1031A8008B6880465D1CD018D35C8A46222B154458
:1031B80040F0DD802F4600234C68B91AA14280F008
:1031C800D680397822290ED1C3F10103381ADAF8EA
:1031D8001020184490478346002800F0C880044611
:1031E800DFF894910FE05C2905D10137B91A8C42B8
:1031F80040F2BD8001330137DFE72B785C2B12D01A
:10320800013504F8013BBD42F7D300232370102396
:103218000120C8E9033BDAF80030FB1A0133CAF889
:103228000830BDE8F88F7A1B002A0DDD6B78752B06
:103238000AD86D2B12D8622B2AD025D82F2B28D04C
:103248005C2B26D0222B24D05846DAF81430984725
:10325800DAF80000281ACAF808008BE06E3B072B42
:10326800F2D801A151F823F0A53200085132000824
:103278005132000851320008A932000851320008C2
:10328800AD320008B1320008662BDDD10C2300E016
:10329800082304F8013B02231D44B4E70A23F8E796
:1032A8000D23F6E70923F4E7052ACDDDA81CFFF76F
:1032B80053FFA0F55C43B3F5806F0646C4D3A0F571
:1032C8005843B3F5806F2ED2AB1DFB1A052BBBDD1F
:1032D800AB795C2BB8D1EB79752BB5D105F108002A
:1032E800FFF73AFFA0F55C43B3F5806FACD20C232F
:1032F80009EA8626C0F30900304300F580364FF00E
:10330800F00E042000F1FF3C5FFA8CFCA444A445B5
:10331800F2B224D1012814BF42EA0E0202F07F0261
:1033280022700444B8E77F280AD9B0F5006F0CD39F
:10333800B0F5803F0ED3B0F5881F85D20623DEE7AF
:1033480006234FF0000E0120DCE706234FF0C00EE5
:103358000220D7E706234FF0E00E0320D2E702F061
:103368003F0262F07F010CF80119B609CFE7002D82
:103378007FF46EAF002054E700FC0F0010B528B1B1
:10338800016889B1D0E901329A4202D310BD0132F5
:1033980082608268934203D98C5C202CF7D9F5E7C8
:1033A800F4D1013B8360F1E70846EFE710B180688C
:1033B80000B101B9704700680139F9E738B504462A
:1033C80038B1006828B1A568284403F0DBF8054443
:1033D800A56038BD70B50446B8B1056865B14368E5
:1033E80013B18268934210D900290EDBA2684E1CE3
:1033F8001644B34202D31544284670BD236923B945
:10340800B6F1804F03D3002E0FDA0025F4E77600DB
:10341800236A6BB12846314698470546B0B9E36937
:1034280020689847C4E90055E6E76FF00046EFE7E3
:103438003046A369984705460028F0D0A26821685D
:10344800013202F02FFBE36920689847A368C4E9BA
:1034580000561D44D0E7F8B50D460446002834D080
:10346800002931D08468FAB9194E74B3236AC3B1FC
:10347800AB4221D005F1FF3C013B1CF8011F0F4670
:103488008A5D02F00302012A13F8012F08BF01F137
:103498002007B05C00F00300012808BF20329742E3
:1034A8000FD02468E1E724687CB1216A21B128465D
:1034B80002F02CFF0028F6D1236A002B08BF002455
:1034C80003E00029D9D1F7E70C462046F8BD00BF34
:1034D8007D14010881B138B181420DD0836823B9C8
:1034E8008160C1E90031012070475A68002AFAD08A
:1034F80011604A605960F6E7002070472DE9F84FDF
:103508000646084611B90020BDE8F88F36B33146A3
:103518004FF0000A0124424F0D4611F8013B3BBB16
:10352800AD1B5544E91CFFF755FF07460028EAD0B4
:103538004FF0220B441C05F1010905F1020880F83F
:1035480000B0BAF1000F29D12A463146204602F0D0
:10355800A9FA07F809B007F808A007E00321FFF760
:1035680039FF0028CFD02F4902F0AEFF0120CBE76A
:10357800222B0BD8072B0CD9A3F10802D2B204FADC
:1035880002F23A4205D00AF1010AC5E75C2BC3D121
:10359800F9E71F2B98BF0AF1050ABDE75C254FF034
:1035A800740ADFF884B0013E16F8013F2BB92222D5
:1035B80007F8092007F80830D8E71F2B07D9222B6E
:1035C80005D05C2B03D020462370441CECE7204632
:1035D80000F8015B32780D2A0AD8072A1AD9A2F115
:1035E8000803052B16D8DFE803F009120E150C1096
:1035F800222A01D05C2A0DD16270E6E7622363704B
:10360800E3E76623FBE76E23F9E77223F7E784F81D
:1036180001A0DAE7594602F0B9FD601DD5E700BF01
:1036280037000004C61D0108C91D010870B505460C
:1036380070B102F0A7FF074B461C30461B6898473D
:10364800044618B13246294602F02CFA204670BDCD
:103658000446FBE740000020F8B50D46144607462F
:10366800F8B1F1B1EAB190421BD08BB1D66846F4FB
:103678000076E3689B0504D4206A10B10A4B5B68A6
:103688009847214638462562E660BDE8F84021E7BC
:103698000846FFF7CBFF054618B1E66826F4007622
:1036A800E7E70020F8BD00BF40000020034610B542
:1036B80028209847044618B12822002102F068FA09
:1036C800204610BD10B50446B0B10C4B1868FFF782
:1036D800EDFF88B12346024604F1280153F8044B54
:1036E8008B4242F8044BF9D10023C268C0E9003389
:1036F80042F480720362C26010BD00BF4000002027
:103708002DE9F04F0C4680468DB008B9002561E0E0
:103718000029FBD0057B102D00F0118118DC6B1EF1
:10372800072BF3D8072BF1D801A252F823F000BFDA
:10373800CB370008E537000815370008B53700080B
:10374800153700081537000815370008F537000841
:10375800402D00F02281802D00F0DD80202DD5D174
:10376800CB68B3F57A7FD1D2866801212046FFF76E
:1037780031FE0028CAD05B232C274FF000080370C5
:10378800A3680133A360E3680133E360002E40F0CF
:10379800DB8002212046FFF71DFE0028B6D05D23FE
:1037A80046700370E368013BE36008E005212046AA
:1037B800FFF710FE0028A9D0934902F085FE0125E5
:1037C80008E006212046FFF705FE00289ED08F4915
:1037D80002F07AFE28460DB0BDE8F08F052120469C
:1037E800FFF7F8FD002891D08949E6E70021D0E9E4
:1037F8000667162206A8059102F0CAF900220023DE
:103808003046CDE90223394632463B4601F066FC94
:1038180088B927F000494FF0FF32304649467D4BC2
:1038280001F05CFCF0B94FF0FF3230464946794B65
:1038380001F036FCB0B9744905A802F045FE04252C
:103848002046691CFFF7C6FD00283FF45FAF02461B
:1038580005AB4619B24258D100234355A068284405
:10386800A060ACE7D8F81450284601F045FB0246A2
:103878000B463046394601F0FFFB48B12A466649F7
:1038880005A802F083FC0546192D3FF63FAFD7E7A0
:1038980032463B46614905A802F078FC6049054676
:1038A80002AA05A802F094FC012827D1DDE902ABA1
:1038B8002BF00048434652464946304601F0E6FBA5
:1038C800002814BF534633463246504601935946A2
:1038D8003B4608BFC84601F0C1F900228246514B59
:1038E80021F00049019841460CF0EAFF02460B46D8
:1038F8005046494601F0D4FB0028C5D132463B4624
:10390800494905A802F042FCBDE713F8011B013242
:1039180002F8011C9EE7006900283FF4F7AE02F0A8
:1039280031FE451C29462046FFF754FD00283FF488
:10393800EDAE2A46D8F8101002F0B4F83FE7006957
:103948000DB0BDE8F04FD9E521463046FFF7D8FE67
:1039580000283FF4DBAE2046FFF730FD3368BBB1EB
:1039680063692046002B14BF4FF002094FF001098C
:1039780009F10101FFF72EFD00283FF4C7AE0770DB
:1039880063693BB9431C83F80080A3684B44A36078
:103998003668FBE6831C4570F5E7CB68B3F57A7F9C
:1039A800BFF4B4AE4B698568002B14BF022601260C
:1039B8002046711CFFF70EFD00283FF4A7AE7B23BD
:1039C8000370E26863690132E2600BB10A23437055
:1039D800A3683A2733440926A360636935BB002BE3
:1039E80000F08480E16801312046FFF7F3FC0028ED
:1039F8003FF48CAE6369002B40F0828003467D2241
:103A08001A7000225A70CDE6CF1D0108991C0108D2
:103A1800941C0108FFFFEF7FD41D0108D71D010882
:103A2800DE1D01080000B03CE21D010873B120460C
:103A3800E168FFF7CFFC00283FF468AE0246E16872
:103A4800131A99424FD8A3680B44A3602146286AE9
:103A5800FFF754FD00283FF459AE2046FFF7AEFCAF
:103A680063692046002B14BF4FF002084FF001088D
:103A78004146FFF7AFFC00283FF448AE0770636982
:103A880003B14670A368214643442846A360FFF764
:103A980037FE00283FF43AAE2046FFF78FFC2B682C
:103AA8006269B3F1000818BF4FF00108002A18BF77
:103AB80008F10108204608F10101FFF78BFC0028F6
:103AC8003FF424AE2B6813B12C2300F8013B636943
:103AD80013B10A2300F8013B00230370A3682D6883
:103AE8004344A36079E702F8016BA8E702217BE76A
:103AF80003F8015BE268191A013A8A42F8D87EE7AE
:103B080003460925F6E770B5234D8AB00E462422F0
:103B18000021044601A802F03BF82B684FF480709E
:103B280098474FF48072034606960AAE01900292B7
:103B380095E8070006E907007BB1204601A9FFF7D1
:103B4800DFFD50B101A8FFF739FCAE6803995EB1FB
:103B580001980131B0470446D0B9019CC4B1204650
:103B68006B689847002413E02B68481C9847044664
:103B78000028F2D0039A029B01329A4228BF1A46C3
:103B8800019901F08FFF039BE6546B6801989847F1
:103B980020460AB070BD00BF40000020024BD3E9A8
:103BA80000031844704700BF5C220020132313B59C
:103BB800054C0093012207232046044902F0E6FA47
:103BC800204602B010BD00BF64220020E91D010894
:103BD80030B50E4B0E490F4A20B9C3E900120E4A00
:103BE8009A6011E00568002D14BF2C460C46456804
:103BF8001C60002D14BF2846104600258C425860D2
:103C08009D6001D19042EAD030BD00BF4000002045
:103C18004155000851550008455C00082DE9F04160
:103C280004460027124E0CB9BDE8F081E368D4F8C9
:103C38000080DA0503D4A06878B9206998B9E368E8
:103C480013F4007504D1206A10B17368984725628F
:103C58002046736898474446E5E7FFF7DFFFE368C7
:103C6800DB05EAD5EBE7736898472761E7E700BF0C
:103C7800400000202DE9F74F06460C4609B9002000
:103C880023E00F68002FFAD08D68D1F8048005F181
:103C98000409C1450BD804228D49781902F0A0FC0B
:103CA80028B90423F360C4F8089001200DE005F159
:103CB800050AD0450CD305228649781902F090FCF4
:103CC80030B90120F060C4F808A003B0BDE8F08F57
:103CD800C1450CD804228049781902F081FC30B91A
:103CE80002230120F3607061C4F80890EDE74545B0
:103CF800C5D27B5D7A19222B06D12146304603B006
:103D0800BDE8F04FFFF749BA2D2B03D0A3F13001DE
:103D1800092959D800200121704D01904744974244
:103D2800814600F101000BD012F8013B452B24D845
:103D38002A2B05D92B3BDBB201FA03F32B42EED138
:103D4800236998470546002899D04FF0000AA368D0
:103D580021684A46194401F0A5FE05F809A028463D
:103D680001A903F02DFC019F8046BD428946D4F885
:103D780014B005D12846D84781E7652BE0D1CEE7B6
:103D8800C6E9068950A3D3E9002301F093F958B195
:103D98006FF0004373610823F360A3687F1B1F441F
:103DA8002846A760D84780E70022404649464C4B42
:103DB80001F076F910B14FF00043EBE74046494671
:103DC80001F0A2F97061E6E75B2B55D1E368B3F522
:103DD8007A7FBFF454AF0133E3607B5D5B2B7FF4E4
:103DE8004EAF01352046A560FFF7C8FAD4E9012394
:103DF800934265D22268D25C5D2A0DD100252F46F8
:103E0800E368013BE36007B17D602023C6E90273E4
:103E1800A3680133A36048E700252F46013BA36050
:103E28002069FFF743FCA8460546002800F0A38058
:103E380007B3C8F80000C0F80480A368204601331F
:103E4800A360FFF79BFA21462846FFF713FF0028D7
:103E580000F094802046FFF791FAD4E901239342B9
:103E680080F08C802268D35C2C2BD9D05D2B40F05D
:103E78008580C5E70746E0E77B2B7FF400AFE36862
:103E8800B3F57A7FBFF4FBAE0133E3607B5D7B2B38
:103E98007FF4F5AE01352046A560FFF76FFAD4E947
:103EA800012393420CD22268D25C7D2A1AD10025C4
:103EB8002F46E368013BE36007B17D604023A5E737
:103EC800013BA360DBE600BF0000C0FFFFFFDF414E
:103ED800CF1D0108991C0108941C0108ED7F0004FE
:103EE8000000E0C100252F46A846013BA3602069D9
:103EF800FFF7DCFBA946054600283CD0002F38D048
:103F0800C9F80000C0F80490A368626801339342BE
:103F180034D22046A360FFF731FA21462846FFF73E
:103F28003CF958B32046FFF729FA2B69C5F81080E9
:103F38002B62D4E90123934220D22268D25C3A2A28
:103F48001CD101332046A360FFF718FA2146284602
:103F5800FFF790FE90B12046FFF710FAD4E901234D
:103F680093420BD22268D35C2C2BC0D07D2B05D179
:103F78009FE70746C8E7002F3FF481AE3846FFF7B2
:103F88004DFE7CE670B514461D460646F8B112A3F0
:103F9800D3E900232046294601F08CF838B16FF0A8
:103FA80000437361C6E906452046294670BD0022D4
:103FB800204629460A4B01F073F810B14FF0004330
:103FC800EFE72046294601F09FF87061EAE70024F0
:103FD800044DE9E7AFF300800000C0FFFFFFDF41B9
:103FE8000000E0C10000F87F2DE9F04305464FF0DE
:103FF800000989B02E4F0C46164600211C2201A844
:10400800984601F0C5FDC7E90099002D46D0002C5F
:1040180039D0284BCDE9015493E8070008AB03E9F0
:104028000700FFF743FB044668B3019870B1039B90
:104038005BB9029B042B06D903221F4902F0D0FA70
:1040480008B90323039301A800E04846FFF796F94F
:1040580001462046FFF70EFE90B1B8F1000F04D1DB
:10406800F6B9204609B0BDE8F08301A8FFF786F944
:10407800DDE90223934203D2019AD35C002BEFD0EF
:104088002046FFF7CBFDDDE902329A420DD303B19A
:10409800013B0EB1EA183260C7E900530024E0E79B
:1040A800019B039A13443360DBE71346F1E700BF33
:1040B8005C22002040000020F21D010870B50D466A
:1040C8001646044648B102F05DFA33462A46411CBA
:1040D8002046BDE87040FFF787BF70BD002211463B
:1040E800FFF7ECBF00231A46FFF77EBF01210AE560
:1040F800002108E5F0B50C468BB0064617460021AE
:10410800242201A801F044FD002C02DA00200BB0A3
:10411800F0BD0E4D20462B68984701900028F5D039
:1041280095E807000023CDE9053703930AAB03E9B7
:104138000700304601A90294FFF7E2FA18B96B6844
:1041480001989847E2E70198E1E700BF40000020A6
:10415800F0B515468BB006460C462422002101A86E
:104168001F4601F015FD002D11DB94B10123CDE9A7
:104178000537094BCDE9014593E807000AAB03E988
:104188000700304601A9FFF7BBFA0BB0F0BD0020CD
:10419800FBE72046F9E700BF4000002010B1836824
:1041A800002003B970471B680130FAE7002901DBDA
:1041B800FFF7FCB8002070470022FFF74CB9012236
:1041C800FFF749B908B5FFF7F7FF003818BF012016
:1041D80008BDFFF77FB90023FFF73EBA0123FFF7B9
:1041E8003BBA10B5044640B10846FFF76BFA0146E2
:1041F8002046BDE81040FFF76DB910BD70B5044604
:104208000D46104654B149B1FFF75CFA29460246FB
:1042180000232046BDE87040FFF71EBA002070BD9D
:1042280010B598B181B183688B4203D04A687AB1DE
:104238000C6814600A686AB14C688B42546000D1FB
:1042480082600023C1E90033084610BD0146FBE740
:104258001146F9E78B42F3D04A685A60F1E7002922
:1042680008B5034607DBFFF7A1F801461846BDE885
:104278000840FFF7D5BF002008BD08B5FFF7EFFFDE
:10428800BDE80840FFF7CABC10B50446FFF794FF25
:1042980001462046BDE81040FFF7C2BF10B50446EE
:1042A800FFF78DFF01462046BDE81040FFF7B8BF75
:1042B80008B5FFF7E9FFBDE80840FFF7AFBC08B550
:1042C800FFF7ECFFBDE80840FFF7A8BC002910B5D0
:1042D800044619DBD2B1FFF769F8034628B920462E
:1042E800BDE810401146FFF7F5B8A168406899424B
:1042F80000D040B1C2E90030012099425A6016BF8F
:104308005368A2601A6010BD0020FCE71046FAE767
:1043180038B518B3836803B30AB311B38A4212D00D
:104328000C684D681460556004B162608B420CD112
:104338004B688B4208BF5260826000230846C1E97F
:104348000033FFF76BFC012008E0506800B1026001
:1043580010680028F1D15A60EFE7184638BD1046BA
:10436800FCE70846FAE7002908B5034607DBFFF72C
:104378001DF801461846BDE80840FFF7C9BF0020F0
:1043880008BD08B5034B1868FFF790F908B1042376
:10439800C36008BD4000002070B505460E46FFF713
:1043A800F0FF00230246044631462846FFF754F939
:1043B800054618B92046FFF731FC2C46204670BD4B
:1043C80008B5044B1868FFF771F908B10223C360F8
:1043D80008BD00BF4000002070B505460E46FFF737
:1043E800EFFF00230246044631462846FFF734F91A
:1043F800054618B92046FFF711FC2C46204670BD2B
:1044080008B5044B1868FFF751F908B10123C360D8
:1044180008BD00BF4000002070B505460E46FFF7F6
:10442800EFFF00230246044631462846FFF714F9F9
:10443800054618B92046FFF7F1FB2C46204670BD0B
:10444800064B10B504461868FFF730F920B1002C68
:1044580014BF02230123C36010BD00BF4000002029
:1044680070B5054610460E46FFF7EAFF00230246E0
:10447800044631462846FFF7EFF8054618B92046A6
:10448800FFF7CCFB2C46204670BD174BD0B506462F
:1044980018680F46FFF70AF9044670B10823C0E907
:1044A8000667C36039460EA3D3E90023304600F0FF
:1044B80001FE20B16FF0004363612046D0BD0022A9
:1044C80030463946094B00F0EBFD10B14FF0004380
:1044D800F2E73046394600F017FE6061EDE700BFAD
:1044E8000000C0FFFFFFDF41400000200000E0C1E6
:1044F80070B505460E4610461946FFF7C6FF00235D
:104508000246044631462846FFF7A6F8054618B97C
:104518002046FFF783FB2C46204670BD38B50A4B72
:1045280005461868FFF7C2F8044658B11023C3605F
:104538002846FFF77BF80546206118B92046FFF7A3
:104548006DFB2C46204638BD4000002070B505465E
:1045580010460E46FFF7E2FF0023024604463146A6
:104568002846FFF779F8054618B92046FFF756FBA5
:104578002C46204670BD064B10B504461868FFF758
:1045880095F818B14FF48873C0E9033410BD00BF23
:1045980040000020054B10B504461868FFF786F860
:1045A80018B14FF4A073C0E9024310BD40000020C9
:1045B800054B10B504461868FFF778F818B14FF4A2
:1045C8009073C0E9024310BD4000002038B50A4B83
:1045D80005461868FFF76AF8044658B18023C36097
:1045E8002846FFF723F80546206118B92046FFF74B
:1045F80015FB2C46204638BD4000002070B5054606
:1046080010460E46FFF7E2FF0023024604463146F5
:104618002846FFF721F8054618B92046FFF7FEFAA5
:104628002C46204670BD08B5034B1868FFF73EF8C6
:1046380008B12023C36008BD4000002070B50546BE
:104648000E46FFF7F0FF002302460446314628468F
:10465800FFF702F8054618B92046FFF7DFFA2C469F
:10466800204670BD08B5044B1868FFF71FF808B15D
:104678004023C36008BD00BF4000002070B5054658
:104688000E46FFF7EFFF0023024604463146284650
:10469800FEF7E2FF054618B92046FFF7BFFA2C4699
:1046A800204670BD2DE9F843B1F10009804603DAD0
:1046B80000242046BDE8F8830028F9D0FFF7B3FFAF
:1046C800002604463746002CF2D0B94504D8A36822
:1046D800002BEED05E60ECE758F8270000F00CFCE9
:1046E800FFF7D3FE054618B92046FFF797FADFE72C
:1046F8001FB9A0602E460137E5E730604660F9E74C
:104708002DE9F843B1F10009804603DA0024204678
:10471800BDE8F8830028F9D0FFF785FF0026044696
:104728003746002CF2D0B94504D8A368002BEED048
:104738005E60ECE758F8270000F0F0FBFFF7A5FEF5
:10474800054618B92046FFF769FADFE71FB9A060E8
:104758002E460137E5E730604660F9E72DE9F84372
:10476800B1F10008064603DA00242046BDE8F883C4
:104778000028F9D0FFF757FF00270446B946083E3E
:10478800002CF1D0C84504D8A368002BEDD05F6099
:10479800EBE7F6E90201FFF778FE054618B920466F
:1047A800FFF73CFAE0E7B9F1000F04D1A0602F460B
:1047B80009F10109E4E738604760F8E72DE9F843B3
:1047C800B1F10009804603DA00242046BDE8F883E9
:1047D8000028F9D0FFF727FF002604463746002CAB
:1047E800F2D0B94504D8A368002BEED05E60ECE7A0
:1047F80058F82700FFF792FE054618B92046FFF73C
:104808000DFAE1E71FB9A0602E460137E7E73060EF
:104818004660F9E72DE9F8430E461746054608B9FC
:10482800002415E0234B1868FEF740FF04460028D3
:10483800F6D0EB6823F48073C3606B694361D5E9F4
:104848000623C0E90623286928B9286A60B9A7B9E8
:104858002046BDE8F883FEF7E9FE20610028F4D180
:104868002046FFF7DBF9DBE7EB689B0501D4FEF791
:10487800DDFE20620028EAD1F2E7AF6842F20F7845
:10488800002506F1010927B9A368002BE0D05D6077
:10489800DEE74645E4D8012249463846FFF7BAFF25
:1048A8000028DDD025B12860456005463F68EAE765
:1048B800A060FAE7400000200A460021FFF7AABFDF
:1048C80010B518B1034602780AB91A7010BD222A29
:1048D8002CD00DD80D2A09D006D8A2F1090101293A
:1048E80004D903F8012B01E0202AFAD10130EAE7C4
:1048F8002F2AF6D142782F2A09D1821C104612F8A5
:10490800011B0029DFD00A291046F7D1DBE72A2A44
:10491800ECD1821C1178104601320029D3D02A2903
:10492800F8D111782F29F5D10230CCE7194601F8D2
:10493800012B421C14780B460CB91046C3E7222CF5
:1049480003F8014B02F10100BDD05C2C05D154786D
:10495800222C02BF4C700246194601320131E9E7A8
:1049680018B1007BB0FA80F04009704718B1007B9D
:10497800431E58425841704718B1007B831E584265
:104988005841704720B1C06810F0030018BF0120DB
:10499800704718B1007B031F58425841704720B137
:1049A800007BA0F1080358425841704708B50246F9
:1049B800FFF7F5FF10B1D2E9060108BD0020014953
:1049C800FBE700BF0000F87F20B1007BA0F11003D7
:1049D80058425841704708B50246FFF7F5FF00B145
:1049E800106908BD20B1007BA0F12003584258414E
:1049F800704720B1007BA0F14003584258417047EE
:104A080020B1007BA0F180035842584170472DE93E
:104A1800F0470E4617460546002800F0A0800029FA
:104A280000F09D80C268CC68544014F0FF0440F048
:104A38009680D3B2202B48DC12F0FC0F06D1013B44
:104A4800012B98BF01242046BDE8F08701204B4A7E
:104A5800191F00FA01F10A40002AF4D0B54200F00B
:104A68008A80102B37D042DC042B00F08480082B7E
:104A7800E9D1D5E90685D6E9069625F0004426F061
:104A8800004A21464A465346404600F01DFB33463D
:104A980000284A462946404612BF47464F465446D4
:104AA80000F0DCF800220646354B21F00045384678
:104AB80021460BF005FF02460B463046294600F01A
:104AC800EFFA041E18BF0124BDE7402B49D0802B04
:104AD800B9D188424FD028690028B4D0316900295B
:104AE800B1D001F013FCB0FA80F46409ABE7202BD5
:104AF800A9D1D5F80880B568B8F1000F0BD0002D02
:104B0800A1D03A4629464046FFF781FF38B3D8F886
:104B180000802D68F0E7B5FA85F4E6E7D8F82010AC
:104B28003A463046FEF797FC014600288BD03A46B5
:104B38004046FFF76CFF90B1D8F8008015E0316A65
:104B48003A462846FEF787FC014600283FF47BAF2B
:104B58003A463046FFF75BFF08B1366809E00024A3
:104B680071E7884207D0D5F80880B8F1000FD5D191
:104B7800B668002EE3D1012465E700BF11100010CC
:104B88000000B03C014B1B68184700BF40000020E4
:104B9800014B5B68184700BF40000020F8B50D4680
:104BA800044610B900252846F8BDC36803F4887385
:104BB800102BF7D10769002FF4D00029F2D008464E
:104BC80001F0E0FC0646384601F0DCFC86420BD8D2
:104BD8002E44B74202D838448542E3D9294638469C
:104BE80001F072FC2569DEE72846FEF71FFD054641
:104BF8000028D7D0206908B1FFF7CAFF2561D2E79E
:104C0800F8B506460D461F461446E2B1D9B1D36839
:104C18009B0503D4106A08B1FFF7BAFF2846FEF7D0
:104C280005FD206278B1E3683A4623F4007329460B
:104C38003046E360FEF70FFC224601463046BDE8E9
:104C4800F840FFF765BB0020F8BD0023D8E7012333
:104C5800D6E700BF81F0004102E000BF83F00043C7
:104C680030B54FEA41044FEA430594EA050F08BFFF
:104C780090EA020F1FBF54EA000C55EA020C7FEAC3
:104C8800645C7FEA655C00F0E2804FEA5454D4EB40
:104C98005555B8BF6D420CDD2C4480EA020281EA0A
:104CA800030382EA000083EA010180EA020281EA42
:104CB8000303362D88BF30BD11F0004F4FEA013194
:104CC8004FF4801C4CEA113102D0404261EB4101A3
:104CD80013F0004F4FEA03334CEA133302D0524229
:104CE80063EB430394EA050F00F0A780A4F10104E5
:104CF800D5F1200E0DDB02FA0EFC22FA05F280181F
:104D080041F1000103FA0EF2801843FA05F3594104
:104D18000EE0A5F120050EF1200E012A03FA0EFC83
:104D280028BF4CF0020C43FA05F3C01851EBE371AD
:104D380001F0004507D54FF0000EDCF1000C7EEBCA
:104D480000006EEB0101B1F5801F1BD3B1F5001F08
:104D58000CD349085FEA30004FEA3C0C04F1010427
:104D68004FEA445212F5800F80F09A80BCF1004F50
:104D780008BF5FEA500C50F1000041EB045141EAD2
:104D8800050130BD5FEA4C0C404141EB0101013C9B
:104D980028BFB1F5801FE9D291F0000F04BF01468A
:104DA8000020B1FA81F308BF2033A3F10B03B3F15C
:104DB80020020CDA0C3208DD02F1140CC2F10C02EC
:104DC80001FA0CF021FA02F10CE002F11402D8BF4A
:104DD800C2F1200C01FA02F120FA0CFCDCBF41EA16
:104DE8000C019040E41AA2BF01EB0451294330BDE5
:104DF8006FEA04041F3C1CDA0C340EDC04F11404C2
:104E0800C4F1200220FA04F001FA02F340EA030098
:104E180021FA04F345EA030130BDC4F10C04C4F1DE
:104E2800200220FA02F001FA04F340EA03002946BE
:104E380030BD21FA04F0294630BD94F0000F83F408
:104E4800801306BF81F480110134013D4EE77FEAEB
:104E5800645C18BF7FEA655C29D094EA050F08BF37
:104E680090EA020F05D054EA000C04BF1946104618
:104E780030BD91EA030F1EBF0021002030BD5FEA5C
:104E8800545C05D14000494128BF41F0004130BD84
:104E980014F580043CBF01F5801130BD01F00045D8
:104EA80045F0FE4141F470014FF0000030BD7FEA4B
:104EB800645C1ABF194610467FEA655C1CBF0B4646
:104EC800024650EA013406BF52EA033591EA030F5D
:104ED80041F4002130BD00BF90F0000F04BF002155
:104EE800704730B54FF4806404F132044FF0000588
:104EF8004FF0000150E700BF90F0000F04BF002101
:104F0800704730B54FF4806404F1320410F0004566
:104F180048BF40424FF000013EE700BF42004FEA61
:104F2800E2014FEA31014FEA02701FBF12F07F43DE
:104F380093F07F4F81F06051704732F07F4208BF95
:104F4800704793F07F4F04BF41F40021704730B59C
:104F58004FF4607401F0004521F000411CE700BFE8
:104F680050EA010208BF704730B54FF000050AE06B
:104F780050EA010208BF704730B511F0004502D56C
:104F8800404261EB41014FF4806404F132045FEA6E
:104F9800915C3FF4D8AE4FF003025FEADC0C18BF17
:104FA80003325FEADC0C18BF033202EBDC02C2F109
:104FB800200300FA03FC20FA02F001FA03FE40EA9B
:104FC8000E0021FA02F11444BDE600BF4FF0FF3C89
:104FD80006E000BF4FF0010C02E000BF4FF0010CEB
:104FE8004DF804CD4FEA410C7FEA6C5C4FEA430C64
:104FF80018BF7FEA6C5C1BD001B050EA410C0CBFB3
:1050080052EA430C91EA030F02BF90EA020F002014
:10501800704710F1000F91EA030F58BF994208BF7B
:1050280090422CBFD8176FEAE37040F00100704738
:105038004FEA410C7FEA6C5C02D150EA013C07D18F
:105048004FEA430C7FEA6C5CD6D152EA033CD3D0DA
:105058005DF8040B704700BF8446104662468C46D4
:105068001946634600E000BF01B5FFF7B7FF002807
:1050780048BF10F1000F01BD4DF808EDFFF7F4FF30
:105088000CBF012000205DF808FB00BF4DF808EDBB
:10509800FFF7EAFF34BF012000205DF808FB00BFDE
:1050A8004DF808EDFFF7E0FF94BF012000205DF800
:1050B80008FB00BF4DF808EDFFF7CEFF94BF0120B5
:1050C80000205DF808FB00BF4DF808EDFFF7C4FFAE
:1050D80034BF012000205DF808FB00BF4FEA410CF7
:1050E8007FEA6C5C02D150EA013C0AD14FEA430CDA
:1050F8007FEA6C5C02D152EA033C02D14FF0000017
:1051080070474FF0010070474FEA410212F5001254
:1051180015D211D56FF47873B3EB625212D94FEAF6
:10512800C12343F0004343EA505311F0004F23FAE0
:1051380002F018BF404270474FF00000704750EA35
:10514800013005D111F0004008BF6FF000407047F2
:105158004FF00000704700BF7BB972B90029BEBF8D
:1051680000204FF0004106E008BF00281CBF6FF088
:1051780000414FF0FF3000F0C1B9ADF1080C6DE906
:1051880004CE002909DB002B1ADB00F04DF8DDF80E
:1051980004E0DDE9022304B07047404261EB4101BD
:1051A800002B1BDB00F040F8DDF804E0DDE902230A
:1051B80004B0404261EB4101524263EB4303704744
:1051C800524263EB430300F02FF8DDF804E0DDE919
:1051D800022304B0404261EB41017047524263EB45
:1051E800430300F021F8DDF804E0DDE9022304B010
:1051F800524263EB4303704753B94AB9002908BFC9
:1052080000281CBF4FF0FF314FF0FF3000F076B997
:10521800ADF1080C6DE904CE00F006F8DDF804E005
:10522800DDE9022304B070472DE9F047089E0D46DA
:1052380004468846002B4DD18A42944668D9B2FA72
:1052480082F252B101FA02F3C2F1200120FA01F10F
:105258000CFA02FC41EA030894404FEA1C41B8FBEF
:10526800F1F71FFA8CFE01FB178807FB0EF0230CE1
:1052780043EA084398420AD91CEB030307F1FF35B8
:1052880080F01E81984240F21B81023F63441B1A42
:10529800B3FBF1F001FB103300FB0EFEA4B244EAAD
:1052A8000344A6450AD91CEB040400F1FF3380F03F
:1052B8000981A64540F20681644402380021A4EB26
:1052C8000E0440EA07401EB10023D440C6E900435B
:1052D800BDE8F0878B4208D9002E00F0EE8000214F
:1052E800C6E900050846BDE8F087B3FA83F100294E
:1052F8004AD1AB4202D3824200F2FC80841A65EBA9
:10530800030301209846002EE2D0C6E90048DFE7F3
:1053180002B9FFDEB2FA82F2002A40F09180A1EBD6
:105328000C0001214FEA1C471FFA8CFEB0FBF7F373
:1053380007FB1300250C45EA00450EFB03F0A842C5
:1053480008D91CEB050503F1FF3802D2A84200F288
:10535800CE8043462D1AB5FBF7F007FB10550EFB20
:1053680000FEA4B244EA0544A64508D91CEB04048F
:1053780000F1FF3502D2A64500F2B6802846A4EB1C
:105388000E0440EA03409EE7C1F120078B4022FA51
:1053980007FC4CEA030C25FA07FA4FEA1C49BAFB4A
:1053A800F9F820FA07F309FB18AA8D401FFA8CFEBA
:1053B8001D4300FA01F308FB0EF02C0C44EA0A44E2
:1053C800A04202FA01F20BD91CEB040408F1FF3ADF
:1053D80080F08880A04240F28580A8F102086444E9
:1053E800241AB4FBF9F009FB104400FB0EFEADB221
:1053F80045EA0444A64508D91CEB040400F1FF352E
:105408006CD2A6456AD90238644440EA0840A0FB39
:105418000295A4EB0E04AC42C846AE4656D353D010
:10542800002E69D0B3EB080264EB0E0422FA01F3F4
:1054380004FA07F71F43CC40C6E90074002147E788
:105448000CFA02FCC2F1200125FA01F34FEA1C47CD
:1054580020FA01F195400D43B3FBF7F107FB113337
:105468001FFA8CFE280C40EA034001FB0EF383422E
:1054780004FA02F408D91CEB000001F1FF382FD21E
:1054880083422DD902396044C01AB0FBF7F307FBF9
:105498001300ADB245EA004503FB0EF0A84208D957
:1054A8001CEB050503F1FF3816D2A84214D9023BBC
:1054B8006544281A43EA014138E73146304607E790
:1054C8002F46E4E61846F9E64B45A9D2B9EB02089F
:1054D80065EB0C0E0138A3E74346EAE7284694E754
:1054E8004146D1E7D0467BE76444023847E7023BB0
:1054F80065442FE7084606E73146E9E6704700BFEE
:10550800002301461A46184604F086BD38B5084BF4
:10551800084D5B1B9C1007D0043B1D44013C55F80B
:1055280004399847002CF9D1BDE838400BF056BF34
:10553800801F01087C1F0108024B0146186800F013
:105548000BB800BF50000020024B0146186805F058
:10555800D1BF00BF500000202DE9F04F01F10B052D
:10556800162D064683B025D8102900F2B88000F021
:1055780061FB102518224FF0020CB74F3A445368CC
:10558800A2F108018B4200F0B7805A68D96822F06E
:1055980003021A449C683046E1608C60516803F14C
:1055A800080441F00101516000F046FB204603B0B9
:1055B800BDE8F08F35F0070500F19180A94200F2AF
:1055C8008E8000F037FBB5F5FC7FC0F090816B0A48
:1055D80000F08C80042B00F26681AB0903F1390CD2
:1055E80003F138044FEACC009B4F3844436808382D
:1055F800984206D10CE0002980F22B81DB689842A2
:1056080006D05A6822F00302511B0F29F3DDA44685
:105618003C69DFF848E274457AD0626822F00302F8
:10562800531B0F2B00F37281002BC7E904EE80F2A5
:105638006381B2F5007F80F015810121D3085209FA
:105648000B4491407A6857F833000A4307EBC301CB
:105658000839A060E1607A6047F83340C4600121EE
:105668004FEAAC039940914259D8114206D12CF027
:10567800030C490011420CF1040CFAD007EBCC09D9
:1056880048466446D0F80C80404508D118E1002B04
:1056980080F21D81D8F80C80404500F01181D8F8BF
:1056A800042022F00302531B0F2BF0DD08EB050149
:1056B80045F00105C8F804503046D8E90264F460A2
:1056C800A66043F00104C7E904114C60C1E902EE89
:1056D80048F8023000F0B0FA08F1080402E00C23A0
:1056E80000243360204603B0BDE8F08F4FF400700B
:1056F8004FF0400C3F2477E7D3689A4208BF0CF17B
:10570800020C7FF442AF3C69DFF850E1744584D164
:1057180001217A684FEAAC0399409142A5D9BC6847
:10572800636823F00308454503D8A8EB05030F2B4E
:105738007FDCDFF82C91D7F80824D9F80030013243
:105748002B4404EB080A00F02B8103F580530F3338
:1057580023F47F6B2BF00F0B5946304600F066FCA4
:10576800411C024600F0EB80824500F2E680D9F841
:10577800041059440B46C9F8041000F04681D7F8C4
:10578800081401311BBFA2EB0A0A5344C7F80824C6
:10579800C9F8043012F0070300F00C81C3F10801C6
:1057A8000A44C3F5805193440831A1EB0B01C1F3BE
:1057B8000B0A514630460192009300F037FC421C18
:1057C800DDE9003200F04781831A03EB0A0BD9F8B0
:1057D80004004BF001030AEB0001BC42BA60C9F8AF
:1057E8000410536000F01D81B8F10F0F40F21B81C7
:1057F8004FF0050C6368A8F10C0020F0070003F0D7
:105808000103034363600F2804EB0003C3E901CCE1
:1058180000F2288114465368D9F82C208A42D9F816
:10582800302038BFC9F82C108A4238BFC9F8301068
:1058380087E0621943F0010345F0010565603046D1
:10584800BA600834536000F0F7F9204603B0BDE8A9
:10585800F08FD9681A449DE680040020880400204F
:1058680074220020B2F5206F4FEA52235FD3142B25
:1058780000F2B28003F15C01C9005B3378187958F3
:105888000838884200F08F804B6823F00303934266
:1058980002D989688842F7D1C8687A68C4E90210D1
:1058A8008460CC60DBE6142B59D9542B00F29C8021
:1058B8002B0B03F16F0C03F16E044FEACC0093E657
:1058C8000134A30700F108007FF4DCAE53E044463E
:1058D80042445368D8F80C1043F00103536054F85D
:1058E800083F3046D9608B6000F0A6F9FAE64FEA27
:1058F800D50C05F1080240E622445368304643F0CF
:105908000103536000F098F90834EBE6611945F09B
:105918000105656043F00105C7E904113046C1E996
:1059280002EE4D60A35000F087F90834DAE69309D7
:1059380003F13901C9003833A0E7BC425FD0BC6825
:10594800636823F0030B5D45ABEB050302D80F2B0F
:105958003FF76FAF304600F06FF90024C2E603F15D
:105968005C0C03F15B044FEACC003DE659F80839BA
:105978004B4540F095801CF0030F0CF1FF3CF5D12E
:105988007B6823EA01037B60490099423FF6C7AE72
:1059980011B9C4E6490004341942FBD0A4466DE6A7
:1059A80003F1100BD8E601229B109A407B681A433A
:1059B8007A6073E702EB0B014942C1F30B0A5146C7
:1059C80030460193009200F031FB431CDDE90023CF
:1059D8007FF4FAAE9A46FAE6542B27D8130B03F154
:1059E8006F01C9006E3349E7B3F5AA7F27D8EB0BDF
:1059F80003F1780C03F177044FEACC00F4E5D9F809
:105A080004305B44C9F80430B9E6CAF30B00002837
:105A18007FF4B5AEBC6808EB0B0343F00103636089
:105A2800FAE61446F8E60123536093E7B3F5AA7F34
:105A380022D8D30B03F17801C90077331EE740F26F
:105A48005452934222D8AB0C03F17D0C03F17C0431
:105A58004FEACC00C8E5083B9B444FF0000AABEB8B
:105A6800020BB4E604F10801304605F043FDBC68BA
:105A7800D9F804106368CFE640F254518B420BD832
:105A8800930C03F17D01C9007C33F7E64FF47E7077
:105A98004FF07F0C7E24A7E54FF47E717E23EDE660
:105AA8007B6871E7844641EA000313F0030349D198
:105AB800403A23D30B6803604B6843608B6883606C
:105AC800CB68C3600B6903614B6943618B69836170
