:020000040800F2
:100000000000012079C10008BDC10008BDC1000881
:10001000BDC10008BDC10008BDC10008000000004E
:10002000000000000000000000000000BDC100084A
:10003000BDC1000800000000BDC10008BDC100082E
:10004000BDC10008BDC10008BDC10008BDC1000898
:10005000BDC10008BDC10008BDC10008BDC1000888
:10006000B1220008BDC10008BDC10008BDC1000823
:10007000BDC10008BDC10008BDC10008BDC1000868
:10008000BDC10008BDC10008BDC10008BDC1000858
:10009000BDC10008BDC10008BDC10008BDC1000848
:1000A000BDC10008BDC10008BDC10008BDC1000838
:1000B000BDC10008BDC10008BDC10008BDC1000828
:1000C000BDC10008BDC10008BDC10008BDC1000818
:1000D000BDC1000851260008BDC10008BDC100080F
:1000E000BDC10008BDC10008BDC10008BDC10008F8
:1000F000BDC10008BDC10008BDC10008BDC10008E8
:10010000BDC10008BDC10008BDC10008BDC10008D7
:10011000BDC10008BDC10008BDC10008BDC10008C7
:10012000BDC10008BDC10008BDC10008BDC10008B7
:1001300000000000000000000000000000000000BF
:1001400000000000000000000000000000000000AF
:10015000000000000000000000000000000000009F
:10016000000000000000000000000000000000008F
:10017000000000000000000000000000000000007F
:10018000000000000000000000000000000000006F
:10019000000000000000000000000000000000005F
:1001A000000000000000000000000000000000004F
:1001B000000000000000000000000000000000003F
:1001C000000000000000000000000000000000002F
:1001D000000000000000000000000000000000001F
:0401E0005FF8E0F1F3
:1001E8000348044B834202D0034B03B118477047BE
:1001F80020020020200200200000000005480649D7
:100208000B1AD90F01EBA301491002D0034B03B11C
:10021800184770472002002020020020000000003C
:1002280010B5064C237843B9FFF7DAFF044B13B136
:100238000448AFF300800123237010BD2002002082
:1002480000000000C0C1000808B5044B1BB10449F8
:100258000448AFF30080BDE80840CFE70000000085
:1002680024020020C0C10008044B02680A4201D0E1
:1002780000207047013BF8D101207047A18601009A
:10028800184B9A6942F008029A61DA6942F48002CE
:10029800DA61A3F582335A6822F47F425A605A68B9
:1002A80042F47F425A604FF440621A61A3F5344326
:1002B8001A6842F400421A601A6822F400421A606E
:1002C80024225A60B422DA6125221A621A6842F09E
:1002D80001021A601A6842F480621A60024A1360C6
:1002E800704700BF001002400000002038B50546E6
:1002F800154B1C68154BA26992071CD4204623682D
:10030800012143F4807340F8143BFFF7ADFFA0B917
:1003180040F202420D4B2561616911420FD06369B9
:100328005B050FD5636923F480636361236843F435
:100338000073236001E0013BDDD1012038BD013BA2
:10034800EAD1FAE7A369F9E700000020A1860100D5
:100358000A4B70B51E68044606F11405802128462C
:10036800FFF782FF40B9042128463461FFF77CFF7C
:10037800003818BF012070BD0120FCE700000020F4
:10038800084B10B51C6840212046236843F480635D
:1003980040F8143BFFF768FF10B92069C0B210BDE0
:1003A8000020FCE7000000200A4B10B51C68402123
:1003B8002046236823F480632360236843F4007392
:1003C80040F8143BFFF750FF10B92069C0B210BDC8
:1003D8000020FCE700000020054B1B681A6842F467
:1003E80000721A601A6842F480621A60704700BF8F
:1003F800000000202DE9F04F054685B0002800F0E8
:10040800E0800027FF224FF00308DFF8D0B1744ED8
:100418008BF8007032717271B2718BF801708BF8C1
:1004280002708BF803708BF804708BF80570F2710A
:100438008BF806708BF80770CBF80870ABF80C7067
:100448004FF00009674A32605FFA89F404F1500AF4
:100458006400603CE4B220465FFA8AFAFFF746FF80
:10046800002836D0FFF7B8FF09F10109B9F1080FE4
:10047800EAD15C4A116841F400711160039703994D
:10048800B1F5FA5FC0F0A480116808F1FF3841F4B3
:1004980000411160116818F0FF0821F40041116053
:1004A8004FF0240151604FF0B401D1614FF02501A4
:1004B8001162116841F001011160116841F4806115
:1004C8001160BDD11368326043F480634046136005
:1004D80077E09BF800209BF8011001328BF8002090
:1004E8009BF80220FA2001328BF80220B279FF2A09
:1004F8004FF0010202FA09F242EA010208BF86F847
:1005080006A08BF80120FFF723FF0028AAD19BF84B
:10051800032044F00104013220468BF80320FFF742
:10052800E5FE30B12046FFF757FFFFF7DFFE002852
:1005380098D19BF804206C1E01328BF804202246C7
:10054800291DCDE90021FFF71BFF009A019902F848
:10055800010F8A42F5D1FFF727FF2A68224B6871FD
:100568001A60AA8886F807A09A800122104605F129
:10057800050C14F8011F39B3FF294FF0000000D013
:1005880002466445F5D108BB1AB92878C04300F083
:10059800010001228BF807209BF805201149013240
:1005A8008BF805208BF80600FFF716FF0A6842F45F
:1005B80080620A6000283FF457AF022386F805A03E
:1005C800337105B0BDE8F08F0A46DAE70020E0E7AE
:1005D80000BF03990131039151E700BF3C0200209D
:1005E800000000200058004044020020074B1A7900
:1005F800FF2A08D05B79FF2B05D000B1027001B14A
:100608000B70012070470020704700BF00000020D9
:1006180010B5074C237800B1037011B105488079F3
:1006280008700AB161781170181E18BF012010BD3A
:100638003C0200200000002030B5084C0346E07959
:1006480058B11BB1A5681D60A5899D8011B1044BE7
:10065800DB790B700AB1A379137030BD3C0200201E
:100668000000002010B510B1074CA478047011B137
:100678000548C078087012B103490979117013B19F
:10068800014A52791A7010BD3C020020002242F241
:10069800273182B0013801D202B070470192019B24
:1006A8008B42F7D800BF019B01330193F7E741F272
:1006B8008833002818BF0346014A1380704700BFDB
:1006C8000800002030B504460D4687B0684603F0A0
:1006D800EFFA237868468DF8063063788DF807308E
:1006E800A3788DF80830E378114C8DF8093003F0C1
:1006F800B5FA2846FFF7DBFF2078400100F5427085
:1007080002F03CFE172801D01C2802D1207802F004
:100718005FFB207802F040F9064A00230121128885
:10072800207802F06FF9207802F01AFB07B030BD8C
:100738004A020020080000202DE9F041714C0746CC
:100748002078B4B0400100F5027002F017FE23785B
:1007580000F01F015B0103F5027002F03DFE01216C
:100768004FF4B85002F038FE2078DFF89C81400141
:1007780000F5427002F002FE98F802200646824216
:1007880018D01C2A96BF614B614B53F822301C28A5
:1007980096BF5E495E4951F820100092CDE90110DC
:1007A8005C4A602104A805F00FFF04A801F05CFF73
:1007B80088F80260002E79D0A6F11303DAB2092A6C
:1007C80000F29A80092B00F29780DFE803F0799510
:1007D8009595059595959505207802F0C4FE0546F2
:1007E800002841D040F2FF70854228BF0546ADB2CF
:1007F8002A464949207802F0E1FB20781F21400170
:1008080000F5027002F0E8FD635D652B03D1013D40
:10081800ADB2002D3ED029463F4800F0FBFB002832
:1008280054D0C02329463C4804AA00F011FC3B4898
:1008380001F01AFF172E07D104A806F021F904A920
:1008480082B2207802F00AFB207802F0C1FA207800
:1008580002F0A2F800230121B8F80020207802F065
:10086800D1F8207802F07CFA1C2E45D12C4801F0F2
:10087800FBFE207802F0ACFA207802F08DF8002315
:100888000121B8F80020207802F0BCF8207802F0A6
:1008980067FA31E02946204800F040F9214801F084
:1008A800E3FE172EE0D102221F4922E03346012140
:1008B800B8F80020207834B0BDE8F04102F0A2B8C2
:1008C800207834B0BDE8F04102F04ABA63787B2B57
:1008D800E0D120232946104804AA00F0F7F913486C
:1008E80001F0C2FE172EBFD104A806F0C9F804A96A
:1008F80082B2207802F0B2FA00233B7034B0BDE82F
:10090800F08100BF4A02002008000020D8C100087A
:100918005CC9000867C900084B0200208FC900089D
:10092800CDC90008BBC90008CAC90008A5C9000884
:1009380038B501250B4A0C4C9369322043F0040367
:100948009361236823F00F032360236843F00303B4
:1009580023606561FFF79AFE25616420BDE8384091
:1009680094E600BF001002400008014008B507499E
:10097800074802F005FF0749074802F03FFFBDE8B6
:1009880008400649064802F04FBF00BFC1230008CF
:10099800B1230008D1230008D3230008D723000877
:1009A800ED2300080D4A08B5936943F010039361DD
:1009B80001220B4B1A611A6822F00F021A601A689A
:1009C80042F001021A6001F019FDBDE8084000225A
:1009D8004FF6FF71712001F071BD00BF0010024099
:1009E8000010014008B543780F2B05D840334188E3
:1009F8000022D8B201F062FD042008BD30B5857828
:100A080095B06C0003348C4200F103001BD82946D2
:100A180001F0E0F800282B460CDA50210B4A684612
:100A280005F0D2FD684601F01FFE01F0D2F820461D
:100A380015B030BD50216846054A05F0C5FD684629
:100A480001F012FEF3E74FF0FF30F1E76ECB00083C
:100A580093CB000810B5044690B0407801F036F901
:100A68003C216378044A01A805F0AEFD01A801F015
:100A7800FBFD022010B010BDB3CB000870B5D0F854
:100A88000130B4B00693B0F80530032207931F4B2A
:100A980006A904461E48089300F0DEFE0023032240
:100AA8001B4809A9CDE909330B9300F0A1FE099869
:100AB800069B0A9D9842079A0B9E089903D1954276
:100AC80001D18E420CD0CDE901100092A021CDE9D0
:100AD8000356104A0CA805F077FD0CA801F0C4FDD8
:100AE800B4F80530A021039323790B4A0293E378E5
:100AF8000CA80193A3780093637805F065FD0CA812
:100B080001F0B2FD072034B070BD00BF4354454E1C
:100B180000700008D0CB000826CC000870B5064647
:100B28000D460024AC4201D3012070BD335D30195D
:100B3800652BF9D0012B07D12B1B9BB2032BF3D9C3
:100B4800FFF750FF04440AE00B2B0AD1291B89B296
:100B58000229E9D9FFF752FF031EE5DD1C44A4B2C0
:100B6800E0E7092B06D12B1B9BB2012BDCD0FFF74A
:100B780071FFE7E70A2BD7D12B1B9BB2062BD3D9E2
:100B8800FFF77CFFDEE700BF2DE9F04F8A460546F8
:100B9800ABB0B8B14C000F2CA8BF0F2420212246BF
:100BA80006A805F0A3FB04F1A8030DEB030400233A
:100BB8004FF0000804F8903CDFF8F0B0AC68DFF8BC
:100BC800F09014B92BB0BDE8F08F256A394B204658
:100BD800002D08BF1D4604F033FD48B12369CDE957
:100BE80000538021344A06AB0AA805F0EDFC25E045
:100BF800204604F010FD30B3D4E906673946304684
:100C080005F0BEF8059004F0B3FF02460B463046E7
:100C1800394604F05FFE42464B460AF089FD05F06E
:100C2800AFF8059B0028B8BF4042CDE900530290B9
:100C38008021224A06AB0AA805F0C6FC0AA801F0E2
:100C480013FD2468BDE7204604F0D8FC40B12046D7
:100C580004F0CEFC1A4B1B4A002808BF1346BEE717
:100C6800204604F002FD78B18021174A009506ABB2
:100C78000AA805F0A9FC0AA801F0F6FC20460AF12A
:100C88000101FFF781FFDCE7204604F0E7FC0028BC
:100C9800D7D0204604F0BEF85A46CDE9005080214E
:100CA80006AB0AA805F090FCE5E700BFA9CC000850
:100CB8000000594050CC000860CC000877CC0008F0
:100CC80055CC00085ACC000893CC00082DE9F04F09
:100CD80016460546A9B0A6480C461F4601F0C4FCB6
:100CE8002EB127B139463046A24A05F06DFC3DB316
:100CF80034B3284605462B7801307B2B26D14FF09C
:100D08000008234680219C4A05F8048008A805F0BD
:100D18005BFC08A801F0A8FC284604F01BF805466F
:100D2800D0B903F077FD954B8021002818BF034602
:100D3800934A08A805F048FC08A801F095FC14E0BF
:100D4800904829B0BDE8F04F01F08EBC013CA4B238
:100D5800002CCFD18C48F4E704F087FC40B98B48CD
:100D680001F082FC284603F095FD29B0BDE8F08F1C
:100D780041462846FFF708FF2846854904F05BF8F6
:100D8800044600287CD004F05BFC002864D0D4F82A
:100D98001080B8F1000F5FD040467E4905F034FD61
:100DA80028B140467C4905F02FFD00284ED100208F
:100DB80000F08CFF794801F057FC4FF001087849A2
:100DC800284604F038F877498146284604F033F875
:100DD8000446B9F1000F40F00E81D0B1204604F06E
:100DE8001AFC28B1D4E9060104F0CAFF012849D049
:100DF800204604F025FC38B1206928B16A4905F07D
:100E080003FD044600283ED0684801F02DFC4FF051
:100E1800FF342846664904F00EF88146002851D16F
:100E28000023B8F1FF3F9DD0611C9BD05A1C99D07C
:100E380044EA0804234395D0002E93D0002F91D084
:100E4800394630465B4A05F0BFFB8BE75A4801F04C
:100E58000BFC4FF0FF38B2E7204604F0DCFB68B12A
:100E6800D4E9060104F08CFF431E032B04D8C0B25A
:100E780000F02CFF51489EE75148E8E75148E6E763
:100E880080469CE70446B9F1000F40F0B780204641
:100E980000F06AFD4C4801F0E7FB0124B9E7D9E905
:100EA800060104F06DFFB0F5806F814601D3474815
:100EB800ABE7204600F058FD1FFA89F000F03CFD32
:100EC8004348E8E704F0D1FB28B9424801F0CCFBDD
:100ED8004FF0FF33A5E74FF0000AD9F808900DF15D
:100EE8000C0B5FFA8AF1B9F1000F02D1002997D0F3
:100EF80006E0BAF1090F0AD1374801F0B5FB5146AF
:100F080003A800F067FE002870D03448DEE7D9F85F
:100F180020200AB93248D9E7484604F07CFB00286B
:100F2800F8D00A2202A9D9F8200006F0E7FF0299B2
:100F38000246D9F82000884203D0097809B9FF2A67
:100F480001D92848C2E7D9E90601019204F018FF3F
:100F5800FF28019A0AF1010A0BF1020B01D9224874
:100F6800B4E70BF8022C0BF8010CD9F80090B8E79D
:100F7800CECC0008E4CC0008A2CF0008C6CC0008FC
:100F880063CF0008F4CC000882CF000812CD000817
:100F9800DDD4000836CD0008ECD400083BCD0008AD
:100FA80065D40008C8CD0008CFCD0008D1CD000811
:100FB800ADD400085ECF00084BCD000874CD000802
:100FC80084CD0008AACD0008F8CD000835CE000869
:100FD80056CE000869CE000897CE000812CF000848
:100FE800BCCE0008D9CE0008F3CE0008074801F0AF
:100FF8003BFB012315E700287FF4F0AE484604F0D8
:101008000AFB00287FF44BAF0148FEE644CF0008F6
:101018000ACE00082DE9F0410E46044688B10025A5
:101028000A4F57F8048B404605F02AFD86420246CF
:1010380004D34146204605F0AFF828B10135072D05
:10104800EFD10020BDE8F0810120FBE764C2000871
:1010580070B58AB015461E4602AA2023FFF736FE51
:1010680002220A4902A805F039FD094C094B00285B
:1010780018BF1C46204605F003FD31460346064AC4
:101088002846009405F0A0FA0AB070BDCAC9000845
:10109800B3CF0008C3CF0008DECF0008002208B590
:1010A800054B06481A809A7001F0DEFABDE8084040
:1010B800034801F0D9BA00BF4C0A002080C20008DA
:1010C80069D0000810B4174B997851B90D2801D090
:1010D8000A2808D100211A8892B21A44D170012234
:1010E8009A7010BC7047082801D07F280BD11A8845
:1010F80092B2002AF5D01A880B48013A92B210BC75
:101108001A8001F0B1BA198889B23E29E9D819883C
:1011180089B24C1CA4B21C800B44D87010BC01F0DE
:101128002BBA00BF4C0A00206ED000082DE9F04F02
:101138002D4C8BB0A378002B52D0002202A88046F9
:101148001746E31C197896B2A1B1082A2CD01D784D
:101158001946202D03F10103F9D05DB140F8041BB5
:101168000D780B4601311DB1202DF9D11F700B46AA
:101178000132E7E74EB300254FF00C0B1B4B029FE3
:101188001B68DFF86C900193019B9D420ED11948B2
:1011980001F06AFA029801F067FA174801F064FA58
:1011A800164801F061FA10E01646E4E70BFB05F378
:1011B800384653F8091003EB090A05F025FB68B90E
:1011C80041463046DAF80430984700230C4823801B
:1011D800A3700BB0BDE8F04F01F046BA0135D3E774
:1011E8000BB0BDE8F08F00BF4C0A00204CC50008CA
:1011F800ECC4000872D00008B8C9000885D00008FF
:1012080069D000084FF6FE730139994214D8C3B269
:101218005A1ED2B2DE2A0FD8C0F30722FF2A0BD0FB
:10122800C0F30742FF2A07D0000EFF2804D0B3F10D
:101238007F0018BF012070470020704708B502489A
:1012480001F012FA002008BDB4D000082DE9F041E1
:10125800104801F009FA08240F4DDFF84080104FBC
:10126800104E404601F000FA286801F0FDF93846B2
:1012780001F0FAF9A8680C35002808BF304601F0DB
:10128800F3F9094801F0F0F9013CEAD12046BDE83C
:10129800F08100BFBDD00008ECC40008D5D000081C
:1012A800D8D0000871D00008B8C90008022873B562
:1012B8000D4607D0144801F0D7F94FF0FF34204607
:1012C80002B070BD4E681149304605F09DFA0446DB
:1012D80028B900F0FBFC0E4801F0C6F9EFE70A2236
:1012E800304601A906F00AFE019B6A689A4203D0BB
:1012F8001C780CB9FF2801D90648DCE7C0B200F019
:10130800E5FC0548E8E700BFDCD00008ECD400089D
:10131800F5D0000806D1000817D100082DE9F047DC
:1013280001280E4686B008DC204801F09DF94FF0F0
:10133800FF34204606B0BDE8F08702ADA846013864
:10134800C4B205EB44094D4507D12146404600F09B
:1013580041FC044628B31648E7E756F804AF0A22CA
:10136800504601A906F0CAFD07460198504501D12B
:101378001048DAE703782C2BFAD10A2201A90130A8
:1013880006F0BCFD019B1B78002BF1D1FF2FEFD895
:10139800FF2805F10205EBD805F8027C05F8010CD9
:1013A800D1E7054801F060F9C3E700BF28D100087C
:1013B8007BD1000857D10008AED10008022810B52B
:1013C80005D00E4801F050F94FF0FF300CE04C68A2
:1013D8000B49204605F018FA38B9012000F0D4FA74
:1013E800084801F041F9002010BD2046064905F0E3
:1013F8000BFA0028F2D00548E4E700BFC9D100087D
:10140800E4D100080ED20008E7D10008EBD10008AB
:10141800032837B50C4606D0184801F025F94FF0D7
:10142800FF3003B030BD0A22606801A906F066FDEE
:10143800019B626805469A4204D01B7813B9B0F53F
:10144800803F01D30E48E8E70A22A06801A906F008
:1014580055FD019BA2689A4203D01C780CB901285B
:1014680001D90848D9E7C0B200F07EFAA8B200F066
:1014780063FA054801F0F8F82046D2E720D20008C0
:1014880047D2000859D200087BD20008002330B5A3
:10149800A9B003221A4805A9CDE90533079300F03E
:1014A800A7F9184B079A9A421CD1DDE90545294648
:1014B8002046FFF7A7FEA8B16021230E0293C4F3CC
:1014C8000743ADB20193104AC4F307230093039571
:1014D800E3B208A805F078F808A801F0C5F80020DC
:1014E80029B030BD322341F288320121CDE90232E0
:1014F800A823064ACDE90031C0238021E9E700BFCF
:10150800007000084354454EC4D200088FD200082A
:1015180037B504460A220D46006801A906F0EEFC1C
:10152800019B22689A420AD0FF2808D81A782E2AE6
:1015380005D1287000200133236003B030BD4FF07F
:10154800FF30FAE7002370B50328B6B00E46CDE9A0
:101558000B330D9307D0404801F086F84FF0FF3465
:10156800204636B070BD4B6806A805A90693FFF75C
:10157800CFFF08B13948EFE70DF1150106A8FFF7CD
:10158800C7FF0028F6D10DF1160106A8FFF7C0FF26
:1015980004460028EED10A22069807A906F0AEFCF8
:1015A800DDE90623934203D01B780BB9FF2801D944
:1015B8002B48D1E70A228DF8170007A9B06806F072
:1015C8009DFC079BB26805469A4206D01B7823B952
:1015D8004FF6FE73421E9A4201D92248BCE7059E87
:1015E80001463046FFF70EFE08B91F48B4E71F4B07
:1015F80003221F4808A90A93CDE9086500F02CF9D1
:1016080003221B480BA900F0F3F80B9A089B9A4297
:1016180007D10C9A099B9A4203D10D9A0A9B9A42C8
:1016280001D0144898E7A9B205A8FFF74BF89DF830
:101638001730A02102939DF816300F4A01939DF8A8
:101648001530039500930EA89DF8143004F0BCFFE4
:101658000EA801F009F883E7EAD2000808D30008C9
:1016680006D3000824D3000833D300084354454E5A
:10167800007000087CD3000894D300082E4B82B079
:101688001A6842F480321A601A689103FCD52B4A12
:10169800116841F010011160116821F00701116013
:1016A800116841F0040111605A6822F47F5222F057
:1016B80030025A605A685A605A6842F480625A6026
:1016C8005A685A605A6822F47C125A605A6842F47E
:1016D80080325A605A6842F4E0125A601A6842F03E
:1016E80080721A601A689201FCD55A6822F00302C7
:1016F8005A605A6842F002025A605A6802F00C02B4
:10170800082AFAD100230E4A0093009B93420ADD6F
:1017180000230B4A0193019B934208DD094B0A4AB7
:101728001A6002B07047009B01330093EDE7019BFC
:1017380001330193EFE700BF001002400020024090
:10174800FF083D000C00002000A24A04084AD369A3
:1017580043F00103D3614FF080431A6822F001027D
:101768001A6047229A621A6842F008021A607047A3
:1017780000100240012810D94FF0804300220138A0
:10178800D8625A621A6922F001021A611A6842F094
:1017980001021A601A69D207FCD57047114B30B59F
:1017A800DA69044642F0C052DA610F4A116841F41E
:1017B800807111600D4948685D6A05F07C45B5F196
:1017C800006F0AD100204860116821F4807111600F
:1017D8005A6A42F080725A6230BD012CF2D0013050
:1017E80080B2F0E70010024000700040006C00403A
:1017F80001EB8202401A914200D17047435841F8E8
:10180800043BF8E7124B1A69120641BF114A5A60A5
:1018180002F188325A60DA68D107FCD4DA6842F0FB
:101828003402DA601A6942F002021A6158611A69D0
:1018380042F040021A61064BDA68D207FCD4DA6833
:1018480042F03402DA601A6922F002021A61704723
:101858000020024023016745F8B52A4C0E4623694B
:101868001546190641BF284B636003F1883363604E
:10187800FFF7C8FFE36843F03403E3600024214B1B
:10188800AC4219D056F824101A698FB242F00102FE
:101898001A61090C0780DA68D207FCD4DA6897065F
:1018A80042BFDA6842F02002DA601A6922F00102C7
:1018B8001A61DA68520705D5124A136943F08003A2
:1018C8001361F8BDDA68D706F6D41A6942F0010246
:1018D8001A614180DA68D207FCD4DA68970642BFF9
:1018E800DA6842F02002DA601A6922F001021A610D
:1018F800DA685107E0D4DA68D206DDD4043001345E
:10190800BEE700BF002002402301674538B5002428
:10191800084DE0B2002235F8021B013400F0CEFD7C
:101928000E2CF6D10022BDE8384011467C2000F08C
:10193800C5BD00BF900A002008B50023094A40FA37
:1019480003F111F0010F14BF4FF440414FF400416F
:1019580001330A2B22F8021BF1D1FFF7D7FF002031
:1019680008BD00BF900A0020002814BF4FF4404271
:101978004FF4004208B5034B9A82FFF7C7FF0020D7
:1019880008BD00BF900A00204FF40042002814BF91
:101998004FF44041114608B5034BD9821A835A8344
:1019A800FFF7B4FF002008BD900A002010F0010FD7
:1019B80014BF04224FF480221B4B81071A614CBFCD
:1019C80010224FF480121A6142074CBF20224FF4B4
:1019D800001201071A614CBF40224FF480021A61BD
:1019E800C2064CBF80224FF4000210F0200F1A618B
:1019F80014BF10224FF480120C4B41061A614CBFE1
:101A080020224FF4001210F0800F1A6114BF012237
:101A18004FF48032064B1A61C2054CBF02224FF4C4
:101A280000321A61704700BF0008014000100140F1
:101A3800000C014030B595B002460B490446684693
:101A480004F022FE684600F00FFE0223074D2046F0
:101A58002B61FFF7ABFF3220FFF78CFE4FF400330A
:101A680000202B6115B030BDF1D4000800080140FA
:101A780030B595B002460B490446684604F004FEAA
:101A8800684600F0F1FD0823074D20462B61FFF75B
:101A98008DFF3220FFF76EFE4FF4002300202B61EC
:101AA80015B030BD20D500080010014030B595B004
:101AB80002460B490446684604F0E6FD684600F015
:101AC800D3FD0423074D20462B61FFF76FFF32201B
:101AD800FFF750FE4FF4802300202B6115B030BD76
:101AE8004FD500080010014030B595B002460B49AB
:101AF8000446684604F0C8FD684600F0B5FD0223B8
:101B0800074D20462B61FFF751FF3220FFF732FEC9
:101B18004FF4003300202B6115B030BD7ED500088E
:101B280000100140F0B500250B4E0C4F95B0841EF7
:101B38002A4634F8023F3946684604F0A5FD68464F
:101B480000F092FD013556F8043B20889847042D93
:101B5800EED115B0F0BD00BF50C50008ADD50008E6
:101B6800154A936943F01C039361144B144A19688E
:101B7800A3F500630A40C3F80028D3F80018114AF7
:101B88000A43C3F800281A6822F47F621204120C70
:101B98001A6019680C4A0A431A60D3F8002422F024
:101BA800FF02C3F80024D3F8002442F03302C3F83C
:101BB8000024FFF7CBBD00BF001002400010014019
:101BC8000F0000FF303333003003333300B1A9E78F
:101BD8007047704700232DE9F043092999B006465C
:101BE8000C46CDE9023316D879B38EB1002501270A
:101BF800DFF8649006F1010816F8152018F815109A
:101C0800013AD2B2032A03D84B1ED8B2082804D905
:101C18004FF0FF301DE00924E7E718A800EB420069
:101C280030F858CC07FA03F343EA0C039BB220F8C8
:101C3800583C009104A8494604F026FD013504A843
:101C480000F012FDEBB29C42D6D802A8FFF76AFF5B
:101C5800002019B0BDE8F083DFD50008184A936961
:101C680043F014039361A2F58032536823F0F00324
:101C78005360536843F030035360124B596821F0A6
:101C88000F015960596841F003015960596821F4FE
:101C980070415960596841F440515960596821F4BC
:101CA80070215960596841F4403159604FF0007112
:101CB80011614FF0C8521A610022034B1A70704725
:101CC8000010024000080140AC0A00204FF00073E9
:101CD800104910B50B614FF0C85300240E4A012873
:101CE80013610E4B1C7004D14FF400720A61187016
:101CF80010BD022803D14FF480711161F7E7032862
:101D080002D14FF40061F8E70428F1D14FF4805173
:101D1800F3E700BF0010014000080140AC0A0020B2
:101D2800014B1878704700BFAC0A00200346002812
:101D3800B8BF00F11F035B1151F8233043FA00F0DC
:101D480000F001007047034600200BB920207047BF
:101D5800DA07FCD45B080130F7E7034600200A469F
:101D6800014653EA020C02D140200021704713F0CB
:101D7800010FFBD15B08013043EAC27341F1000156
:101D88005208EEE703460022202003B9704713F0FB
:101D9800010F18BF10465B080132F6E730B50C4654
:101DA800002103460A4640200D4653EA040C00D1A0
:101DB80030BD13F0010F1CBF294610465B080132E5
:101DC80043EAC47345F100056408EEE70B6870B593
:101DD8001B1A064601250020002BB8BF5B4295421E
:101DE80000D370BD51F82540A41B002CB8BF644235
:101DF8009C42BCBF284623460135F0E710B504468F
:101E0800FFF7A1FF01FA00F0204010BDF8B5154614
:101E180007460E461C46FFF7A0FFA0F1200105FA71
:101E280001F1C0F1200284400C4325FA02F2144368
:101E380005FA00F0384004EA0601F8BD08B501408B
:101E4800FFF781FF21FA00F008BD08B50146FFF74A
:101E58007AFF21FA00F008BD38B50D460446FFF7B1
:101E68007CFF0246C0F1200105FA01F1A2F1200031
:101E7800D4400C4325FA00F0204325FA02F138BD7E
:101E8800FFF780BF034600B121B98B4238BF0B462C
:101E980018467047B3FBF1F2084601FB12310346BE
:101EA8000029F7D17047F8B550EA010402D052EA88
:101EB80003040AD10C46904274EB0301054601D293
:101EC80015461C4628462146F8BD15461C4603F013
:101ED800CFFF16461E4328462146F6D1F2E738B50D
:101EE8000D46044628B131B1FFF7CCFFB4FBF0F43E
:101EF8006C43204638BD0C46FBE72DE9F843044601
:101F0800DDE908670D4690469946FFF7BBFFB4FB2D
:101F1800F0F4B5FBF0F0346038603368434501D81D
:101F2800484502D9002333603B60BDE8F8832DE9BA
:101F3800F74F9146DDE91045DDE90E769846834670
:101F48008A46FFF7B0FF02460B46CDE90010584617
:101F5800514603F08DFFDDE90032C4E9000148462F
:101F6800414603F085FFC5E900010C9B22689342B6
:101F78000D9A636872EB030303D3874276EB010380
:101F880005D200220023C4E90023C5E9002303B0D9
:101F9800BDE8F08F0346002003B97047DA0748BF51
:101FA80001305B08F8E710B50146000AFFF7F2FFB9
:101FB8000446C8B2FFF7EEFF204410BD38B504460A
:101FC800000CFFF7F0FF0546A0B2FFF7ECFF28442E
:101FD80038BD10B5044603C803F04AFFC4E9000140
:101FE8001046194610BD10B503F042FF029CC4E923
:101FF800002310BD10B51C46002303F039FF2260F2
:1020080010BD10B51C46D31703F0E2FE226010BDC8
:1020180008B5002303F02CFF08BD08B5D31703F05B
:10202800D7FE08BD13B50446002201A905F0A2FE9B
:10203800019BA34208BF6FF0150002B010BD13B595
:102048000446002201A905F059FF019BA34208BFDD
:102058006FF0150002B010BD4870000A0870704794
:10206800008840BA80B270470870000A487070470C
:1020780000887047030A8870000C4B70087070471E
:10208800B0F8013000785BBA9BB243EA0040704771
:10209800030A0870000C4B708870704782780088BB
:1020A80040EA02407047030AC8708B70030C000EA8
:1020B8004B7008707047006800BA7047030A0870D0
:1020C8004B70030C000E8B70C87070470068704727
:1020D800030A9371030C53710B0AD071D170000E6F
:1020E80093700B0C090E10715370117070470168D2
:1020F800406809BA00BA7047030A5370030C93701A
:102108000B0A10701171000E53710B0C090ED07070
:102118009371D17170470346006859687047C1F1DF
:102128000F01C9B2884000B208417047C1F11F01D0
:10213800C9B2884008417047A0FB0101704770B5DB
:102148000C46A0FB0201C3F1200601FA06F6A3F132
:102158002005D84021FA05F530432843D940C3F17A
:10216800200584B1A4FB0234A5F1200603FA06F683
:10217800C5F12002AC4023FA02F23443AB401443C9
:10218800181841EB040170BD2DE9F0430026A0FBAF
:102198000240A1FB021234190D1812189946304654
:1021A80031464FF0004E46EB060792187F4142EA4F
:1021B800D57224196D414A4577F1000313D3C6F14E
:1021C800200CA6F120082EFA08F80EFA0CFC4CEAAE
:1021D800080CB2EB09022EFA06F867F100074CEA80
:1021E800000048EA01010136402EDED1BDE8F08347
:1021F80000207047931E062BF7B507460D46144678
:1022080019D88A4217D8B1FBF2F302FB131393B91A
:10221800064622463146684603F0F2FF2346721E00
:10222800013B1DF8031002F8011F002BF8D12644CA
:10223800F31BAB42EDD303B0F0BD0000174A93691E
:1022480043F021039361164B1A6822F470621A60F6
:102258001A6842F400621A60DA6842F00402DA602E
:10226800A3F5A0539A6822F470629A609A6842F4BF
:1022780040729A60D3F8002442F00402C3F80024A4
:10228800D3F80C2442F00402C3F80C240022054BB6
:1022980083F808234FF480721A60704700100240D8
:1022A8000014014000E100E0044B5A69520704D5CC
:1022B8000121034A117004225A6170470004014049
:1022C8004B0A0020044B9A689107FCD518739A684A
:1022D800D207FCD5187B704700300140304A93691B
:1022E80043F4805343F00D0393612E4B5A6822F058
:1022F800E0625A605A6842F000725A605A6842F0C6
:1023080001025A60D3F8002C03F5406322F47042AE
:102318001A601A6842F440521A601A6842F400427D
:102328001A601A6822F470021A601A6842F440129D
:102338001A601A6842F400021A601A6822F47022BD
:102348001A601A6842F480221A60A3F580635A68FA
:1023580022F070425A605A6842F040525A604FF474
:1023680000421A61002203F520531A601A6822F00D
:1023780038021A601A6842F004021A601A6842F4B5
:1023880040721A601A6822F003021A605A6842F012
:1023980040025A601A6842F040021A60704700BF53
:1023A80000100240000001404FF00042014B1A614A
:1023B800704700BF000801404FF40042014B1A610A
:1023C800704700BF000801407CE7FF207AE738B576
:1023D80004464518AC4200D138BD14F8010BFFF78C
:1023E80071FFF7E738B504464518AC4200D138BD4F
:1023F800FF20FFF767FF04F8010BF6E7264B9A6901
:1024080042F019029A61DA6942F48042DA61A3F56E
:1024180082335A6892B25A605A6842F430025A605B
:102428005A6842F030425A605A6822F070625A6024
:102438005A6842F000625A60DA6842F48042DA6010
:102448005A6842F440325A60144A516821F0F00147
:102458005160516841F0300151604FF48051196169
:102468004FF40073136100220D4B1A601A6822F0B2
:1024780038021A601A6842F004021A601A6842F4B4
:1024880040721A601A6822F003021A601A6842F051
:1024980040021A60704700BF00100240001001405F
:1024A80000380040044B9A689107FCD518739A6865
:1024B800D207FCD5187B704700380040012A38B590
:1024C80014460CBF4FF000724FF080520D460CBFFF
:1024D8000C4B0D4B1A61FFF7E5FF280AFFF7E2FFE7
:1024E800E8B2FFF7DFFF094A93681B06FCD4012C0A
:1024F8000BBF4FF400724FF48052024B024B1A612B
:1025080038BD00BF00100140000C014000380040F9
:102518000022FFF7D3BF01290CBF4FF000724FF024
:10252800805238B50CBF0F4B0F4B0C461A61FFF7A2
:10253800B9FF0020FFF7B6FF05460020FFF7B2FFFE
:102548000A4A93681B06FCD4012C0BBF4FF4007297
:102558004FF48052034B044B40EA05201A6180B2C5
:1025680038BD00BF00100140000C01400038004099
:102578000021FFF7D0BF00BF034B1A681206FCD535
:10258800C0B25860704700BF00380140034B1A685A
:102598009206FCD55868C0B2704700BF00380140A9
:1025A800014B1860704700BFB00A0020214A002084
:1025B800936943F004039361936943F001039361C2
:1025C8001D4B596841F030015960596841F080014C
:1025D8005960596821F040015960596821F44071E7
:1025E8005960596841F480615960596821F4006163
:1025F800596012494B6823F004034B60936943F414
:10260800804393610E4BDA6842F00802DA60DA68B8
:1026180042F00402DA60DA6842F02002DA6040F23E
:1026280071229A60DA6842F40052DA602022054B7F
:102638005A60704700100240000801400000014045
:102648000038014000E100E0054B1A68920605D504
:102658005868044B1B680BB1C0B21847704700BFDD
:1026680000380140B00A002008B5411E11F8010FDA
:1026780000B908BDFFF780FFF8E770B50446164BB0
:1026880086B001AA03F11006154618685968083380
:1026980003C5B3422A46F7D11B7830202B70FFF7C9
:1026A8006BFF7820FFF768FF06AB03EB141313F8F2
:1026B800140C04F00F04FFF75FFF04F118030DEB8F
:1026C800030414F8140CFFF757FF0A2006B0BDE8FE
:1026D8007040FFF751BF00BF0DD6000807282DE94D
:1026E800F84306460D461746994668D8440108340B
:1026F800204600F043FE00F00300012803D06FF0ED
:102708000400BDE8F88304F54078404600F036FE42
:10271800132857D12A786B7803EB0223AA7802EBA7
:102728000323EA78013A02EB032203324DD8002F43
:102738004ED0390A04F5805000F04EFEF9B204F587
:10274800885000F049FEB9F1100FD8D0204600F0AB
:1027580015FE0928D3D0294604F54060042204F563
:10276800807500F0A5FE0421284600F035FE2846B5
:1027780000F004FE0028FAD1174B1B8843FA06F62E
:10278800F207BED404F50074404600F0F7FD1728A0
:1027980001D10120B5E7204600F0F0FD030706D57A
:1027A8002046082100F018FE6FF00C00A9E740460B
:1027B80000F0E4FD0028E7D16FF00300A1E74FF037
:1027C800FF309EE76FF002009BE76FF00B0098E781
:1027D8006FF00A0095E700BFB40A00202DE9F84F12
:1027E800072807468A4691461E46BDF828409DF8A8
:1027F8002CB000F2C58045010835284600F0BEFD22
:1028080000F00F03042B05D810F00E0F04D16FF061
:1028180004000FE00B2BFAD1284600F0AFFD042886
:10282800804627D0BBF1100FF1D0BBF1040F03D0C5
:102838006FF00B00BDE8F88FA0F10A03DBB2012BA3
:10284800E5D95A46314605F5406008F0030800F01E
:102858002FFEB8F1020F0DD114B96FF00A00E9E7A5
:10286800210A05F5805000F0B7FDE1B205F5885062
:1028780000F0B2FDB9F1000F00F08580337872786E
:1028880002EB0322B37803EB0222F37803EB022373
:10289800002B3AD0002C3ED005F54078404600F099
:1028A8006DFD42283DD10422314605F5406000F017
:1028B800FFFD210A05F5805000F08EFDE1B205F517
:1028C800885000F089FD05F5F85000F057FD8002AA
:1028D80080B2484528BF48464FF001090446DFF852
:1028E800B4B009FA07F9384600F01CFE064640461F
:1028F80000F044FD002849D0BBF8003013EA090F66
:1029080016D0B44216D9002094E7284600F036FDC8
:102918004007BFD48CE7284600F030FD4107BBD400
:102928009BE700F0EF002228BDD06FF0060081E79A
:10293800B442D8D851463846224605F5807600F08C
:1029480033FE2021304600F047FD304600F016FDEA
:102958000028FAD105F50075284600F00FFDC206DB
:1029680005D52846102100F037FD204662E7030709
:10297800F2D52846082100F02FFD6FF00C0059E72A
:102988004FF0FF3056E76FF00D0053E76FF003008C
:1029980050E700BFB40A00200728F8B505462CD830
:1029A800470107F1080407F584771021384600F03D
:1029B80013FD384600F0E2FC06460028F9D11F2135
:1029C80004F5007000F008FD0123AB40DB430C4A1E
:1029D8001BB2118804F540741940118051880B40CE
:1029E800538002EB45032A449E801675204600F06A
:1029F800C5FC0028FAD10120F8BD4FF0FF30FBE7F5
:102A0800B40A002007282DE9F341044688461746F2
:102A18001D4600F2828001F00F03013B0D2B7FD889
:102A2800DFE803F0071515157E7E7E7E7E15157E80
:102A38007E1504224FF470600DEB020100F0FEFCDD
:102A4800019B23B96FF0020002B0BDE8F08168076E
:102A580056D42DB1B8F1010F4FD0B8F1020F52D0B2
:102A680020466601FFF798FF083625F00F0130462B
:102A780041EA080100F0B0FC6FB94FF6F0712A4A3C
:102A880017887B1C9BB28B4205BF4FF440434FF61F
:102A9800EF7713801380390A06F5806000F09CFCFC
:102AA800F9B206F5A06006F5807700F095FC0121E3
:102AB800384600F091FC384600F060FC0028FAD156
:102AC8000123A340DB43194A1BB2118805F0010515
:102AD8001940A5400D43518815800B40538002EBE7
:102AE800440322449880107506F54076304600F07D
:102AF80045FC0028FAD060B2A6E715F0210FAFD147
:102B08006FF00500A0E7A9066BB201D5002BF7DA34
:102B1800EA06A5D5002BA3DBF2E74FF0FF3093E7D9
:102B28006FF0040090E700BF10000020B40A0020F6
:102B38002DE9F04F072805468B469246994687B0FF
:102B480000F2038147010837384600F017FC00F00F
:102B58000F010429034605D810F00E0F04D16FF0B9
:102B68000400B6E00B29FAD1BAF1000F00F0F080AA
:102B78007A4E4FEA450806EB4501898800297FD13E
:102B8800012107F54072A94001922846CDE90213B8
:102B980000F0E9FC0446019800F0F0FB002800F082
:102BA800DA8030880299039B084202D01CB920467B
:102BB8008FE0002CE9D003F00703032B07F580779B
:102BC80000F08A80042B5DD0022B40F0B68006EB23
:102BD80008039B888BBB284604A9082200F011FD36
:102BE8004021384600F0F8FB384600F0C7FB0028C3
:102BF800FAD19DF810309DF8142089F800309DF81E
:102C080011309DF8161089F801309DF8123089F8B6
:102C180002309DF8133089F803309DF8153003EB26
:102C28000223109A13809DF8172006EB080302EB85
:102C380001229A80802273191A7506EB08039C8872
:102C4800544528BF544659462246284600F0D9FC28
:102C58004021384600F0C0FB384600F08FFB0028C2
:102C6800FAD1B044B8F804301B1B9BB2A8F8043062
:102C78001BB17319187D40F001003544287596E79B
:102C8800002498E706EB08039B88002BD5D128463B
:102C980004A9022200F0B5FC4021384600F09CFB54
:102CA800384600F06BFB0028FAD19DF811309DF8EA
:102CB8001020023B03EB02239BB206EB0802938031
:102CC80040F2EA529342B5D92846FFF765FE6FF401
:102CD8007A7007B0BDE8F08F06EB08039B88002BDD
:102CE800B6D1284604A9062200F08BFC40213846BC
:102CF80000F072FB384600F041FB0028FAD19DF83D
:102D080014209DF815409DF8103004EB0224802211
:102D180089F800309DF81130A4B289F801309DF887
:102D2800123089F802309DF8133089F8033006EB29
:102D380008039C8073191A7582E72146284600F01B
:102D48008DFC06EB08039C8082E74FF0FF30C0E75C
:102D58006FF00D00BDE76FF00300BAE7B40A00207A
:102D6800072870B5054627D844010834204600F0E6
:102D780005FB00F00300012821D104F54076304618
:102D880000F0FCFA13281DD104F5807402212046B6
:102D980000F022FB204600F0F1FA0028FAD1304674
:102DA80000F0ECFA142801D1012004E02846FFF7CE
:102DB800F3FD6FF0030070BD4FF0FF30FBE76FF0DD
:102DC8000400F8E76FF00200F5E7042386E485E4E1
:102DD8000728F8B5054639D844010834204600F0DC
:102DE800CDFA00F00300012833D104F540763046CF
:102DF80000F0C4FA08B90120F8BD04F5807708216D
:102E0800384600F0E9FA384600F0B8FA0028FAD156
:102E18000122114B02FA05F15A8822EA01025A806E
:102E28001B882B41DA07E7D404F50074304600F01C
:102E3800A5FA0028DFD0204600F0A0FA0307F5D550
:102E48002846FFF7A9FD6FF00C00D5E74FF0FF30DB
:102E5800D2E76FF00400CFE7B40A002007282DE975
:102E6800F84F05468A46144600F29C80460108360B
:102E7800304600F083FA00F00F00012840F09580FA
:102E8800002C00F0958006F54079484600F076FA67
:102E9800172804D01C2802D06FF0060037E0464FF0
:102EA8007B882B41DA0711D506F50078404600F0FB
:102EB80065FAC30628D51021404600F08DFA012393
:102EC80003FA05F27B8823EA02037B8006F5F850B3
:102ED80000F054FA800280B24FF00108844228BF03
:102EE800044608FA05F8284600F01CFB83464846C5
:102EF80000F044FA172812D01C2810D00028CBD193
:102F08002846FFF749FDC7E7000702D40020BDE8BF
:102F1800F88F2846FFF740FD6FF00C00F7E73B8875
:102F280013EA080F27D05C45F0D8514622462846B8
:102F380000F03AFB7B882B41D9070AD506F5007AC1
:102F4800504600F01BFAC30618D51021504600F071
:102F580043FA06F580762021304600F03DFA3046E7
:102F680000F00CFA0028FAD17B88204648EA0308CA
:102F7800A7F80280CBE75C45B5D8D6E7484600F00D
:102F8800FDF9172809D01C2807D00028B8D05046CA
:102F980000F0F4F90207B3D47EE73B8813EA080F80
:102FA800CED0B3E74FF0FF30B1E76FF00400AEE7E3
:102FB8006FF00D00ABE700BFB40A002007282DE929
:102FC800F74F83468846174656D8450108352846A0
:102FD80000F0D4F900F00F06012E50D1002F51D087
:102FE80005F5F05000F0CAF906FA0BF6009005F561
:102FF800407905F5F85A584600F0B5FA04464846AF
:1030080000F0BCF9172815D01C280BD1C4B95846B4
:1030180000F088FA0190504600F0B0F90199B1EB40
:10302800802F07D15846FFF7B7FC6FF0060003B0B2
:10303800BDE8F08F164B1988314226D1002CDAD022
:10304800009B4146980280B2874228BF0746A742A4
:1030580028BF2746BFB258463A4605F5807500F0A6
:10306800D0FA4021284600F0B7F9284600F086F942
:103078000028FAD13846DAE74FF0FF30D7E76FF08B
:103088000400D4E76FF00D00D1E70020CFE700BFC0
:10309800B40A002013B504240194BDF8104000942C
:1030A800FFF79CFB02B010BD30B4BDF808409DF896
:1030B8000C50CDE9024530BCFFF790BB38E537E549
:1030C800072810B50B4614464FD81178092B4FD84E
:1030D800DFE803F0051A222B2F374E4E3F46012911
:1030E80007D1254B01FA00F01A88104318800120F7
:1030F80010BD00293CD101211F4A01FA00F01388B4
:1031080023EA00001080F2E71B4B1B8843FA00F00B
:1031180000F001002070EAE7400100F5F85008309F
:1031280000F02CF980022080E1E7400100F5F05022
:10313800F5E71F291CD8400100F5027000F04CF992
:10314800D5E7400100F5027000F018F900F01F0003
:10315800E0E71F290CD8400100F530500830EDE7B2
:10316800400100F530500830EEE74FF0FF30BFE780
:103178006FF00900BCE700BFB40A0020072870B54B
:10318800154671D80139062971D8DFE801F0040C19
:10319800111E27345F004001117800F5B050083047
:1031A80000F01AF918E04001117800F5A850F6E788
:1031B8001188400100F10804090A04F5905000F054
:1031C8000BF9297804F59850EAE7400104222946CA
:1031D80000F6084000F06CF9012018E01188400161
:1031E80000F10804090A04F5805000F0F5F8297880
:1031F80004F58850D4E7400100F10804204600F0A7
:10320800BDF800F00300012802D06FF0040070BD83
:1032180004F53C5000F0B2F860BB04F5807522213B
:10322800284600F0D9F804F50074284600F0A6F8FE
:103238000028D1D0204600F0A1F80307F5D5204694
:10324800082100F0C9F86FF00C00E0E7400100F138
:103258000804204600F092F800F00306012ED4D1AD
:10326800297804F53C509BE74FF0FF30CFE76FF02B
:103278000900CCE76FF00100C9E7072870B50446DC
:10328800164673D80E2974D8DFE801F00811181C07
:103298002B33733D4E5B5173735565004001083005
:1032A80000F06CF820F00F003070012036E040018B
:1032B80000F5B050083000F061F8F5E7400100F57E
:1032C800A850F7E74401083404F5905000F056F888
:1032D800054604F5985000F051F800EB05203080C1
:1032E800E3E740010422314600F6084000F0A6F862
:1032F800DBE74401083404F5805000F03FF8054648
:1033080004F58850E7E744010834204600F036F811
:1033180000F00305012D02D06FF0040070BD04F524
:103328003C5000F02BF8DAE700F0FCF8D7E7400152
:1033380000F54270BFE74001083000F01FF8C307EE
:1033480003D5204600F00FF9C9E70B4800EB44000D
:1033580083883380A9E74001083000F00FF801287E
:10336800DAD005482044037D33709EE74FF0FF30E4
:10337800D4E76FF00100D1E7B40A002073B5054621
:10338800144CC5F30726E368984763699847636A4E
:10339800C5F30740EDB20BB1A36A8BB9236A98470E
:1033A8003046236A98472846236A9847E36998472E
:1033B8000546A369984723699847284602B070BD17
:1033C8008DF8040003218DF805608DF8065001A8DA
:1033D8009847EBE714000020F7B50546164C0E4653
:1033E800E368984763699847A36A45F00407C5F3FB
:1033F8000740FFB2C5F3072583B9236A98472846D3
:10340800236A98473846236A98473046236A98477C
:10341800A36998472369984703B0F0BD04218DF844
:1034280004008DF805508DF806708DF807600DEBD7
:1034380001009847ECE700BF140000202DE9F34194
:1034480005461A4C0E46E36817469847636998473D
:10345800636AC5F30740C5F30728EDB20BB1A36A49
:10346800B3B9236A98474046236A98472846236A8F
:1034780098473744B74206D1A369984723699847C4
:1034880002B0BDE8F081E369984706F8010BF1E75F
:103498008DF80400032101A88DF805808DF80650E9
:1034A800984739463046636A9847E5E71400002094
:1034B8002DE9F34105461A4C0F46E36890469847B4
:1034C80063699847A36A45F00406C5F30740F6B256
:1034D800C5F30725B3B9236A98472846236A98474E
:1034E8003046236A9847B844B84506D1A369984737
:1034F8002369984702B0BDE8F081236A17F8010BE9
:103508009847F1E78DF80400032101A88DF80550CC
:103518008DF80660984741463846A36A9847E5E71C
:1035280014000020F8B500244601083606F50057B7
:1035380006F504563846FFF721FF05023046FFF727
:103548001DFFADB20544ADB24DB13846FFF716FFC9
:1035580004023046FFF712FFA4B20444A4B2AC42FE
:10356800E8D12046F8BDF8B500244601083606F52E
:10357800185706F51C563846FFF700FF0502304677
:10358800FFF7FCFEADB20544ADB24DB13846FFF7CA
:10359800F5FE04023046FFF7F1FEA4B20444A4B2DB
:1035A800AC42E8D12046F8BD2DE9F84389461446D7
:1035B8002AB385006F1CFF0007F510584046FFF737
:1035C800DDFE07F5145706463846FFF7D7FE00EB31
:1035D8000626B6B2023530022246494600EBC5003F
:1035E800FFF766FFA11940468CB2C1F30721FFF728
:1035F800F3FE3846E1B2BDE8F843FFF7EDBEBDE89B
:10360800F8832DE9F843894614462AB385006F1CD0
:10361800FF0007F520584046FFF7B0FE07F524578E
:1036280006463846FFF7AAFE00EB0626B6B2033573
:1036380030022246494600EBC500FFF7FFFEA119FC
:1036480040468CB2C1F30721FFF7C6FE3846E1B207
:10365800BDE8F843FFF7C0BEBDE8F883F8B54401FC
:10366800083404F5205738460D46FFF787FE04F561
:10367800245406462046FFF781FE291801EB06214F
:1036880038468DB2C1F30721FFF7A6FE2046E9B2FE
:10369800BDE8F840FFF7A0BE70470078704701709A
:1036A8007047012B2DE9F84328BF012304468846BB
:1036B80016461F460025DFF82090ABB2B34201DB67
:1036C800BDE8F8832046D9F81C3098473C4408F8F0
:1036D80005000135F1E700BF14000020012B2DE99A
:1036E800F84328BF01230446884616461F4600258E
:1036F800DFF81C90ABB2B34201DBBDE8F88320468B
:1037080018F80510D9F8203098473C440135F1E7FE
:103718001400002000207047704770B50446054E1D
:103728004518AC4200D170BDF369984704F8010B05
:10373800F7E700BF1400002070B50446044E451892
:10374800AC4200D170BD336A14F8010B9847F7E713
:103758001400002070477047704770477047054B4A
:1037680000B121B9044ADA60044A1A617047C3E912
:103778000301704714000020A136000861370008D3
:10378800054B00B121B9054A5A61054A9A6170474B
:10379800C3E90501704700BF140000206337000823
:1037A80065370008074B1A88D20500D4FEE700B138
:1037B80021B9054ADA61054A1A627047C3E9070167
:1037C800704700BF14000020A3360008A736000881
:1037D800074B1A88D20500D4FEE700B121B9054A83
:1037E8005A62054A9A627047C3E90901704700BFE7
:1037F80014000020AB360008E5360008074B1A888D
:10380800920500D4FEE700B121B9054ADA61054AFC
:103818001A627047C3E90701704700BF140000200F
:103828001D37000821370008074B1A88920500D475
:10383800FEE700B121B9054A5A62054A9A62704703
:10384800C3E90901704700BF1400002023370008AE
:1038580041370008074B1A8802F4017202B9FEE7E3
:1038680000B121B9044ADA61044A1A627047C3E90F
:1038780007017047140000205D3700085F37000813
:103888007FB5062204A94FF41060FFF7D7FD042284
:103898004FF480700DEB0201FFF7D0FD02A904225E
:1038A8004FF4A060FFF7CAFD042203A94FF470602B
:1038B800FFF7C4FD80210020FFF78EFD0020FFF7F1
:1038C8005DFD04A906224FF41060FFF7F1FD042204
:1038D8004FF480700DEB0201FFF7EAFD02A9042204
:1038E8004FF4A060FFF7E4FD04224FF4706003A9D1
:1038F800FFF7DEFD07B05DF804FBF8B505460C469A
:10390800FFF7BEFFBDB16E1E32460023073512F821
:10391800011F0B445BB2102B29DCAA42F7D141F6F8
:10392800087542F20807284616F8011F2035FFF7E8
:1039380053FDBD42F7D10CB90020F8BD651E2A46DB
:103948000023073412F8011F0B445BB2102B0EDC66
:103958009442F7D141F6086441F60876204615F8F6
:10396800011F2034FFF738FDB442F7D1E4E74FF0E8
:10397800FF30E2E738B500F0F001050A4FF4A8502F
:10398800FFF72AFD002445FA04F3DB0705D560019B
:103998001F2100F50270FFF71FFD0134082CF2D13A
:1039A80038BD10B54FF4A850FFF7E8FC04464FF4B3
:1039B800B850FFF7E3FC04F0F00404EB0024A0B2D5
:1039C80010BD10B50446C1B24FF4B050FFF704FD66
:1039D800210A4FF4C050BDE81040FFF7FDBC10B5F8
:1039E8004FF4B050FFF7CAFC04464FF4C050FFF73D
:1039F800C5FC04EB002080B210BD08B54FF4385068
:103A0800FFF7BCFC00F0010008BD08B54FF43850C2
:103A1800FFF7B4FC00F03800A0F1300358425841D9
:103A280008BD08B54FF43850FFF7A8FC00F07F0137
:103A38004FF43850FFF7D0FC4FF43850FFF79EFC96
:103A4800BDE8084060F07F01C9B24FF43850FFF775
:103A5800C3BC08B50378012B43780CBF4021002173
:103A6800012B09D141F038014FF43850FFF7B4FC6D
:103A7800BDE80840FFF7D5BFC2788378012A06D190
:103A8800012B0CBF41F0180141F00801ECE7012BB4
:103A980008BF41F01001E7E710B504464FF438506D
:103AA800FFF76CFCC0F38013237000F03803202B61
:103AB80001D0382B1DD101226270A3F11002D2B2BD
:103AC800102A18D8012101FA02F202F0013222F07C
:103AD800807282B1A170083BDBB2182B0ED801228C
:103AE80002FA03F303F0013323F4807333B1E27075
:103AF80010BD0022E0E70022A270ECE70023E3708B
:103B0800F6E710B504464FF43850FFF737FCC0F31A
:103B18008003E370C0F34003A37010BD10B50446E2
:103B28004FF43850FFF72AFC43061DD500F0C701B3
:103B3800012C0CBF41F0300141F038014FF43850EE
:103B4800FFF74AFCFFF76DFF4FF43850FFF716FCFC
:103B5800012C06D110F0300F0CBF4FF0FF300020C1
:103B680010BD10F0380FF7E74FF0FF30F8E70338D3
:103B780038B50C4614286BD8DFE800F00B0F191580
:103B88001D2124306A6A3C6A6A6A4C4F53575B604D
:103B98006700FFF775FE00203BE02046BDE838408F
:103BA8000831FFF7AABE0888FFF7E4FEF3E7FFF73E
:103BB800F8FE2080EFE70888FFF703FFEBE7FFF741
:103BC8000EFFF6E709884FF49850090AFFF704FC3E
:103BD8004FF4A0502178FFF7FFFBDCE74FF4985033
:103BE800FFF7CCFB05464FF4A050FFF7C7FB00EBEF
:103BF8000520DEE70020184B9A780A70DA784A70B8
:103C08001A798A705A79CA709A790A71DB79887137
:103C18004B7138BDFFF705FFBDE70846FFF719FFF1
:103C2800B9E70846FFF738FFB5E70846FFF769FF29
:103C3800B1E70878BDE83840FFF770BFFFF7E5FE49
:103C4800C0B2FF2804D02070A5E7FFF7D6FEF7E73B
:103C58004FF0FF30DDE700BF1400002010B5044628
:103C6800014606224FF41060FFF722FC04224FF4AD
:103C7800807004F10E01FFF71BFC04224FF4A060D2
:103C880004F10A01FFF714FC04224FF47060A11D2F
:103C9800FFF70EFC054BA27C1A70E27C5A70227D5D
:103CA8009A70627DDA70A27D1A7110BDD00A002068
:103CB80010B50446014606224FF41060FFF7BEFB1C
:103CC80004224FF4807004F10E01FFF7B7FB0422C1
:103CD8004FF4A06004F10A01FFF7B0FB04224FF48F
:103CE8007060A11DFFF7AAFB054B1A78A2745A78D9
:103CF800E2749A782275DA781B796275A37510BD1B
:103D0800D00A002038B530F03A0504460AD12846D2
:103D1800FFF734FB44EA0001C9B22846FFF75CFB11
:103D2800284638BD4FF0FF30FBE70020FFF726BBE1
:103D380010B5044601784FF4D850FFF74DFB618861
:103D48004FF4C850090AFFF747FBA1784FF4D05049
:103D5800BDE81040FFF740BB38B504464FF4D850D3
:103D6800FFF70CFB20704FF4C850FFF707FB054620
:103D78004FF4D050FFF702FB00EB0520608038BD00
:103D880010B50C4605281ED8DFE800F003080C1112
:103D980015190846FFF762FF002010BD0846FFF717
:103DA80087FFF9E70878BDE81040FFF7ABBFFFF7DA
:103DB800BCFF2070F0E70846FFF7BAFFECE70846BB
:103DC800FFF7CAFFE8E74FF0FF30E6E70000000022
:103DD80000230146184610B5CA5CA2F13004092C2C
:103DE80009D83038032B104403F1010318BF000130
:103DF800042BF1D110BDA2F14104052C01D83738AC
:103E0800F0E7A2F16104052C01D85738EAE7002051
:103E1800F0E72DE9F84F0A688B6880465D1CD018DA
:103E2800D35C8A46222B154440F0DD802F460023C0
:103E38004C68B91AA14280F0D680397822290ED16F
:103E4800C3F10103381ADAF8102018449047834662
:103E5800002800F0C8800446DFF894910FE05C2940
:103E680005D10137B91A8C4240F2BD8001330137C0
:103E7800DFE72B785C2B12D0013504F8013BBD42FB
:103E8800F7D30023237010230120C8E9033BDAF895
:103E98000030FB1A0133CAF80830BDE8F88F7A1BE6
:103EA800002A0DDD6B78752B0AD86D2B12D8622B82
:103EB8002AD025D82F2B28D05C2B26D0222B24D0F3
:103EC8005846DAF814309847DAF80000281ACAF881
:103ED80008008BE06E3B072BF2D801A151F823F0C4
:103EE8001D3F0008C93E0008C93E0008C93E000839
:103EF800213F0008C93E0008253F0008293F000867
:103F0800662BDDD10C2300E0082304F8013B0223D3
:103F18001D44B4E70A23F8E70D23F6E70923F4E77D
:103F2800052ACDDDA81CFFF753FFA0F55C43B3F5C8
:103F3800806F0646C4D3A0F55843B3F5806F2ED2E0
:103F4800AB1DFB1A052BBBDDAB795C2BB8D1EB792C
:103F5800752BB5D105F10800FFF73AFFA0F55C43D2
:103F6800B3F5806FACD20C2309EA8626C0F30900AA
:103F7800304300F580364FF0F00E042000F1FF3C8E
:103F88005FFA8CFCA444A445F2B224D1012814BFE2
:103F980042EA0E0202F07F0222700444B8E77F284A
:103FA8000AD9B0F5006F0CD3B0F5803F0ED3B0F549
:103FB800881F85D20623DEE706234FF0000E012076
:103FC800DCE706234FF0C00E0220D7E706234FF0A8
:103FD800E00E0320D2E702F03F0262F07F010CF806
:103FE8000119B609CFE7002D7FF46EAF002054E722
:103FF80000FC0F0010B528B1016889B1D0E9013281
:104008009A4202D310BD013282608268934203D97A
:104018008C5C202CF7D9F5E7F4D1013B8360F1E7FC
:104028000846EFE710B1806800B101B97047006831
:104038000139F9E738B5044638B1006828B1A568F0
:10404800284402F01DFD0544A56038BD70B504463E
:10405800B8B1056865B1436813B18268934210D955
:1040680000290EDBA2684E1C1644B34202D3154445
:10407800284670BD236923B9B6F1804F03D3002EBB
:104088000FDA0025F4E77600236A6BB1284631463B
:1040980098470546B0B9E36920689847C4E90055D0
:1040A800E6E76FF00046EFE73046A3699847054614
:1040B8000028F0D0A2682168013202F0A1F8E36973
:1040C80020689847A368C4E900561D44D0E7F8B5AE
:1040D8000D460446002834D0002931D08468FAB946
:1040E800194E74B3236AC3B1AB4221D005F1FF3C2A
:1040F800013B1CF8011F0F468A5D02F00302012AEA
:1041080013F8012F08BF01F12007B05C00F003008D
:10411800012808BF203297420FD02468E1E72468BD
:104128007CB1216A21B1284602F06EFB0028F6D145
:10413800236A002B08BF002403E00029D9D1F7E740
:104148000C462046F8BD00BF61C5000881B138B1F2
:1041580081420DD0836823B98160C1E90031012013
:1041680070475A68002AFAD011604A605960F6E729
:10417800002070472DE9F84F0646084611B900207F
:10418800BDE8F88F36B331464FF0000A0124424F9C
:104198000D4611F8013B3BBBAD1B5544E91CFFF72D
:1041A80055FF07460028EAD04FF0220B441C05F1C2
:1041B800010905F1020880F800B0BAF1000F29D111
:1041C8002A463146204602F01BF807F809B007F8DE
:1041D80008A007E00321FFF739FF0028CFD02F49B7
:1041E80002F0F0FB0120CBE7222B0BD8072B0CD9D0
:1041F800A3F10802D2B204FA02F23A4205D00AF157
:10420800010AC5E75C2BC3D1F9E71F2B98BF0AF158
:10421800050ABDE75C254FF0740ADFF884B0013E5B
:1042280016F8013F2BB9222207F8092007F80830B1
:10423800D8E71F2B07D9222B05D05C2B03D02046AB
:104248002370441CECE7204600F8015B32780D2A05
:104258000AD8072A1AD9A2F10803052B16D8DFE8CD
:1042680003F009120E150C10222A01D05C2A0DD178
:104278006270E6E762236370E3E76623FBE76E2379
:10428800F9E77223F7E784F801A0DAE7594602F064
:10429800FBF9601DD5E700BF370000041ED60008F3
:1042A80021D6000870B5054670B102F0E9FB074B4E
:1042B800461C30461B689847044618B132462946C2
:1042C80001F09EFF204670BD0446FBE74000002039
:1042D800F8B50D4614460746F8B1F1B1EAB1904277
:1042E8001BD08BB1D66846F40076E3689B0504D4EE
:1042F800206A10B10A4B5B68984721463846256208
:10430800E660BDE8F84021E70846FFF7CBFF054621
:1043180018B1E66826F40076E7E70020F8BD00BF8C
:1043280040000020034610B528209847044618B1DD
:104338002822002101F0DAFF204610BD10B50446FE
:10434800B0B10C4B1868FFF7EDFF88B12346024661
:1043580004F1280153F8044B8B4242F8044BF9D17D
:104368000023C268C0E9003342F480720362C2606D
:1043780010BD00BF400000202DE9F04F0C468046DC
:104388008DB008B9002561E00029FBD0057B102D10
:1043980000F0118118DC6B1E072BF3D8072BF1D81E
:1043A80001A252F823F000BF434400085D4400080E
:1043B8008D4300082D4400088D4300088D430008F4
:1043C8008D4300086D440008402D00F02281802DA7
:1043D80000F0DD80202DD5D1CB68B3F57A7FD1D21E
:1043E800866801212046FFF731FE0028CAD05B23EA
:1043F8002C274FF000080370A3680133A360E3681B
:104408000133E360002E40F0DB8002212046FFF7F5
:104418001DFE0028B6D05D2346700370E368013B9B
:10442800E36008E005212046FFF710FE0028A9D028
:10443800934902F0C7FA012508E006212046FFF754
:1044480005FE00289ED08F4902F0BCFA28460DB020
:10445800BDE8F08F05212046FFF7F8FD002891D030
:104468008949E6E70021D0E90667162206A80591E2
:1044780001F03CFF002200233046CDE902233946F3
:1044880032463B4601F066FC88B927F000494FF0F8
:10449800FF32304649467D4B01F05CFCF0B94FF0E5
:1044A800FF3230464946794B01F036FCB0B97449C1
:1044B80005A802F087FA04252046691CFFF7C6FD07
:1044C80000283FF45FAF024605AB4619B24258D107
:1044D80000234355A0682844A060ACE7D8F81450DE
:1044E800284601F045FB02460B463046394601F0A6
:1044F800FFFB48B12A46664905A802F0C5F80546FB
:10450800192D3FF63FAFD7E732463B46614905A82C
:1045180002F0BAF86049054602AA05A802F0D6F8E2
:10452800012827D1DDE902AB2BF00048434652466B
:104538004946304601F0E6FB002814BF534633468F
:1045480032465046019359463B4608BFC84601F0DB
:10455800C1F900228246514B21F000490198414699
:1045680007F0E6F802460B465046494601F0D4FBF0
:104578000028C5D132463B46494905A802F084F8CF
:10458800BDE713F8011B013202F8011C9EE7006920
:1045980000283FF4F7AE02F073FA451C294620467E
:1045A800FFF754FD00283FF4EDAE2A46D8F8101066
:1045B80001F026FE3FE700690DB0BDE8F04FD9E5F0
:1045C80021463046FFF7D8FE00283FF4DBAE2046F0
:1045D800FFF730FD3368BBB163692046002B14BF79
:1045E8004FF002094FF0010909F10101FFF72EFD13
:1045F80000283FF4C7AE077063693BB9431C83F8D2
:104608000080A3684B44A3603668FBE6831C4570B2
:10461800F5E7CB68B3F57A7FBFF4B4AE4B6985682C
:10462800002B14BF022601262046711CFFF70EFD41
:1046380000283FF4A7AE7B230370E2686369013268
:10464800E2600BB10A234370A3683A273344092672
:10465800A360636935BB002B00F08480E1680131F9
:104668002046FFF7F3FC00283FF48CAE6369002B6B
:1046780040F0828003467D221A7000225A70CDE6EF
:1046880027D600085ACC000855CC0008FFFFEF7F5A
:104698002CD600082FD6000836D600080000B03CFB
:1046A8003AD6000873B12046E168FFF7CFFC00282E
:1046B8003FF468AE0246E168131A99424FD8A368DE
:1046C8000B44A3602146286AFFF754FD00283FF4F5
:1046D80059AE2046FFF7AEFC63692046002B14BF95
:1046E8004FF002084FF001084146FFF7AFFC0028E1
:1046F8003FF448AE0770636903B14670A36821466A
:1047080043442846A360FFF737FE00283FF43AAE3B
:104718002046FFF78FFC2B686269B3F1000818BFC9
:104728004FF00108002A18BF08F10108204608F1D7
:104738000101FFF78BFC00283FF424AE2B6813B16E
:104748002C2300F8013B636913B10A2300F8013BED
:1047580000230370A3682D684344A36079E702F837
:10476800016BA8E702217BE703F8015BE268191AED
:10477800013A8A42F8D87EE703460925F6E770B57C
:10478800234D8AB00E4624220021044601A801F0D8
:10479800ADFD2B684FF4807098474FF48072034644
:1047A80006960AAE0190029295E8070006E907000E
:1047B8007BB1204601A9FFF7DFFD50B101A8FFF743
:1047C80039FCAE6803995EB101980131B0470446DF
:1047D800D0B9019CC4B120466B689847002413E007
:1047E8002B68481C984704460028F2D0039A029B7D
:1047F80001329A4228BF1A46019901F001FD039B34
:10480800E6546B680198984720460AB070BD00BF0F
:1048180040000020024BD3E900031844704700BF52
:10482800D80A0020132313B5054C0093012207234F
:104838002046044901F028FF204602B010BD00BF01
:10484800E00A002041D6000830B50E4B0E490F4A49
:1048580020B9C3E900120E4A9A6011E00568002DDC
:1048680014BF2C460C4645681C60002D14BF284612
:10487800104600258C4258609D6001D19042EAD0D4
:1048880030BD00BF40000020816100089161000830
:104898001D6500082DE9F04104460027124E0CB9A9
:1048A800BDE8F081E368D4F80080DA0503D4A06895
:1048B80078B9206998B9E36813F4007504D1206ABF
:1048C80010B1736898472562204673689847444634
:1048D800E5E7FFF7DFFFE368DB05EAD5EBE7736899
:1048E80098472761E7E700BF400000202DE9F74F10
:1048F80006460C4609B9002023E00F68002FFAD0BD
:104908008D68D1F8048005F10409C1450BD804224B
:104918008D49781902F0E2F828B90423F360C4F845
:10492800089001200DE005F1050AD0450CD30522B9
:104938008649781902F0D2F830B90120F060C4F83D
:1049480008A003B0BDE8F08FC1450CD80422804907
:10495800781902F0C3F830B902230120F3607061BE
:10496800C4F80890EDE74545C5D27B5D7A19222B3E
:1049780006D12146304603B0BDE8F04FFFF749BAEB
:104988002D2B03D0A3F13001092959D8002001218A
:10499800704D019047449742814600F101000BD0C9
:1049A80012F8013B452B24D82A2B05D92B3BDBB227
:1049B80001FA03F32B42EED12369984705460028F4
:1049C80099D04FF0000AA36821684A46194401F0BB
:1049D80017FC05F809A0284601A903F06DF8019F06
:1049E8008046BD428946D4F814B005D12846D84738
:1049F80081E7652BE0D1CEE7C6E9068950A3D3E964
:104A0800002301F093F958B16FF000437361082354
:104A1800F360A3687F1B1F442846A760D84780E738
:104A28000022404649464C4B01F076F910B14FF050
:104A38000043EBE74046494601F0A2F97061E6E71A
:104A48005B2B55D1E368B3F57A7FBFF454AF0133DC
:104A5800E3607B5D5B2B7FF44EAF01352046A5609C
:104A6800FFF7C8FAD4E90123934265D22268D25CE1
:104A78005D2A0DD100252F46E368013BE36007B1AD
:104A88007D602023C6E90273A3680133A36048E769
:104A980000252F46013BA3602069FFF743FCA84689
:104AA8000546002800F0A38007B3C8F80000C0F846
:104AB8000480A36820460133A360FFF79BFA2146D0
:104AC8002846FFF713FF002800F094802046FFF7E0
:104AD80091FAD4E90123934280F08C802268D35C58
:104AE8002C2BD9D05D2B40F08580C5E70746E0E741
:104AF8007B2B7FF400AFE368B3F57A7FBFF4FBAE9E
:104B08000133E3607B5D7B2B7FF4F5AE01352046F6
:104B1800A560FFF76FFAD4E9012393420CD222680B
:104B2800D25C7D2A1AD100252F46E368013BE36059
:104B380007B17D604023A5E7013BA360DBE600BF2A
:104B48000000C0FFFFFFDF4127D600085ACC00084D
:104B580055CC0008ED7F00040000E0C100252F4679
:104B6800A846013BA3602069FFF7DCFBA946054680
:104B780000283CD0002F38D0C9F80000C0F80490B5
:104B8800A36862680133934234D22046A360FFF7DA
:104B980031FA21462846FFF73CF958B32046FFF77B
:104BA80029FA2B69C5F810802B62D4E901239342B6
:104BB80020D22268D25C3A2A1CD101332046A36055
:104BC800FFF718FA21462846FFF790FE90B12046D5
:104BD800FFF710FAD4E9012393420BD22268D35C81
:104BE8002C2BC0D07D2B05D19FE70746C8E7002FA7
:104BF8003FF481AE3846FFF74DFE7CE670B51446AB
:104C08001D460646F8B112A3D3E9002320462946DB
:104C180001F08CF838B16FF000437361C6E90645BE
:104C28002046294670BD0022204629460A4B01F03D
:104C380073F810B14FF00043EFE72046294601F022
:104C48009FF87061EAE70024044DE9E7AFF30080BC
:104C58000000C0FFFFFFDF410000E0C10000F87F57
:104C68002DE9F04305464FF0000989B02E4F0C4658
:104C7800164600211C2201A8984601F037FBC7E917
:104C88000099002D46D0002C39D0284BCDE901548D
:104C980093E8070008AB03E90700FFF743FB044666
:104CA80068B3019870B1039B5BB9029B042B06D9CA
:104CB80003221F4901F012FF08B90323039301A837
:104CC80000E04846FFF796F901462046FFF70EFE3A
:104CD80090B1B8F1000F04D1F6B9204609B0BDE88B
:104CE800F08301A8FFF786F9DDE90223934203D296
:104CF800019AD35C002BEFD02046FFF7CBFDDDE90E
:104D080002329A420DD303B1013B0EB1EA18326068
:104D1800C7E900530024E0E7019B039A134433607A
:104D2800DBE71346F1E700BFD80A00204000002067
:104D38004AD6000870B50D461646044648B101F03B
:104D48009FFE33462A46411C2046BDE87040FFF7C7
:104D580087BF70BD00221146FFF7ECBF00231A463B
:104D6800FFF77EBF01210AE5002108E5F0B50C46F2
:104D78008BB0064617460021242201A801F0B6FA96
:104D8800002C02DA00200BB0F0BD0E4D20462B6837
:104D9800984701900028F5D095E807000023CDE951
:104DA800053703930AAB03E90700304601A90294CB
:104DB800FFF7E2FA18B96B6801989847E2E701989B
:104DC800E1E700BF40000020F0B515468BB006466D
:104DD8000C462422002101A81F4601F087FA002D65
:104DE80011DB94B10123CDE90537094BCDE9014524
:104DF80093E807000AAB03E90700304601A9FFF76B
:104E0800BBFA0BB0F0BD0020FBE72046F9E700BF76
:104E18004000002010B18368002003B970471B6868
:104E28000130FAE7002901DBFFF7FCB800207047E2
:104E38000022FFF74CB90122FFF749B908B5FFF77F
:104E4800F7FF003818BF012008BDFFF77FB900231E
:104E5800FFF73EBA0123FFF73BBA10B5044640B14D
:104E68000846FFF76BFA01462046BDE81040FFF7F9
:104E78006DB910BD70B504460D46104654B149B120
:104E8800FFF75CFA2946024600232046BDE8704039
:104E9800FFF71EBA002070BD10B598B181B18368C4
:104EA8008B4203D04A687AB10C6814600A686AB108
:104EB8004C688B42546000D182600023C1E9003302
:104EC800084610BD0146FBE71146F9E78B42F3D0CF
:104ED8004A685A60F1E7002908B5034607DBFFF77F
:104EE800A1F801461846BDE80840FFF7D5BF0020E5
:104EF80008BD08B5FFF7EFFFBDE80840FFF7CABCDB
:104F080010B50446FFF794FF01462046BDE810405F
:104F1800FFF7C2BF10B50446FFF78DFF01462046D4
:104F2800BDE81040FFF7B8BF08B5FFF7E9FFBDE8D7
:104F38000840FFF7AFBC08B5FFF7ECFFBDE8084035
:104F4800FFF7A8BC002910B5044619DBD2B1FFF75A
:104F580069F8034628B92046BDE810401146FFF716
:104F6800F5B8A1684068994200D040B1C2E9003064
:104F7800012099425A6016BF5368A2601A6010BD9A
:104F88000020FCE71046FAE738B518B3836803B386
:104F98000AB311B38A4212D00C684D681460556088
:104FA80004B162608B420CD14B688B4208BF5260DF
:104FB800826000230846C1E90033FFF76BFC01203B
:104FC80008E0506800B1026010680028F1D15A600A
:104FD800EFE7184638BD1046FCE70846FAE700290F
:104FE80008B5034607DBFFF71DF801461846BDE87C
:104FF8000840FFF7C9BF002008BD08B5034B186873
:10500800FFF790F908B10423C36008BD40000020F1
:1050180070B505460E46FFF7F0FF0023024604462A
:1050280031462846FFF754F9054618B92046FFF7D8
:1050380031FC2C46204670BD08B5044B1868FFF7B4
:1050480071F908B10223C36008BD00BF4000002009
:1050580070B505460E46FFF7EFFF002302460446EB
:1050680031462846FFF734F9054618B92046FFF7B8
:1050780011FC2C46204670BD08B5044B1868FFF794
:1050880051F908B10123C36008BD00BF40000020EA
:1050980070B505460E46FFF7EFFF002302460446AB
:1050A80031462846FFF714F9054618B92046FFF798
:1050B800F1FB2C46204670BD064B10B50446186817
:1050C800FFF730F920B1002C14BF02230123C3607D
:1050D80010BD00BF4000002070B5054610460E46C2
:1050E800FFF7EAFF00230246044631462846FFF749
:1050F800EFF8054618B92046FFF7CCFB2C462046AA
:1051080070BD174BD0B5064618680F46FFF70AF969
:10511800044670B10823C0E90667C36039460EA388
:10512800D3E90023304600F001FE20B16FF00043C0
:1051380063612046D0BD002230463946094B00F055
:10514800EBFD10B14FF00043F2E73046394600F06E
:1051580017FE6061EDE700BF0000C0FFFFFFDF4101
:10516800400000200000E0C170B505460E4610461C
:105178001946FFF7C6FF0023024604463146284673
:10518800FFF7A6F8054618B92046FFF783FB2C461B
:10519800204670BD38B50A4B05461868FFF7C2F8B7
:1051A800044658B11023C3602846FFF77BF805462C
:1051B800206118B92046FFF76DFB2C46204638BD04
:1051C8004000002070B5054610460E46FFF7E2FF86
:1051D80000230246044631462846FFF779F805467B
:1051E80018B92046FFF756FB2C46204670BD064BE3
:1051F80010B504461868FFF795F818B14FF488738E
:10520800C0E9033410BD00BF40000020054B10B5B5
:1052180004461868FFF786F818B14FF4A073C0E980
:10522800024310BD40000020054B10B50446186825
:10523800FFF778F818B14FF49073C0E9024310BD36
:105248004000002038B50A4B05461868FFF76AF891
:10525800044658B18023C3602846FFF723F8054663
:10526800206118B92046FFF715FB2C46204638BDAB
:105278004000002070B5054610460E46FFF7E2FFD5
:1052880000230246044631462846FFF721F8054622
:1052980018B92046FFF7FEFA2C46204670BD08B51F
:1052A800034B1868FFF73EF808B12023C36008BD18
:1052B8004000002070B505460E46FFF7F0FF0023BA
:1052C8000246044631462846FFF702F8054618B953
:1052D8002046FFF7DFFA2C46204670BD08B5044B80
:1052E8001868FFF71FF808B14023C36008BD00BF66
:1052F8004000002070B505460E46FFF7EFFF00237B
:105308000246044631462846FEF7E2FF054618B92C
:105318002046FFF7BFFA2C46204670BD2DE9F8431A
:10532800B1F10009804603DA00242046BDE8F8837D
:105338000028F9D0FFF7B3FF002604463746002CB3
:10534800F2D0B94504D8A368002BEED05E60ECE734
:1053580058F8270000F00CFCFFF7D3FE054618B9F3
:105368002046FFF797FADFE71FB9A0602E460137FE
:10537800E5E730604660F9E72DE9F843B1F1000947
:10538800804603DA00242046BDE8F8830028F9D0D7
:10539800FFF785FF002604463746002CF2D0B945B2
:1053A80004D8A368002BEED05E60ECE758F827001D
:1053B80000F0F0FBFFF7A5FE054618B92046FFF7F9
:1053C80069FADFE71FB9A0602E460137E5E73060CC
:1053D8004660F9E72DE9F843B1F10008064603DA1B
:1053E80000242046BDE8F8830028F9D0FFF757FFCE
:1053F80000270446B946083E002CF1D0C84504D819
:10540800A368002BEDD05F60EBE7F6E90201FFF738
:1054180078FE054618B92046FFF73CFAE0E7B9F1EF
:10542800000F04D1A0602F4609F10109E4E73860B4
:105438004760F8E72DE9F843B1F10009804603DA3F
:1054480000242046BDE8F8830028F9D0FFF727FF9D
:10545800002604463746002CF2D0B94504D8A36884
:10546800002BEED05E60ECE758F82700FFF792FEBD
:10547800054618B92046FFF70DFAE1E71FB9A06005
:105488002E460137E7E730604660F9E72DE9F84333
:105498000E461746054608B9002415E0234B186840
:1054A800FEF740FF04460028F6D0EB6823F480732B
:1054B800C3606B694361D5E90623C0E906232869FF
:1054C80028B9286A60B9A7B92046BDE8F883FEF76D
:1054D800E9FE20610028F4D12046FFF7DBF9DBE77D
:1054E800EB689B0501D4FEF7DDFE20620028EAD1B7
:1054F800F2E7AF6842F20F78002506F1010927B9F3
:10550800A368002BE0D05D60DEE74645E4D80122C1
:1055180049463846FFF7BAFF0028DDD025B1286094
:10552800456005463F68EAE7A060FAE740000020CA
:105538000A460021FFF7AABF10B518B10346027842
:105548000AB91A7010BD222A2CD00DD80D2A09D0FC
:1055580006D8A2F10901012904D903F8012B01E0B9
:10556800202AFAD10130EAE72F2AF6D142782F2AE9
:1055780009D1821C104612F8011B0029DFD00A2924
:105588001046F7D1DBE72A2AECD1821C11781046A5
:1055980001320029D3D02A29F8D111782F29F5D141
:1055A8000230CCE7194601F8012B421C14780B464F
:1055B8000CB91046C3E7222C03F8014B02F1010095
:1055C800BDD05C2C05D15478222C02BF4C70024609
:1055D800194601320131E9E718B1007BB0FA80F0D1
:1055E8004009704718B1007B431E58425841704724
:1055F80018B1007B831E58425841704720B1C068DB
:1056080010F0030018BF0120704718B1007B031F7A
:1056180058425841704720B1007BA0F10803584216
:105628005841704708B50246FFF7F5FF10B1D2E9B7
:10563800060108BD00200149FBE700BF0000F87F14
:1056480020B1007BA0F1100358425841704708B5BB
:105658000246FFF7F5FF00B1106908BD20B1007BD5
:10566800A0F1200358425841704720B1007BA0F1B7
:10567800400358425841704720B1007BA0F1800395
:105688005842584170472DE9F0470E4617460546DF
:10569800002800F0A080002900F09D80C268CC6836
:1056A800544014F0FF0440F09680D3B2202B48DC1D
:1056B80012F0FC0F06D1013B012B98BF01242046B4
:1056C800BDE8F08701204B4A191F00FA01F10A4092
:1056D800002AF4D0B54200F08A80102B37D042DC83
:1056E800042B00F08480082BE9D1D5E90685D6E99A
:1056F800069625F0004426F0004A21464A465346BD
:10570800404600F01DFB334600284A4629464046DD
:1057180012BF47464F46544600F0DCF800220646C2
:10572800354B21F000453846214606F001F802467F
:105738000B463046294600F0EFFA041E18BF012434
:10574800BDE7402B49D0802BB9D188424FD028697A
:105758000028B4D031690029B1D001F055F8B0FA69
:1057680080F46409ABE7202BA9D1D5F80880B56887
:10577800B8F1000F0BD0002DA1D03A46294640467B
:10578800FFF781FF38B3D8F800802D68F0E7B5FA45
:1057980085F4E6E7D8F820103A463046FEF797FC3D
:1057A800014600288BD03A464046FFF76CFF90B17F
:1057B800D8F8008015E0316A3A462846FEF787FC9B
:1057C800014600283FF47BAF3A463046FFF75BFFBF
:1057D80008B1366809E0002471E7884207D0D5F897
:1057E8000880B8F1000FD5D1B668002EE3D10124A6
:1057F80065E700BF111000100000B03C014B1B68AA
:10580800184700BF40000020014B5B68184700BFE5
:1058180040000020F8B50D46044610B9002528467A
:10582800F8BDC36803F48873102BF7D10769002FFC
:10583800F4D00029F2D0084601F022F9064638468D
:1058480001F01EF986420BD82E44B74202D83844DC
:105858008542E3D92946384601F0B4F82569DEE7E0
:105868002846FEF71FFD05460028D7D0206908B155
:10587800FFF7CAFF2561D2E7F8B506460D461F4671
:105888001446E2B1D9B1D3689B0503D4106A08B1B4
:10589800FFF7BAFF2846FEF705FD206278B1E368F6
:1058A8003A4623F4007329463046E360FEF70FFCBE
:1058B800224601463046BDE8F840FFF765BB0020A8
:1058C800F8BD0023D8E70123D6E700BF81F00041E7
:1058D80002E000BF83F0004330B54FEA41044FEACD
:1058E800430594EA050F08BF90EA020F1FBF54EA68
:1058F800000C55EA020C7FEA645C7FEA655C00F004
:10590800E2804FEA5454D4EB5555B8BF6D420CDDD4
:105918002C4480EA020281EA030382EA000083EA57
:10592800010180EA020281EA0303362D88BF30BDF7
:1059380011F0004F4FEA01314FF4801C4CEA11314D
:1059480002D0404261EB410113F0004F4FEA0333AC
:105958004CEA133302D0524263EB430394EA050F37
:1059680000F0A780A4F10104D5F1200E0DDB02FAA6
:105978000EFC22FA05F2801841F1000103FA0EF23A
:10598800801843FA05F359410EE0A5F120050EF100
:10599800200E012A03FA0EFC28BF4CF0020C43FA31
:1059A80005F3C01851EBE37101F0004507D54FF03E
:1059B800000EDCF1000C7EEB00006EEB0101B1F58E
:1059C800801F1BD3B1F5001F0CD349085FEA3000D4
:1059D8004FEA3C0C04F101044FEA445212F5800FDF
:1059E80080F09A80BCF1004F08BF5FEA500C50F17C
:1059F800000041EB045141EA050130BD5FEA4C0C5F
:105A0800404141EB0101013C28BFB1F5801FE9D2BB
:105A180091F0000F04BF01460020B1FA81F308BFDE
:105A28002033A3F10B03B3F120020CDA0C3208DDAA
:105A380002F1140CC2F10C0201FA0CF021FA02F185
:105A48000CE002F11402D8BFC2F1200C01FA02F1F5
:105A580020FA0CFCDCBF41EA0C019040E41AA2BF1A
:105A680001EB0451294330BD6FEA04041F3C1CDAE2
:105A78000C340EDC04F11404C4F1200220FA04F002
:105A880001FA02F340EA030021FA04F345EA0301AC
:105A980030BDC4F10C04C4F1200220FA02F001FA6E
:105AA80004F340EA0300294630BD21FA04F02946F0
:105AB80030BD94F0000F83F4801306BF81F4801189
:105AC8000134013D4EE77FEA645C18BF7FEA655CFC
